{
  "contractName": "ElectionToken",
  "abi": [
    {
      "inputs": [
        {
          "internalType": "uint256",
          "name": "_initialSupply",
          "type": "uint256"
        },
        {
          "internalType": "address[]",
          "name": "_voterAddresses",
          "type": "address[]"
        },
        {
          "internalType": "address[]",
          "name": "_candidateAddresses",
          "type": "address[]"
        },
        {
          "internalType": "uint256",
          "name": "_start",
          "type": "uint256"
        },
        {
          "internalType": "uint256",
          "name": "_end",
          "type": "uint256"
        }
      ],
      "payable": false,
      "stateMutability": "nonpayable",
      "type": "constructor"
    },
    {
      "anonymous": false,
      "inputs": [
        {
          "indexed": true,
          "internalType": "address",
          "name": "owner",
          "type": "address"
        },
        {
          "indexed": true,
          "internalType": "address",
          "name": "spender",
          "type": "address"
        },
        {
          "indexed": false,
          "internalType": "uint256",
          "name": "value",
          "type": "uint256"
        }
      ],
      "name": "Approval",
      "type": "event"
    },
    {
      "anonymous": false,
      "inputs": [
        {
          "indexed": true,
          "internalType": "address",
          "name": "previousOwner",
          "type": "address"
        },
        {
          "indexed": true,
          "internalType": "address",
          "name": "newOwner",
          "type": "address"
        }
      ],
      "name": "OwnershipTransferred",
      "type": "event"
    },
    {
      "anonymous": false,
      "inputs": [
        {
          "indexed": true,
          "internalType": "address",
          "name": "from",
          "type": "address"
        },
        {
          "indexed": true,
          "internalType": "address",
          "name": "to",
          "type": "address"
        },
        {
          "indexed": false,
          "internalType": "uint256",
          "name": "value",
          "type": "uint256"
        }
      ],
      "name": "Transfer",
      "type": "event"
    },
    {
      "anonymous": false,
      "inputs": [
        {
          "indexed": true,
          "internalType": "address",
          "name": "_candidateId",
          "type": "address"
        }
      ],
      "name": "votedEvent",
      "type": "event"
    },
    {
      "constant": true,
      "inputs": [
        {
          "internalType": "address",
          "name": "owner",
          "type": "address"
        },
        {
          "internalType": "address",
          "name": "spender",
          "type": "address"
        }
      ],
      "name": "allowance",
      "outputs": [
        {
          "internalType": "uint256",
          "name": "",
          "type": "uint256"
        }
      ],
      "payable": false,
      "stateMutability": "view",
      "type": "function"
    },
    {
      "constant": false,
      "inputs": [
        {
          "internalType": "address",
          "name": "spender",
          "type": "address"
        },
        {
          "internalType": "uint256",
          "name": "amount",
          "type": "uint256"
        }
      ],
      "name": "approve",
      "outputs": [
        {
          "internalType": "bool",
          "name": "",
          "type": "bool"
        }
      ],
      "payable": false,
      "stateMutability": "nonpayable",
      "type": "function"
    },
    {
      "constant": true,
      "inputs": [
        {
          "internalType": "address",
          "name": "account",
          "type": "address"
        }
      ],
      "name": "balanceOf",
      "outputs": [
        {
          "internalType": "uint256",
          "name": "",
          "type": "uint256"
        }
      ],
      "payable": false,
      "stateMutability": "view",
      "type": "function"
    },
    {
      "constant": true,
      "inputs": [
        {
          "internalType": "uint256",
          "name": "",
          "type": "uint256"
        }
      ],
      "name": "candidateAddresses",
      "outputs": [
        {
          "internalType": "address",
          "name": "",
          "type": "address"
        }
      ],
      "payable": false,
      "stateMutability": "view",
      "type": "function"
    },
    {
      "constant": true,
      "inputs": [],
      "name": "candidatesCount",
      "outputs": [
        {
          "internalType": "uint256",
          "name": "",
          "type": "uint256"
        }
      ],
      "payable": false,
      "stateMutability": "view",
      "type": "function"
    },
    {
      "constant": true,
      "inputs": [],
      "name": "decimals",
      "outputs": [
        {
          "internalType": "uint8",
          "name": "",
          "type": "uint8"
        }
      ],
      "payable": false,
      "stateMutability": "view",
      "type": "function"
    },
    {
      "constant": false,
      "inputs": [
        {
          "internalType": "address",
          "name": "spender",
          "type": "address"
        },
        {
          "internalType": "uint256",
          "name": "subtractedValue",
          "type": "uint256"
        }
      ],
      "name": "decreaseAllowance",
      "outputs": [
        {
          "internalType": "bool",
          "name": "",
          "type": "bool"
        }
      ],
      "payable": false,
      "stateMutability": "nonpayable",
      "type": "function"
    },
    {
      "constant": false,
      "inputs": [
        {
          "internalType": "address",
          "name": "spender",
          "type": "address"
        },
        {
          "internalType": "uint256",
          "name": "addedValue",
          "type": "uint256"
        }
      ],
      "name": "increaseAllowance",
      "outputs": [
        {
          "internalType": "bool",
          "name": "",
          "type": "bool"
        }
      ],
      "payable": false,
      "stateMutability": "nonpayable",
      "type": "function"
    },
    {
      "constant": true,
      "inputs": [],
      "name": "isOwner",
      "outputs": [
        {
          "internalType": "bool",
          "name": "",
          "type": "bool"
        }
      ],
      "payable": false,
      "stateMutability": "view",
      "type": "function"
    },
    {
      "constant": true,
      "inputs": [],
      "name": "name",
      "outputs": [
        {
          "internalType": "string",
          "name": "",
          "type": "string"
        }
      ],
      "payable": false,
      "stateMutability": "view",
      "type": "function"
    },
    {
      "constant": true,
      "inputs": [],
      "name": "owner",
      "outputs": [
        {
          "internalType": "address",
          "name": "",
          "type": "address"
        }
      ],
      "payable": false,
      "stateMutability": "view",
      "type": "function"
    },
    {
      "constant": false,
      "inputs": [],
      "name": "renounceOwnership",
      "outputs": [],
      "payable": false,
      "stateMutability": "nonpayable",
      "type": "function"
    },
    {
      "constant": true,
      "inputs": [],
      "name": "symbol",
      "outputs": [
        {
          "internalType": "string",
          "name": "",
          "type": "string"
        }
      ],
      "payable": false,
      "stateMutability": "view",
      "type": "function"
    },
    {
      "constant": true,
      "inputs": [],
      "name": "totalSupply",
      "outputs": [
        {
          "internalType": "uint256",
          "name": "",
          "type": "uint256"
        }
      ],
      "payable": false,
      "stateMutability": "view",
      "type": "function"
    },
    {
      "constant": false,
      "inputs": [
        {
          "internalType": "address",
          "name": "recipient",
          "type": "address"
        },
        {
          "internalType": "uint256",
          "name": "amount",
          "type": "uint256"
        }
      ],
      "name": "transfer",
      "outputs": [
        {
          "internalType": "bool",
          "name": "",
          "type": "bool"
        }
      ],
      "payable": false,
      "stateMutability": "nonpayable",
      "type": "function"
    },
    {
      "constant": false,
      "inputs": [
        {
          "internalType": "address",
          "name": "sender",
          "type": "address"
        },
        {
          "internalType": "address",
          "name": "recipient",
          "type": "address"
        },
        {
          "internalType": "uint256",
          "name": "amount",
          "type": "uint256"
        }
      ],
      "name": "transferFrom",
      "outputs": [
        {
          "internalType": "bool",
          "name": "",
          "type": "bool"
        }
      ],
      "payable": false,
      "stateMutability": "nonpayable",
      "type": "function"
    },
    {
      "constant": false,
      "inputs": [
        {
          "internalType": "address",
          "name": "newOwner",
          "type": "address"
        }
      ],
      "name": "transferOwnership",
      "outputs": [],
      "payable": false,
      "stateMutability": "nonpayable",
      "type": "function"
    },
    {
      "constant": true,
      "inputs": [
        {
          "internalType": "uint256",
          "name": "",
          "type": "uint256"
        }
      ],
      "name": "voterAddresses",
      "outputs": [
        {
          "internalType": "address",
          "name": "",
          "type": "address"
        }
      ],
      "payable": false,
      "stateMutability": "view",
      "type": "function"
    },
    {
      "constant": false,
      "inputs": [
        {
          "internalType": "address[]",
          "name": "addresses",
          "type": "address[]"
        }
      ],
      "name": "addVotersList",
      "outputs": [],
      "payable": false,
      "stateMutability": "nonpayable",
      "type": "function"
    },
    {
      "constant": false,
      "inputs": [
        {
          "internalType": "address[]",
          "name": "addresses",
          "type": "address[]"
        }
      ],
      "name": "addCandidatesList",
      "outputs": [],
      "payable": false,
      "stateMutability": "nonpayable",
      "type": "function"
    },
    {
      "constant": false,
      "inputs": [],
      "name": "distributeTokens",
      "outputs": [],
      "payable": false,
      "stateMutability": "nonpayable",
      "type": "function"
    },
    {
      "constant": false,
      "inputs": [
        {
          "internalType": "address",
          "name": "candidateAddress",
          "type": "address"
        }
      ],
      "name": "vote",
      "outputs": [],
      "payable": false,
      "stateMutability": "nonpayable",
      "type": "function"
    },
    {
      "constant": true,
      "inputs": [],
      "name": "getResults",
      "outputs": [
        {
          "internalType": "address[]",
          "name": "",
          "type": "address[]"
        },
        {
          "internalType": "uint256[]",
          "name": "",
          "type": "uint256[]"
        }
      ],
      "payable": false,
      "stateMutability": "view",
      "type": "function"
    },
    {
      "constant": true,
      "inputs": [],
      "name": "getStatistics",
      "outputs": [
        {
          "internalType": "uint256",
          "name": "",
          "type": "uint256"
        },
        {
          "internalType": "uint256",
          "name": "",
          "type": "uint256"
        }
      ],
      "payable": false,
      "stateMutability": "view",
      "type": "function"
    },
    {
      "constant": false,
      "inputs": [
        {
          "internalType": "uint256",
          "name": "_start",
          "type": "uint256"
        }
      ],
      "name": "setElectionStartTime",
      "outputs": [],
      "payable": false,
      "stateMutability": "nonpayable",
      "type": "function"
    },
    {
      "constant": false,
      "inputs": [
        {
          "internalType": "uint256",
          "name": "_expiration",
          "type": "uint256"
        }
      ],
      "name": "setElectionExpirationTime",
      "outputs": [],
      "payable": false,
      "stateMutability": "nonpayable",
      "type": "function"
    },
    {
      "constant": true,
      "inputs": [],
      "name": "displayTime",
      "outputs": [
        {
          "internalType": "uint256",
          "name": "",
          "type": "uint256"
        },
        {
          "internalType": "uint256",
          "name": "",
          "type": "uint256"
        },
        {
          "internalType": "uint256",
          "name": "",
          "type": "uint256"
        }
      ],
      "payable": false,
      "stateMutability": "view",
      "type": "function"
    },
    {
      "constant": true,
      "inputs": [],
      "name": "balanceOFFFF",
      "outputs": [
        {
          "internalType": "uint256[]",
          "name": "",
          "type": "uint256[]"
        }
      ],
      "payable": false,
      "stateMutability": "view",
      "type": "function"
    }
  ],
  "bytecode": "0x60806040523480156200001157600080fd5b506040516200366138038062003661833981810160405260a08110156200003757600080fd5b8101908080519060200190929190805160405193929190846401000000008211156200006257600080fd5b838201915060208201858111156200007957600080fd5b82518660208202830111640100000000821117156200009757600080fd5b8083526020830192505050908051906020019060200280838360005b83811015620000d0578082015181840152602081019050620000b3565b5050505090500160405260200180516040519392919084640100000000821115620000fa57600080fd5b838201915060208201858111156200011157600080fd5b82518660208202830111640100000000821117156200012f57600080fd5b8083526020830192505050908051906020019060200280838360005b83811015620001685780820151818401526020810190506200014b565b5050505090500160405260200180519060200190929190805190602001909291905050506040518060400160405280600b81526020017f566f74696e67546f6b656e0000000000000000000000000000000000000000008152506040518060400160405280600381526020017f5654430000000000000000000000000000000000000000000000000000000000815250600082600390805190602001906200021292919062000e8b565b5081600490805190602001906200022b92919062000e8b565b5080600560006101000a81548160ff021916908360ff16021790555050505033600560016101000a81548173ffffffffffffffffffffffffffffffffffffffff021916908373ffffffffffffffffffffffffffffffffffffffff160217905550600560019054906101000a900473ffffffffffffffffffffffffffffffffffffffff1673ffffffffffffffffffffffffffffffffffffffff16600073ffffffffffffffffffffffffffffffffffffffff167f8be0079c531659141344cd1fd0a4f28419497f9722a3daafe3b4186f6b6457e060405160405180910390a36200031a33866200037960201b60201c565b6200032b846200054360201b60201c565b6200033c836200060b60201b60201c565b6200034c620006d360201b60201c565b6200035d82620007e460201b60201c565b6200036e816200080860201b60201c565b505050505062000f3a565b600073ffffffffffffffffffffffffffffffffffffffff168273ffffffffffffffffffffffffffffffffffffffff1614156200041d576040517f08c379a000000000000000000000000000000000000000000000000000000000815260040180806020018281038252601f8152602001807f45524332303a206d696e7420746f20746865207a65726f20616464726573730081525060200191505060405180910390fd5b62000439816002546200082c60201b620021d21790919060201c565b60028190555062000497816000808573ffffffffffffffffffffffffffffffffffffffff1673ffffffffffffffffffffffffffffffffffffffff168152602001908152602001600020546200082c60201b620021d21790919060201c565b6000808473ffffffffffffffffffffffffffffffffffffffff1673ffffffffffffffffffffffffffffffffffffffff168152602001908152602001600020819055508173ffffffffffffffffffffffffffffffffffffffff16600073ffffffffffffffffffffffffffffffffffffffff167fddf252ad1be2c89b69c2b068fc378daa952ba7f163c4a11628f55a4df523b3ef836040518082815260200191505060405180910390a35050565b62000553620008b560201b60201c565b6200055d57600080fd5b60008090505b81518110156200060757600960008383815181106200057e57fe5b602002602001015173ffffffffffffffffffffffffffffffffffffffff1673ffffffffffffffffffffffffffffffffffffffff16815260200190815260200160002060009054906101000a900460ff16620005f957620005f8828281518110620005e457fe5b60200260200101516200090d60201b60201c565b5b808060010191505062000563565b5050565b6200061b620008b560201b60201c565b6200062557600080fd5b60008090505b8151811015620006cf57600a60008383815181106200064657fe5b602002602001015173ffffffffffffffffffffffffffffffffffffffff1673ffffffffffffffffffffffffffffffffffffffff16815260200190815260200160002060009054906101000a900460ff16620006c157620006c0828281518110620006ac57fe5b6020026020010151620009e860201b60201c565b5b80806001019150506200062b565b5050565b620006e3620008b560201b60201c565b620006ed57600080fd5b60008090505b600680549050811015620007e15760006200071362000ad560201b60201c565b1162000787576040517f08c379a000000000000000000000000000000000000000000000000000000000815260040180806020018281038252600e8152602001807f537570706c79206973206f76657200000000000000000000000000000000000081525060200191505060405180910390fd5b620007d2600682815481106200079957fe5b9060005260206000200160009054906101000a900473ffffffffffffffffffffffffffffffffffffffff16600162000adf60201b60201c565b508080600101915050620006f3565b50565b620007f4620008b560201b60201c565b620007fe57600080fd5b80600d8190555050565b62000818620008b560201b60201c565b6200082257600080fd5b80600c8190555050565b600080828401905083811015620008ab576040517f08c379a000000000000000000000000000000000000000000000000000000000815260040180806020018281038252601b8152602001807f536166654d6174683a206164646974696f6e206f766572666c6f77000000000081525060200191505060405180910390fd5b8091505092915050565b6000600560019054906101000a900473ffffffffffffffffffffffffffffffffffffffff1673ffffffffffffffffffffffffffffffffffffffff163373ffffffffffffffffffffffffffffffffffffffff1614905090565b6200091d620008b560201b60201c565b6200092757600080fd5b6001600960008373ffffffffffffffffffffffffffffffffffffffff1673ffffffffffffffffffffffffffffffffffffffff16815260200190815260200160002060006101000a81548160ff02191690831515021790555060068190806001815401808255809150509060018203906000526020600020016000909192909190916101000a81548173ffffffffffffffffffffffffffffffffffffffff021916908373ffffffffffffffffffffffffffffffffffffffff1602179055505050565b620009f8620008b560201b60201c565b62000a0257600080fd5b6001600a60008373ffffffffffffffffffffffffffffffffffffffff1673ffffffffffffffffffffffffffffffffffffffff16815260200190815260200160002060006101000a81548160ff02191690831515021790555060086000815480929190600101919050555060078190806001815401808255809150509060018203906000526020600020016000909192909190916101000a81548173ffffffffffffffffffffffffffffffffffffffff021916908373ffffffffffffffffffffffffffffffffffffffff1602179055505050565b6000600254905090565b600062000af433848462000afe60201b60201c565b6001905092915050565b600073ffffffffffffffffffffffffffffffffffffffff168373ffffffffffffffffffffffffffffffffffffffff16141562000b86576040517f08c379a00000000000000000000000000000000000000000000000000000000081526004018080602001828103825260258152602001806200363c6025913960400191505060405180910390fd5b600073ffffffffffffffffffffffffffffffffffffffff168273ffffffffffffffffffffffffffffffffffffffff16141562000c0e576040517f08c379a0000000000000000000000000000000000000000000000000000000008152600401808060200182810382526023815260200180620035f36023913960400191505060405180910390fd5b62000c818160405180606001604052806026815260200162003616602691396000808773ffffffffffffffffffffffffffffffffffffffff1673ffffffffffffffffffffffffffffffffffffffff1681526020019081526020016000205462000dc760201b62002040179092919060201c565b6000808573ffffffffffffffffffffffffffffffffffffffff1673ffffffffffffffffffffffffffffffffffffffff1681526020019081526020016000208190555062000d1b816000808573ffffffffffffffffffffffffffffffffffffffff1673ffffffffffffffffffffffffffffffffffffffff168152602001908152602001600020546200082c60201b620021d21790919060201c565b6000808473ffffffffffffffffffffffffffffffffffffffff1673ffffffffffffffffffffffffffffffffffffffff168152602001908152602001600020819055508173ffffffffffffffffffffffffffffffffffffffff168373ffffffffffffffffffffffffffffffffffffffff167fddf252ad1be2c89b69c2b068fc378daa952ba7f163c4a11628f55a4df523b3ef836040518082815260200191505060405180910390a3505050565b600083831115829062000e78576040517f08c379a00000000000000000000000000000000000000000000000000000000081526004018080602001828103825283818151815260200191508051906020019080838360005b8381101562000e3c57808201518184015260208101905062000e1f565b50505050905090810190601f16801562000e6a5780820380516001836020036101000a031916815260200191505b509250505060405180910390fd5b5060008385039050809150509392505050565b828054600181600116156101000203166002900490600052602060002090601f016020900481019282601f1062000ece57805160ff191683800117855562000eff565b8280016001018555821562000eff579182015b8281111562000efe57825182559160200191906001019062000ee1565b5b50905062000f0e919062000f12565b5090565b62000f3791905b8082111562000f3357600081600090555060010162000f19565b5090565b90565b6126a98062000f4a6000396000f3fe608060405234801561001057600080fd5b50600436106101c45760003560e01c80638da5cb5b116100f9578063d55d73c511610097578063f1df6a8411610071578063f1df6a8414610a25578063f2fde38b14610a84578063fddfb93e14610ac8578063ff31fd0c14610af6576101c4565b8063d55d73c5146108d1578063dd0e23731461093f578063dd62ed3e146109ad576101c4565b80639ab1b484116100d35780639ab1b48414610743578063a457c2d71461074d578063a9059cbb146107b3578063cc2edd4014610819576101c4565b80638da5cb5b146106545780638f32d59b1461069e57806395d89b41146106c0576101c4565b8063372d6b27116101665780635fbbe65a116101405780635fbbe65a146105825780636dd7d8ea146105ae57806370a08231146105f2578063715018a61461064a576101c4565b8063372d6b271461045057806339509351146104755780634717f97c146104db576101c4565b806323b872dd116101a257806323b872dd146102d05780632742ab29146103565780632d35a8a21461040e578063313ce5671461042c576101c4565b806306fdde03146101c9578063095ea7b31461024c57806318160ddd146102b2575b600080fd5b6101d1610b24565b6040518080602001828103825283818151815260200191508051906020019080838360005b838110156102115780820151818401526020810190506101f6565b50505050905090810190601f16801561023e5780820380516001836020036101000a031916815260200191505b509250505060405180910390f35b6102986004803603604081101561026257600080fd5b81019080803573ffffffffffffffffffffffffffffffffffffffff16906020019092919080359060200190929190505050610bc6565b604051808215151515815260200191505060405180910390f35b6102ba610bdd565b6040518082815260200191505060405180910390f35b61033c600480360360608110156102e657600080fd5b81019080803573ffffffffffffffffffffffffffffffffffffffff169060200190929190803573ffffffffffffffffffffffffffffffffffffffff16906020019092919080359060200190929190505050610be7565b604051808215151515815260200191505060405180910390f35b61040c6004803603602081101561036c57600080fd5b810190808035906020019064010000000081111561038957600080fd5b82018360208201111561039b57600080fd5b803590602001918460208302840111640100000000831117156103bd57600080fd5b919080806020026020016040519081016040528093929190818152602001838360200280828437600081840152601f19601f820116905080830192505050505050509192919290505050610cb2565b005b610416610d64565b6040518082815260200191505060405180910390f35b610434610d6a565b604051808260ff1660ff16815260200191505060405180910390f35b610458610d81565b604051808381526020018281526020019250505060405180910390f35b6104c16004803603604081101561048b57600080fd5b81019080803573ffffffffffffffffffffffffffffffffffffffff16906020019092919080359060200190929190505050610e52565b604051808215151515815260200191505060405180910390f35b6104e3610ef7565b604051808060200180602001838103835285818151815260200191508051906020019060200280838360005b8381101561052a57808201518184015260208101905061050f565b50505050905001838103825284818151815260200191508051906020019060200280838360005b8381101561056c578082015181840152602081019050610551565b5050505090500194505050505060405180910390f35b61058a611040565b60405180848152602001838152602001828152602001935050505060405180910390f35b6105f0600480360360208110156105c457600080fd5b81019080803573ffffffffffffffffffffffffffffffffffffffff16906020019092919050505061105c565b005b6106346004803603602081101561060857600080fd5b81019080803573ffffffffffffffffffffffffffffffffffffffff1690602001909291905050506114cd565b6040518082815260200191505060405180910390f35b610652611515565b005b61065c6115e7565b604051808273ffffffffffffffffffffffffffffffffffffffff1673ffffffffffffffffffffffffffffffffffffffff16815260200191505060405180910390f35b6106a6611611565b604051808215151515815260200191505060405180910390f35b6106c8611669565b6040518080602001828103825283818151815260200191508051906020019080838360005b838110156107085780820151818401526020810190506106ed565b50505050905090810190601f1680156107355780820380516001836020036101000a031916815260200191505b509250505060405180910390f35b61074b61170b565b005b6107996004803603604081101561076357600080fd5b81019080803573ffffffffffffffffffffffffffffffffffffffff169060200190929190803590602001909291905050506117ff565b604051808215151515815260200191505060405180910390f35b6107ff600480360360408110156107c957600080fd5b81019080803573ffffffffffffffffffffffffffffffffffffffff169060200190929190803590602001909291905050506118be565b604051808215151515815260200191505060405180910390f35b6108cf6004803603602081101561082f57600080fd5b810190808035906020019064010000000081111561084c57600080fd5b82018360208201111561085e57600080fd5b8035906020019184602083028401116401000000008311171561088057600080fd5b919080806020026020016040519081016040528093929190818152602001838360200280828437600081840152601f19601f8201169050808301925050505050505091929192905050506118d5565b005b6108fd600480360360208110156108e757600080fd5b8101908080359060200190929190505050611987565b604051808273ffffffffffffffffffffffffffffffffffffffff1673ffffffffffffffffffffffffffffffffffffffff16815260200191505060405180910390f35b61096b6004803603602081101561095557600080fd5b81019080803590602001909291905050506119c3565b604051808273ffffffffffffffffffffffffffffffffffffffff1673ffffffffffffffffffffffffffffffffffffffff16815260200191505060405180910390f35b610a0f600480360360408110156109c357600080fd5b81019080803573ffffffffffffffffffffffffffffffffffffffff169060200190929190803573ffffffffffffffffffffffffffffffffffffffff1690602001909291905050506119ff565b6040518082815260200191505060405180910390f35b610a2d611a86565b6040518080602001828103825283818151815260200191508051906020019060200280838360005b83811015610a70578082015181840152602081019050610a55565b505050509050019250505060405180910390f35b610ac660048036036020811015610a9a57600080fd5b81019080803573ffffffffffffffffffffffffffffffffffffffff169060200190929190505050611b40565b005b610af460048036036020811015610ade57600080fd5b8101908080359060200190929190505050611b5d565b005b610b2260048036036020811015610b0c57600080fd5b8101908080359060200190929190505050611b78565b005b606060038054600181600116156101000203166002900480601f016020809104026020016040519081016040528092919081815260200182805460018160011615610100020316600290048015610bbc5780601f10610b9157610100808354040283529160200191610bbc565b820191906000526020600020905b815481529060010190602001808311610b9f57829003601f168201915b5050505050905090565b6000610bd3338484611b93565b6001905092915050565b6000600254905090565b6000610bf4848484611d8a565b610ca78433610ca2856040518060600160405280602881526020016125df60289139600160008b73ffffffffffffffffffffffffffffffffffffffff1673ffffffffffffffffffffffffffffffffffffffff16815260200190815260200160002060003373ffffffffffffffffffffffffffffffffffffffff1673ffffffffffffffffffffffffffffffffffffffff168152602001908152602001600020546120409092919063ffffffff16565b611b93565b600190509392505050565b610cba611611565b610cc357600080fd5b60008090505b8151811015610d605760096000838381518110610ce257fe5b602002602001015173ffffffffffffffffffffffffffffffffffffffff1673ffffffffffffffffffffffffffffffffffffffff16815260200190815260200160002060009054906101000a900460ff16610d5357610d52828281518110610d4557fe5b6020026020010151612100565b5b8080600101915050610cc9565b5050565b60085481565b6000600560009054906101000a900460ff16905090565b600080600080905060008090505b600680549050811015610e3957600b600060068381548110610dad57fe5b9060005260206000200160009054906101000a900473ffffffffffffffffffffffffffffffffffffffff1673ffffffffffffffffffffffffffffffffffffffff1673ffffffffffffffffffffffffffffffffffffffff16815260200190815260200160002060009054906101000a900460ff1615610e2c576001820191505b8080600101915050610d8f565b5060008160068054905003905081819350935050509091565b6000610eed3384610ee885600160003373ffffffffffffffffffffffffffffffffffffffff1673ffffffffffffffffffffffffffffffffffffffff16815260200190815260200160002060008973ffffffffffffffffffffffffffffffffffffffff1673ffffffffffffffffffffffffffffffffffffffff168152602001908152602001600020546121d290919063ffffffff16565b611b93565b6001905092915050565b6060806060600780549050604051908082528060200260200182016040528015610f305781602001602082028038833980820191505090505b50905060008090505b600780549050811015610fab57610f8660078281548110610f5657fe5b9060005260206000200160009054906101000a900473ffffffffffffffffffffffffffffffffffffffff166114cd565b828281518110610f9257fe5b6020026020010181815250508080600101915050610f39565b506007818180548060200260200160405190810160405280929190818152602001828054801561103057602002820191906000526020600020905b8160009054906101000a900473ffffffffffffffffffffffffffffffffffffffff1673ffffffffffffffffffffffffffffffffffffffff1681526020019060010190808311610fe6575b5050505050915092509250509091565b60008060008042905080600d54600c5493509350935050909192565b6001600d54024210156110d7576040517f08c379a00000000000000000000000000000000000000000000000000000000081526004018080602001828103825260198152602001807f5468697320706f6c6c206e6f742079657420737461727465640000000000000081525060200191505060405180910390fd5b6001600c54024211156110ed576110ec61225a565b5b6001600c54024210611167576040517f08c379a00000000000000000000000000000000000000000000000000000000081526004018080602001828103825260168152602001807f5468697320706f6c6c2068617320657870697265642e0000000000000000000081525060200191505060405180910390fd5b600a60008273ffffffffffffffffffffffffffffffffffffffff1673ffffffffffffffffffffffffffffffffffffffff16815260200190815260200160002060009054906101000a900460ff16611226576040517f08c379a00000000000000000000000000000000000000000000000000000000081526004018080602001828103825260128152602001807f4973206e6f7420612043616e646964617465000000000000000000000000000081525060200191505060405180910390fd5b600960003373ffffffffffffffffffffffffffffffffffffffff1673ffffffffffffffffffffffffffffffffffffffff16815260200190815260200160002060009054906101000a900460ff166112e5576040517f08c379a000000000000000000000000000000000000000000000000000000000815260040180806020018281038252601b8152602001807f557365722069736e277420617574686f72697a656420766f746572000000000081525060200191505060405180910390fd5b600b60003373ffffffffffffffffffffffffffffffffffffffff1673ffffffffffffffffffffffffffffffffffffffff16815260200190815260200160002060009054906101000a900460ff16156113a5576040517f08c379a00000000000000000000000000000000000000000000000000000000081526004018080602001828103825260128152602001807f5573657220616c726561647920766f746564000000000000000000000000000081525060200191505060405180910390fd5b60006113b0336114cd565b11611423576040517f08c379a000000000000000000000000000000000000000000000000000000000815260040180806020018281038252601a8152602001807f566f74657220646f65736e27742068617665206120746f6b656e00000000000081525060200191505060405180910390fd5b61142e8160016118be565b506001600b60003373ffffffffffffffffffffffffffffffffffffffff1673ffffffffffffffffffffffffffffffffffffffff16815260200190815260200160002060006101000a81548160ff0219169083151502179055508073ffffffffffffffffffffffffffffffffffffffff167f06640b67015c37470a2bc2e00a76d594f6794fae0d12b9e206bc1bf369fe067660405160405180910390a250565b60008060008373ffffffffffffffffffffffffffffffffffffffff1673ffffffffffffffffffffffffffffffffffffffff168152602001908152602001600020549050919050565b61151d611611565b61152657600080fd5b600073ffffffffffffffffffffffffffffffffffffffff16600560019054906101000a900473ffffffffffffffffffffffffffffffffffffffff1673ffffffffffffffffffffffffffffffffffffffff167f8be0079c531659141344cd1fd0a4f28419497f9722a3daafe3b4186f6b6457e060405160405180910390a36000600560016101000a81548173ffffffffffffffffffffffffffffffffffffffff021916908373ffffffffffffffffffffffffffffffffffffffff160217905550565b6000600560019054906101000a900473ffffffffffffffffffffffffffffffffffffffff16905090565b6000600560019054906101000a900473ffffffffffffffffffffffffffffffffffffffff1673ffffffffffffffffffffffffffffffffffffffff163373ffffffffffffffffffffffffffffffffffffffff1614905090565b606060048054600181600116156101000203166002900480601f0160208091040260200160405190810160405280929190818152602001828054600181600116156101000203166002900480156117015780601f106116d657610100808354040283529160200191611701565b820191906000526020600020905b8154815290600101906020018083116116e457829003601f168201915b5050505050905090565b611713611611565b61171c57600080fd5b60008090505b6006805490508110156117fc576000611739610bdd565b116117ac576040517f08c379a000000000000000000000000000000000000000000000000000000000815260040180806020018281038252600e8152602001807f537570706c79206973206f76657200000000000000000000000000000000000081525060200191505060405180910390fd5b6117ee600682815481106117bc57fe5b9060005260206000200160009054906101000a900473ffffffffffffffffffffffffffffffffffffffff1660016118be565b508080600101915050611722565b50565b60006118b433846118af8560405180606001604052806025815260200161265060259139600160003373ffffffffffffffffffffffffffffffffffffffff1673ffffffffffffffffffffffffffffffffffffffff16815260200190815260200160002060008a73ffffffffffffffffffffffffffffffffffffffff1673ffffffffffffffffffffffffffffffffffffffff168152602001908152602001600020546120409092919063ffffffff16565b611b93565b6001905092915050565b60006118cb338484611d8a565b6001905092915050565b6118dd611611565b6118e657600080fd5b60008090505b815181101561198357600a600083838151811061190557fe5b602002602001015173ffffffffffffffffffffffffffffffffffffffff1673ffffffffffffffffffffffffffffffffffffffff16815260200190815260200160002060009054906101000a900460ff166119765761197582828151811061196857fe5b6020026020010151612395565b5b80806001019150506118ec565b5050565b6007818154811061199457fe5b906000526020600020016000915054906101000a900473ffffffffffffffffffffffffffffffffffffffff1681565b600681815481106119d057fe5b906000526020600020016000915054906101000a900473ffffffffffffffffffffffffffffffffffffffff1681565b6000600160008473ffffffffffffffffffffffffffffffffffffffff1673ffffffffffffffffffffffffffffffffffffffff16815260200190815260200160002060008373ffffffffffffffffffffffffffffffffffffffff1673ffffffffffffffffffffffffffffffffffffffff16815260200190815260200160002054905092915050565b606080600780549050604051908082528060200260200182016040528015611abd5781602001602082028038833980820191505090505b50905060008090505b600780549050811015611b3857611b1360078281548110611ae357fe5b9060005260206000200160009054906101000a900473ffffffffffffffffffffffffffffffffffffffff166114cd565b828281518110611b1f57fe5b6020026020010181815250508080600101915050611ac6565b508091505090565b611b48611611565b611b5157600080fd5b611b5a81612479565b50565b611b65611611565b611b6e57600080fd5b80600c8190555050565b611b80611611565b611b8957600080fd5b80600d8190555050565b600073ffffffffffffffffffffffffffffffffffffffff168373ffffffffffffffffffffffffffffffffffffffff161415611c19576040517f08c379a000000000000000000000000000000000000000000000000000000000815260040180806020018281038252602481526020018061262c6024913960400191505060405180910390fd5b600073ffffffffffffffffffffffffffffffffffffffff168273ffffffffffffffffffffffffffffffffffffffff161415611c9f576040517f08c379a00000000000000000000000000000000000000000000000000000000081526004018080602001828103825260228152602001806125976022913960400191505060405180910390fd5b80600160008573ffffffffffffffffffffffffffffffffffffffff1673ffffffffffffffffffffffffffffffffffffffff16815260200190815260200160002060008473ffffffffffffffffffffffffffffffffffffffff1673ffffffffffffffffffffffffffffffffffffffff168152602001908152602001600020819055508173ffffffffffffffffffffffffffffffffffffffff168373ffffffffffffffffffffffffffffffffffffffff167f8c5be1e5ebec7d5bd14f71427d1e84f3dd0314c0f7b2291e5b200ac8c7c3b925836040518082815260200191505060405180910390a3505050565b600073ffffffffffffffffffffffffffffffffffffffff168373ffffffffffffffffffffffffffffffffffffffff161415611e10576040517f08c379a00000000000000000000000000000000000000000000000000000000081526004018080602001828103825260258152602001806126076025913960400191505060405180910390fd5b600073ffffffffffffffffffffffffffffffffffffffff168273ffffffffffffffffffffffffffffffffffffffff161415611e96576040517f08c379a00000000000000000000000000000000000000000000000000000000081526004018080602001828103825260238152602001806125746023913960400191505060405180910390fd5b611f01816040518060600160405280602681526020016125b9602691396000808773ffffffffffffffffffffffffffffffffffffffff1673ffffffffffffffffffffffffffffffffffffffff168152602001908152602001600020546120409092919063ffffffff16565b6000808573ffffffffffffffffffffffffffffffffffffffff1673ffffffffffffffffffffffffffffffffffffffff16815260200190815260200160002081905550611f94816000808573ffffffffffffffffffffffffffffffffffffffff1673ffffffffffffffffffffffffffffffffffffffff168152602001908152602001600020546121d290919063ffffffff16565b6000808473ffffffffffffffffffffffffffffffffffffffff1673ffffffffffffffffffffffffffffffffffffffff168152602001908152602001600020819055508173ffffffffffffffffffffffffffffffffffffffff168373ffffffffffffffffffffffffffffffffffffffff167fddf252ad1be2c89b69c2b068fc378daa952ba7f163c4a11628f55a4df523b3ef836040518082815260200191505060405180910390a3505050565b60008383111582906120ed576040517f08c379a00000000000000000000000000000000000000000000000000000000081526004018080602001828103825283818151815260200191508051906020019080838360005b838110156120b2578082015181840152602081019050612097565b50505050905090810190601f1680156120df5780820380516001836020036101000a031916815260200191505b509250505060405180910390fd5b5060008385039050809150509392505050565b612108611611565b61211157600080fd5b6001600960008373ffffffffffffffffffffffffffffffffffffffff1673ffffffffffffffffffffffffffffffffffffffff16815260200190815260200160002060006101000a81548160ff02191690831515021790555060068190806001815401808255809150509060018203906000526020600020016000909192909190916101000a81548173ffffffffffffffffffffffffffffffffffffffff021916908373ffffffffffffffffffffffffffffffffffffffff1602179055505050565b600080828401905083811015612250576040517f08c379a000000000000000000000000000000000000000000000000000000000815260040180806020018281038252601b8152602001807f536166654d6174683a206164646974696f6e206f766572666c6f77000000000081525060200191505060405180910390fd5b8091505092915050565b60008090505b60068054905081101561239257600b60006006838154811061227e57fe5b9060005260206000200160009054906101000a900473ffffffffffffffffffffffffffffffffffffffff1673ffffffffffffffffffffffffffffffffffffffff1673ffffffffffffffffffffffffffffffffffffffff16815260200190815260200160002060009054906101000a900460ff16612385576001600b60006006848154811061230857fe5b9060005260206000200160009054906101000a900473ffffffffffffffffffffffffffffffffffffffff1673ffffffffffffffffffffffffffffffffffffffff1673ffffffffffffffffffffffffffffffffffffffff16815260200190815260200160002060006101000a81548160ff0219169083151502179055505b8080600101915050612260565b50565b61239d611611565b6123a657600080fd5b6001600a60008373ffffffffffffffffffffffffffffffffffffffff1673ffffffffffffffffffffffffffffffffffffffff16815260200190815260200160002060006101000a81548160ff02191690831515021790555060086000815480929190600101919050555060078190806001815401808255809150509060018203906000526020600020016000909192909190916101000a81548173ffffffffffffffffffffffffffffffffffffffff021916908373ffffffffffffffffffffffffffffffffffffffff1602179055505050565b600073ffffffffffffffffffffffffffffffffffffffff168173ffffffffffffffffffffffffffffffffffffffff1614156124b357600080fd5b8073ffffffffffffffffffffffffffffffffffffffff16600560019054906101000a900473ffffffffffffffffffffffffffffffffffffffff1673ffffffffffffffffffffffffffffffffffffffff167f8be0079c531659141344cd1fd0a4f28419497f9722a3daafe3b4186f6b6457e060405160405180910390a380600560016101000a81548173ffffffffffffffffffffffffffffffffffffffff021916908373ffffffffffffffffffffffffffffffffffffffff1602179055505056fe45524332303a207472616e7366657220746f20746865207a65726f206164647265737345524332303a20617070726f766520746f20746865207a65726f206164647265737345524332303a207472616e7366657220616d6f756e7420657863656564732062616c616e636545524332303a207472616e7366657220616d6f756e74206578636565647320616c6c6f77616e636545524332303a207472616e736665722066726f6d20746865207a65726f206164647265737345524332303a20617070726f76652066726f6d20746865207a65726f206164647265737345524332303a2064656372656173656420616c6c6f77616e63652062656c6f77207a65726fa265627a7a723158203a7bf8950e8db600db91bcd059ba493dadd17c214a6df69c10cabc182a8688b264736f6c634300050c003245524332303a207472616e7366657220746f20746865207a65726f206164647265737345524332303a207472616e7366657220616d6f756e7420657863656564732062616c616e636545524332303a207472616e736665722066726f6d20746865207a65726f2061646472657373",
  "source": "pragma solidity >=0.4.22 <0.6.0;\r\n\r\nimport  \"./erc20.sol\";\r\nimport  \"./erc20Detailed.sol\";\r\nimport  \"./Owned.sol\";\r\n\r\ncontract ElectionToken is erc20, erc20Detailed, Owned{\r\n\r\n    address[] public voterAddresses;\r\n    address[] public candidateAddresses;\r\n    \r\n    uint public candidatesCount;\r\n    \r\n    event votedEvent (\r\n        address indexed _candidateId\r\n    );\r\n\r\n    mapping (address => bool) voterAddressInitialized;\r\n    mapping (address => bool) candidateAddressInitialized;\r\n\r\n    mapping (address => bool) voted;\r\n\r\n    /*https://www.unixtimestamp.com/index.php*/\r\n    uint256 private expiration;    // contract expiration time *** 1577971200 =2/1/2020 13:20:00\r\n    uint256 private start;         // contract start time\r\n\r\n    constructor(uint256 _initialSupply, address[] memory _voterAddresses, address[] memory _candidateAddresses, uint256 _start, uint256 _end) erc20Detailed(\"VotingToken\", \"VTC\", 0)public{    //_initialTokenSupply = number of voters\r\n        _mint(msg.sender, _initialSupply);\r\n        addVotersList(_voterAddresses);\r\n        addCandidatesList(_candidateAddresses);\r\n        distributeTokens();\r\n        setElectionStartTime(_start);\r\n        setElectionExpirationTime(_end);\r\n    }\r\n    \r\n    function addVoterAddress(address _address) internal onlyOwner{\r\n        voterAddressInitialized[_address] = true;\r\n        voterAddresses.push(_address);\r\n    }\r\n    // function counter() public  returns(uint256){\r\n    //     uint256 x= candidatesCount;\r\n    //     return x;\r\n    // }\r\n\r\n    function addVotersList(address[] memory addresses) public onlyOwner{\r\n        //require(now < (start * 1 seconds), \"Poll started v\");\r\n        for(uint i = 0; i < addresses.length; i++){\r\n            if(!voterAddressInitialized[addresses[i]]){\r\n                addVoterAddress(addresses[i]);\r\n            }\r\n        }\r\n    }\r\n\r\n    function addCandidateAddress(address _address) internal onlyOwner{\r\n        candidateAddressInitialized[_address] = true;\r\n        candidatesCount ++;\r\n        candidateAddresses.push(_address);\r\n    }\r\n\r\n    function addCandidatesList(address[] memory addresses) public onlyOwner{\r\n        //require(now < (start * 1 seconds), \"Poll started c\");\r\n        for(uint i = 0; i < addresses.length; i++){\r\n            if(!candidateAddressInitialized[addresses[i]]){\r\n                addCandidateAddress(addresses[i]);\r\n            }\r\n        }\r\n    }\r\n\r\n    function distributeTokens() public onlyOwner{\r\n        for(uint i = 0; i < voterAddresses.length; i++){\r\n            require(totalSupply() > 0,\"Supply is over\");\r\n            transfer(voterAddresses[i],1);\r\n        }\r\n    }\r\n\r\n    function vote(address candidateAddress) public {\r\n        //require(!timeLimit,\"Election ended\");\r\n        require(now >= (start * 1 seconds), \"This poll not yet started\");\r\n        if(now > (expiration * 1 seconds)){\r\n            endElection();\r\n        }\r\n        require(now < (expiration * 1 seconds), \"This poll has expired.\");\r\n        require(candidateAddressInitialized[candidateAddress],\"Is not a Candidate\");\r\n        require(voterAddressInitialized[msg.sender],\"User isn't authorized voter\");\r\n        require(!voted[msg.sender],\"User already voted\");\r\n        require(balanceOf(msg.sender) > 0,\"Voter doesn't have a token\");\r\n        transfer(candidateAddress,1);\r\n        voted[msg.sender] = true;\r\n        emit  votedEvent(candidateAddress);\r\n    }\r\n\r\n    function getResults() public view returns (address[] memory , uint256[] memory ){\r\n        uint256[] memory results = new uint256[](candidateAddresses.length);\r\n        for(uint i = 0; i < candidateAddresses.length; i++){\r\n            results[i] = balanceOf(candidateAddresses[i]);\r\n        }\r\n        return (candidateAddresses,results);\r\n    }\r\n\r\n    function getStatistics() public view returns (uint256 , uint256 ){      // return how many voted and didnt how many didn't\r\n        uint256 didVoteAmount = 0;\r\n        for(uint i = 0; i < voterAddresses.length; i++){\r\n            if(voted[voterAddresses[i]]){  // if voter voted\r\n                didVoteAmount += 1;\r\n            }\r\n        }\r\n        uint256 didntVoteAmount = voterAddresses.length - didVoteAmount;\r\n        return (didVoteAmount,didntVoteAmount);\r\n    }\r\n\r\n    function endElection() private {        // if voter didnt vote set him as if he did\r\n        for(uint i = 0; i < voterAddresses.length; i++){\r\n            if(!voted[voterAddresses[i]]){\r\n                voted[voterAddresses[i]] = true;\r\n            }\r\n        }\r\n    }\r\n\r\n    function setElectionStartTime(uint _start) public onlyOwner{\r\n        start = _start;\r\n    }\r\n\r\n    function setElectionExpirationTime(uint _expiration) public onlyOwner{\r\n        expiration = _expiration;\r\n    }\r\n\r\n    function displayTime() public view returns(uint256, uint256, uint256){\r\n        uint256 timeNow = now;\r\n        return (timeNow, start, expiration);\r\n    }\r\n\r\n    //******for test******\r\n    function balanceOFFFF()public view  returns ( uint256[] memory){\r\n    uint256[] memory votebalance= new uint256[](candidateAddresses.length);\r\n    for(uint i = 0; i < candidateAddresses.length; i++)\r\n    {\r\n    votebalance[i]=balanceOf(candidateAddresses[i]);\r\n}\r\nreturn votebalance;\r\n}\r\n    // function balanceOFFF(address _address)public view returns (uint256){\r\n    //     return balanceOf(_address);\r\n    // }\r\n}",
  "sourcePath": "C:/Users/Misha/Downloads/Votechain/contracts/ElectionToken.sol",
  "compiler": {
    "name": "solc",
    "version": "0.5.12+commit.7709ece9.Emscripten.clang"
  },
  "schemaVersion": "3.0.19",
  "updatedAt": "2020-01-12T17:12:35.315Z",
  "devdoc": {
    "methods": {
      "allowance(address,address)": {
        "details": "See {IERC20-allowance}."
      },
      "approve(address,uint256)": {
        "details": "See {IERC20-approve}.      * Requirements:      * - `spender` cannot be the zero address."
      },
      "balanceOf(address)": {
        "details": "See {IERC20-balanceOf}."
      },
      "decimals()": {
        "details": "Returns the number of decimals used to get its user representation. For example, if `decimals` equals `2`, a balance of `505` tokens should be displayed to a user as `5,05` (`505 / 10 ** 2`).      * Tokens usually opt for a value of 18, imitating the relationship between Ether and Wei.      * NOTE: This information is only used for _display_ purposes: it in no way affects any of the arithmetic of the contract, including {IERC20-balanceOf} and {IERC20-transfer}."
      },
      "decreaseAllowance(address,uint256)": {
        "details": "Atomically decreases the allowance granted to `spender` by the caller.      * This is an alternative to {approve} that can be used as a mitigation for problems described in {IERC20-approve}.      * Emits an {Approval} event indicating the updated allowance.      * Requirements:      * - `spender` cannot be the zero address. - `spender` must have allowance for the caller of at least `subtractedValue`."
      },
      "increaseAllowance(address,uint256)": {
        "details": "Atomically increases the allowance granted to `spender` by the caller.      * This is an alternative to {approve} that can be used as a mitigation for problems described in {IERC20-approve}.      * Emits an {Approval} event indicating the updated allowance.      * Requirements:      * - `spender` cannot be the zero address."
      },
      "isOwner()": {
        "return": "true if `msg.sender` is the owner of the contract."
      },
      "name()": {
        "details": "Returns the name of the token."
      },
      "owner()": {
        "return": "the address of the owner."
      },
      "renounceOwnership()": {
        "details": "Allows the current owner to relinquish control of the contract."
      },
      "symbol()": {
        "details": "Returns the symbol of the token, usually a shorter version of the name."
      },
      "totalSupply()": {
        "details": "See {IERC20-totalSupply}."
      },
      "transfer(address,uint256)": {
        "details": "See {IERC20-transfer}.      * Requirements:      * - `recipient` cannot be the zero address. - the caller must have a balance of at least `amount`."
      },
      "transferFrom(address,address,uint256)": {
        "details": "See {IERC20-transferFrom}.      * Emits an {Approval} event indicating the updated allowance. This is not required by the EIP. See the note at the beginning of {ERC20};      * Requirements: - `sender` and `recipient` cannot be the zero address. - `sender` must have a balance of at least `amount`. - the caller must have allowance for `sender`'s tokens of at least `amount`."
      },
      "transferOwnership(address)": {
        "details": "Allows the current owner to transfer control of the contract to a newOwner.",
        "params": {
          "newOwner": "The address to transfer ownership to."
        }
      }
    }
  },
  "userdoc": {
    "methods": {
      "renounceOwnership()": {
        "notice": "Renouncing to ownership will leave the contract without an owner. It will not be possible to call the functions with the `onlyOwner` modifier anymore."
      }
    }
  }
}