{
  "contractName": "ElectionToken",
  "abi": [
    {
      "inputs": [
        {
          "internalType": "uint256",
          "name": "_initialSupply",
          "type": "uint256"
        },
        {
          "internalType": "address[]",
          "name": "_voterAddresses",
          "type": "address[]"
        },
        {
          "internalType": "address[]",
          "name": "_candidateAddresses",
          "type": "address[]"
        },
        {
          "internalType": "uint256",
          "name": "_start",
          "type": "uint256"
        },
        {
          "internalType": "uint256",
          "name": "_end",
          "type": "uint256"
        }
      ],
      "payable": false,
      "stateMutability": "nonpayable",
      "type": "constructor"
    },
    {
      "anonymous": false,
      "inputs": [
        {
          "indexed": true,
          "internalType": "address",
          "name": "owner",
          "type": "address"
        },
        {
          "indexed": true,
          "internalType": "address",
          "name": "spender",
          "type": "address"
        },
        {
          "indexed": false,
          "internalType": "uint256",
          "name": "value",
          "type": "uint256"
        }
      ],
      "name": "Approval",
      "type": "event"
    },
    {
      "anonymous": false,
      "inputs": [
        {
          "indexed": true,
          "internalType": "address",
          "name": "previousOwner",
          "type": "address"
        },
        {
          "indexed": true,
          "internalType": "address",
          "name": "newOwner",
          "type": "address"
        }
      ],
      "name": "OwnershipTransferred",
      "type": "event"
    },
    {
      "anonymous": false,
      "inputs": [
        {
          "indexed": true,
          "internalType": "address",
          "name": "from",
          "type": "address"
        },
        {
          "indexed": true,
          "internalType": "address",
          "name": "to",
          "type": "address"
        },
        {
          "indexed": false,
          "internalType": "uint256",
          "name": "value",
          "type": "uint256"
        }
      ],
      "name": "Transfer",
      "type": "event"
    },
    {
      "constant": true,
      "inputs": [
        {
          "internalType": "address",
          "name": "owner",
          "type": "address"
        },
        {
          "internalType": "address",
          "name": "spender",
          "type": "address"
        }
      ],
      "name": "allowance",
      "outputs": [
        {
          "internalType": "uint256",
          "name": "",
          "type": "uint256"
        }
      ],
      "payable": false,
      "stateMutability": "view",
      "type": "function"
    },
    {
      "constant": false,
      "inputs": [
        {
          "internalType": "address",
          "name": "spender",
          "type": "address"
        },
        {
          "internalType": "uint256",
          "name": "amount",
          "type": "uint256"
        }
      ],
      "name": "approve",
      "outputs": [
        {
          "internalType": "bool",
          "name": "",
          "type": "bool"
        }
      ],
      "payable": false,
      "stateMutability": "nonpayable",
      "type": "function"
    },
    {
      "constant": true,
      "inputs": [
        {
          "internalType": "address",
          "name": "account",
          "type": "address"
        }
      ],
      "name": "balanceOf",
      "outputs": [
        {
          "internalType": "uint256",
          "name": "",
          "type": "uint256"
        }
      ],
      "payable": false,
      "stateMutability": "view",
      "type": "function"
    },
    {
      "constant": true,
      "inputs": [
        {
          "internalType": "uint256",
          "name": "",
          "type": "uint256"
        }
      ],
      "name": "candidateAddresses",
      "outputs": [
        {
          "internalType": "address",
          "name": "",
          "type": "address"
        }
      ],
      "payable": false,
      "stateMutability": "view",
      "type": "function"
    },
    {
      "constant": true,
      "inputs": [],
      "name": "candidatesCount",
      "outputs": [
        {
          "internalType": "uint256",
          "name": "",
          "type": "uint256"
        }
      ],
      "payable": false,
      "stateMutability": "view",
      "type": "function"
    },
    {
      "constant": true,
      "inputs": [],
      "name": "decimals",
      "outputs": [
        {
          "internalType": "uint8",
          "name": "",
          "type": "uint8"
        }
      ],
      "payable": false,
      "stateMutability": "view",
      "type": "function"
    },
    {
      "constant": false,
      "inputs": [
        {
          "internalType": "address",
          "name": "spender",
          "type": "address"
        },
        {
          "internalType": "uint256",
          "name": "subtractedValue",
          "type": "uint256"
        }
      ],
      "name": "decreaseAllowance",
      "outputs": [
        {
          "internalType": "bool",
          "name": "",
          "type": "bool"
        }
      ],
      "payable": false,
      "stateMutability": "nonpayable",
      "type": "function"
    },
    {
      "constant": false,
      "inputs": [
        {
          "internalType": "address",
          "name": "spender",
          "type": "address"
        },
        {
          "internalType": "uint256",
          "name": "addedValue",
          "type": "uint256"
        }
      ],
      "name": "increaseAllowance",
      "outputs": [
        {
          "internalType": "bool",
          "name": "",
          "type": "bool"
        }
      ],
      "payable": false,
      "stateMutability": "nonpayable",
      "type": "function"
    },
    {
      "constant": true,
      "inputs": [],
      "name": "isOwner",
      "outputs": [
        {
          "internalType": "bool",
          "name": "",
          "type": "bool"
        }
      ],
      "payable": false,
      "stateMutability": "view",
      "type": "function"
    },
    {
      "constant": true,
      "inputs": [],
      "name": "name",
      "outputs": [
        {
          "internalType": "string",
          "name": "",
          "type": "string"
        }
      ],
      "payable": false,
      "stateMutability": "view",
      "type": "function"
    },
    {
      "constant": true,
      "inputs": [],
      "name": "owner",
      "outputs": [
        {
          "internalType": "address",
          "name": "",
          "type": "address"
        }
      ],
      "payable": false,
      "stateMutability": "view",
      "type": "function"
    },
    {
      "constant": false,
      "inputs": [],
      "name": "renounceOwnership",
      "outputs": [],
      "payable": false,
      "stateMutability": "nonpayable",
      "type": "function"
    },
    {
      "constant": true,
      "inputs": [],
      "name": "symbol",
      "outputs": [
        {
          "internalType": "string",
          "name": "",
          "type": "string"
        }
      ],
      "payable": false,
      "stateMutability": "view",
      "type": "function"
    },
    {
      "constant": true,
      "inputs": [],
      "name": "totalSupply",
      "outputs": [
        {
          "internalType": "uint256",
          "name": "",
          "type": "uint256"
        }
      ],
      "payable": false,
      "stateMutability": "view",
      "type": "function"
    },
    {
      "constant": false,
      "inputs": [
        {
          "internalType": "address",
          "name": "recipient",
          "type": "address"
        },
        {
          "internalType": "uint256",
          "name": "amount",
          "type": "uint256"
        }
      ],
      "name": "transfer",
      "outputs": [
        {
          "internalType": "bool",
          "name": "",
          "type": "bool"
        }
      ],
      "payable": false,
      "stateMutability": "nonpayable",
      "type": "function"
    },
    {
      "constant": false,
      "inputs": [
        {
          "internalType": "address",
          "name": "sender",
          "type": "address"
        },
        {
          "internalType": "address",
          "name": "recipient",
          "type": "address"
        },
        {
          "internalType": "uint256",
          "name": "amount",
          "type": "uint256"
        }
      ],
      "name": "transferFrom",
      "outputs": [
        {
          "internalType": "bool",
          "name": "",
          "type": "bool"
        }
      ],
      "payable": false,
      "stateMutability": "nonpayable",
      "type": "function"
    },
    {
      "constant": false,
      "inputs": [
        {
          "internalType": "address",
          "name": "newOwner",
          "type": "address"
        }
      ],
      "name": "transferOwnership",
      "outputs": [],
      "payable": false,
      "stateMutability": "nonpayable",
      "type": "function"
    },
    {
      "constant": true,
      "inputs": [
        {
          "internalType": "uint256",
          "name": "",
          "type": "uint256"
        }
      ],
      "name": "voterAddresses",
      "outputs": [
        {
          "internalType": "address",
          "name": "",
          "type": "address"
        }
      ],
      "payable": false,
      "stateMutability": "view",
      "type": "function"
    },
    {
      "constant": false,
      "inputs": [
        {
          "internalType": "address[]",
          "name": "addresses",
          "type": "address[]"
        }
      ],
      "name": "addVotersList",
      "outputs": [],
      "payable": false,
      "stateMutability": "nonpayable",
      "type": "function"
    },
    {
      "constant": false,
      "inputs": [
        {
          "internalType": "address[]",
          "name": "addresses",
          "type": "address[]"
        }
      ],
      "name": "addCandidatesList",
      "outputs": [],
      "payable": false,
      "stateMutability": "nonpayable",
      "type": "function"
    },
    {
      "constant": false,
      "inputs": [],
      "name": "distributeTokens",
      "outputs": [],
      "payable": false,
      "stateMutability": "nonpayable",
      "type": "function"
    },
    {
      "constant": false,
      "inputs": [
        {
          "internalType": "address",
          "name": "candidateAddress",
          "type": "address"
        }
      ],
      "name": "vote",
      "outputs": [],
      "payable": false,
      "stateMutability": "nonpayable",
      "type": "function"
    },
    {
      "constant": true,
      "inputs": [],
      "name": "getResults",
      "outputs": [
        {
          "internalType": "address[]",
          "name": "",
          "type": "address[]"
        },
        {
          "internalType": "uint256[]",
          "name": "",
          "type": "uint256[]"
        }
      ],
      "payable": false,
      "stateMutability": "view",
      "type": "function"
    },
    {
      "constant": true,
      "inputs": [],
      "name": "getStatistics",
      "outputs": [
        {
          "internalType": "uint256",
          "name": "",
          "type": "uint256"
        },
        {
          "internalType": "uint256",
          "name": "",
          "type": "uint256"
        }
      ],
      "payable": false,
      "stateMutability": "view",
      "type": "function"
    },
    {
      "constant": false,
      "inputs": [
        {
          "internalType": "uint256",
          "name": "_start",
          "type": "uint256"
        }
      ],
      "name": "setElectionStartTime",
      "outputs": [],
      "payable": false,
      "stateMutability": "nonpayable",
      "type": "function"
    },
    {
      "constant": false,
      "inputs": [
        {
          "internalType": "uint256",
          "name": "_expiration",
          "type": "uint256"
        }
      ],
      "name": "setElectionExpirationTime",
      "outputs": [],
      "payable": false,
      "stateMutability": "nonpayable",
      "type": "function"
    },
    {
      "constant": true,
      "inputs": [],
      "name": "displayTime",
      "outputs": [
        {
          "internalType": "uint256",
          "name": "",
          "type": "uint256"
        },
        {
          "internalType": "uint256",
          "name": "",
          "type": "uint256"
        },
        {
          "internalType": "uint256",
          "name": "",
          "type": "uint256"
        }
      ],
      "payable": false,
      "stateMutability": "view",
      "type": "function"
    },
    {
      "constant": true,
      "inputs": [
        {
          "internalType": "address",
          "name": "_address",
          "type": "address"
        }
      ],
      "name": "balanceOFFFF",
      "outputs": [
        {
          "internalType": "uint256",
          "name": "",
          "type": "uint256"
        }
      ],
      "payable": false,
      "stateMutability": "view",
      "type": "function"
    },
    {
      "constant": true,
      "inputs": [
        {
          "internalType": "address",
          "name": "_address",
          "type": "address"
        }
      ],
      "name": "balanceOFFF",
      "outputs": [
        {
          "internalType": "uint256",
          "name": "",
          "type": "uint256"
        }
      ],
      "payable": false,
      "stateMutability": "view",
      "type": "function"
    }
  ],
  "bytecode": "0x60806040523480156200001157600080fd5b50604051620035e4380380620035e4833981810160405260a08110156200003757600080fd5b8101908080519060200190929190805160405193929190846401000000008211156200006257600080fd5b838201915060208201858111156200007957600080fd5b82518660208202830111640100000000821117156200009757600080fd5b8083526020830192505050908051906020019060200280838360005b83811015620000d0578082015181840152602081019050620000b3565b5050505090500160405260200180516040519392919084640100000000821115620000fa57600080fd5b838201915060208201858111156200011157600080fd5b82518660208202830111640100000000821117156200012f57600080fd5b8083526020830192505050908051906020019060200280838360005b83811015620001685780820151818401526020810190506200014b565b5050505090500160405260200180519060200190929190805190602001909291905050506040518060400160405280600b81526020017f566f74696e67546f6b656e0000000000000000000000000000000000000000008152506040518060400160405280600381526020017f5654430000000000000000000000000000000000000000000000000000000000815250600082600390805190602001906200021292919062000e8b565b5081600490805190602001906200022b92919062000e8b565b5080600560006101000a81548160ff021916908360ff16021790555050505033600560016101000a81548173ffffffffffffffffffffffffffffffffffffffff021916908373ffffffffffffffffffffffffffffffffffffffff160217905550600560019054906101000a900473ffffffffffffffffffffffffffffffffffffffff1673ffffffffffffffffffffffffffffffffffffffff16600073ffffffffffffffffffffffffffffffffffffffff167f8be0079c531659141344cd1fd0a4f28419497f9722a3daafe3b4186f6b6457e060405160405180910390a36200031a33866200037960201b60201c565b6200032b846200054360201b60201c565b6200033c836200060b60201b60201c565b6200034c620006d360201b60201c565b6200035d82620007e460201b60201c565b6200036e816200080860201b60201c565b505050505062000f3a565b600073ffffffffffffffffffffffffffffffffffffffff168273ffffffffffffffffffffffffffffffffffffffff1614156200041d576040517f08c379a000000000000000000000000000000000000000000000000000000000815260040180806020018281038252601f8152602001807f45524332303a206d696e7420746f20746865207a65726f20616464726573730081525060200191505060405180910390fd5b62000439816002546200082c60201b620021551790919060201c565b60028190555062000497816000808573ffffffffffffffffffffffffffffffffffffffff1673ffffffffffffffffffffffffffffffffffffffff168152602001908152602001600020546200082c60201b620021551790919060201c565b6000808473ffffffffffffffffffffffffffffffffffffffff1673ffffffffffffffffffffffffffffffffffffffff168152602001908152602001600020819055508173ffffffffffffffffffffffffffffffffffffffff16600073ffffffffffffffffffffffffffffffffffffffff167fddf252ad1be2c89b69c2b068fc378daa952ba7f163c4a11628f55a4df523b3ef836040518082815260200191505060405180910390a35050565b62000553620008b560201b60201c565b6200055d57600080fd5b60008090505b81518110156200060757600960008383815181106200057e57fe5b602002602001015173ffffffffffffffffffffffffffffffffffffffff1673ffffffffffffffffffffffffffffffffffffffff16815260200190815260200160002060009054906101000a900460ff16620005f957620005f8828281518110620005e457fe5b60200260200101516200090d60201b60201c565b5b808060010191505062000563565b5050565b6200061b620008b560201b60201c565b6200062557600080fd5b60008090505b8151811015620006cf57600a60008383815181106200064657fe5b602002602001015173ffffffffffffffffffffffffffffffffffffffff1673ffffffffffffffffffffffffffffffffffffffff16815260200190815260200160002060009054906101000a900460ff16620006c157620006c0828281518110620006ac57fe5b6020026020010151620009e860201b60201c565b5b80806001019150506200062b565b5050565b620006e3620008b560201b60201c565b620006ed57600080fd5b60008090505b600680549050811015620007e15760006200071362000ad560201b60201c565b1162000787576040517f08c379a000000000000000000000000000000000000000000000000000000000815260040180806020018281038252600e8152602001807f537570706c79206973206f76657200000000000000000000000000000000000081525060200191505060405180910390fd5b620007d2600682815481106200079957fe5b9060005260206000200160009054906101000a900473ffffffffffffffffffffffffffffffffffffffff16600162000adf60201b60201c565b508080600101915050620006f3565b50565b620007f4620008b560201b60201c565b620007fe57600080fd5b80600d8190555050565b62000818620008b560201b60201c565b6200082257600080fd5b80600c8190555050565b600080828401905083811015620008ab576040517f08c379a000000000000000000000000000000000000000000000000000000000815260040180806020018281038252601b8152602001807f536166654d6174683a206164646974696f6e206f766572666c6f77000000000081525060200191505060405180910390fd5b8091505092915050565b6000600560019054906101000a900473ffffffffffffffffffffffffffffffffffffffff1673ffffffffffffffffffffffffffffffffffffffff163373ffffffffffffffffffffffffffffffffffffffff1614905090565b6200091d620008b560201b60201c565b6200092757600080fd5b6001600960008373ffffffffffffffffffffffffffffffffffffffff1673ffffffffffffffffffffffffffffffffffffffff16815260200190815260200160002060006101000a81548160ff02191690831515021790555060068190806001815401808255809150509060018203906000526020600020016000909192909190916101000a81548173ffffffffffffffffffffffffffffffffffffffff021916908373ffffffffffffffffffffffffffffffffffffffff1602179055505050565b620009f8620008b560201b60201c565b62000a0257600080fd5b6001600a60008373ffffffffffffffffffffffffffffffffffffffff1673ffffffffffffffffffffffffffffffffffffffff16815260200190815260200160002060006101000a81548160ff02191690831515021790555060086000815480929190600101919050555060078190806001815401808255809150509060018203906000526020600020016000909192909190916101000a81548173ffffffffffffffffffffffffffffffffffffffff021916908373ffffffffffffffffffffffffffffffffffffffff1602179055505050565b6000600254905090565b600062000af433848462000afe60201b60201c565b6001905092915050565b600073ffffffffffffffffffffffffffffffffffffffff168373ffffffffffffffffffffffffffffffffffffffff16141562000b86576040517f08c379a0000000000000000000000000000000000000000000000000000000008152600401808060200182810382526025815260200180620035bf6025913960400191505060405180910390fd5b600073ffffffffffffffffffffffffffffffffffffffff168273ffffffffffffffffffffffffffffffffffffffff16141562000c0e576040517f08c379a0000000000000000000000000000000000000000000000000000000008152600401808060200182810382526023815260200180620035766023913960400191505060405180910390fd5b62000c818160405180606001604052806026815260200162003599602691396000808773ffffffffffffffffffffffffffffffffffffffff1673ffffffffffffffffffffffffffffffffffffffff1681526020019081526020016000205462000dc760201b62001fc3179092919060201c565b6000808573ffffffffffffffffffffffffffffffffffffffff1673ffffffffffffffffffffffffffffffffffffffff1681526020019081526020016000208190555062000d1b816000808573ffffffffffffffffffffffffffffffffffffffff1673ffffffffffffffffffffffffffffffffffffffff168152602001908152602001600020546200082c60201b620021551790919060201c565b6000808473ffffffffffffffffffffffffffffffffffffffff1673ffffffffffffffffffffffffffffffffffffffff168152602001908152602001600020819055508173ffffffffffffffffffffffffffffffffffffffff168373ffffffffffffffffffffffffffffffffffffffff167fddf252ad1be2c89b69c2b068fc378daa952ba7f163c4a11628f55a4df523b3ef836040518082815260200191505060405180910390a3505050565b600083831115829062000e78576040517f08c379a00000000000000000000000000000000000000000000000000000000081526004018080602001828103825283818151815260200191508051906020019080838360005b8381101562000e3c57808201518184015260208101905062000e1f565b50505050905090810190601f16801562000e6a5780820380516001836020036101000a031916815260200191505b509250505060405180910390fd5b5060008385039050809150509392505050565b828054600181600116156101000203166002900490600052602060002090601f016020900481019282601f1062000ece57805160ff191683800117855562000eff565b8280016001018555821562000eff579182015b8281111562000efe57825182559160200191906001019062000ee1565b5b50905062000f0e919062000f12565b5090565b62000f3791905b8082111562000f3357600081600090555060010162000f19565b5090565b90565b61262c8062000f4a6000396000f3fe608060405234801561001057600080fd5b50600436106101cf5760003560e01c80637df9038111610104578063cc2edd40116100a2578063dd62ed3e11610071578063dd62ed3e14610a68578063f2fde38b14610ae0578063fddfb93e14610b24578063ff31fd0c14610b52576101cf565b8063cc2edd401461087c578063d55d73c514610934578063d8c8abe8146109a2578063dd0e2373146109fa576101cf565b806395d89b41116100de57806395d89b41146107235780639ab1b484146107a6578063a457c2d7146107b0578063a9059cbb14610816576101cf565b80637df903811461065f5780638da5cb5b146106b75780638f32d59b14610701576101cf565b8063372d6b27116101715780635fbbe65a1161014b5780635fbbe65a1461058d5780636dd7d8ea146105b957806370a08231146105fd578063715018a614610655576101cf565b8063372d6b271461045b57806339509351146104805780634717f97c146104e6576101cf565b806323b872dd116101ad57806323b872dd146102db5780632742ab29146103615780632d35a8a214610419578063313ce56714610437576101cf565b806306fdde03146101d4578063095ea7b31461025757806318160ddd146102bd575b600080fd5b6101dc610b80565b6040518080602001828103825283818151815260200191508051906020019080838360005b8381101561021c578082015181840152602081019050610201565b50505050905090810190601f1680156102495780820380516001836020036101000a031916815260200191505b509250505060405180910390f35b6102a36004803603604081101561026d57600080fd5b81019080803573ffffffffffffffffffffffffffffffffffffffff16906020019092919080359060200190929190505050610c22565b604051808215151515815260200191505060405180910390f35b6102c5610c39565b6040518082815260200191505060405180910390f35b610347600480360360608110156102f157600080fd5b81019080803573ffffffffffffffffffffffffffffffffffffffff169060200190929190803573ffffffffffffffffffffffffffffffffffffffff16906020019092919080359060200190929190505050610c43565b604051808215151515815260200191505060405180910390f35b6104176004803603602081101561037757600080fd5b810190808035906020019064010000000081111561039457600080fd5b8201836020820111156103a657600080fd5b803590602001918460208302840111640100000000831117156103c857600080fd5b919080806020026020016040519081016040528093929190818152602001838360200280828437600081840152601f19601f820116905080830192505050505050509192919290505050610d0e565b005b610421610dc0565b6040518082815260200191505060405180910390f35b61043f610dc6565b604051808260ff1660ff16815260200191505060405180910390f35b610463610ddd565b604051808381526020018281526020019250505060405180910390f35b6104cc6004803603604081101561049657600080fd5b81019080803573ffffffffffffffffffffffffffffffffffffffff16906020019092919080359060200190929190505050610eae565b604051808215151515815260200191505060405180910390f35b6104ee610f53565b604051808060200180602001838103835285818151815260200191508051906020019060200280838360005b8381101561053557808201518184015260208101905061051a565b50505050905001838103825284818151815260200191508051906020019060200280838360005b8381101561057757808201518184015260208101905061055c565b5050505090500194505050505060405180910390f35b61059561109c565b60405180848152602001838152602001828152602001935050505060405180910390f35b6105fb600480360360208110156105cf57600080fd5b81019080803573ffffffffffffffffffffffffffffffffffffffff1690602001909291905050506110b8565b005b61063f6004803603602081101561061357600080fd5b81019080803573ffffffffffffffffffffffffffffffffffffffff1690602001909291905050506114e6565b6040518082815260200191505060405180910390f35b61065d61152e565b005b6106a16004803603602081101561067557600080fd5b81019080803573ffffffffffffffffffffffffffffffffffffffff169060200190929190505050611600565b6040518082815260200191505060405180910390f35b6106bf611612565b604051808273ffffffffffffffffffffffffffffffffffffffff1673ffffffffffffffffffffffffffffffffffffffff16815260200191505060405180910390f35b61070961163c565b604051808215151515815260200191505060405180910390f35b61072b611694565b6040518080602001828103825283818151815260200191508051906020019080838360005b8381101561076b578082015181840152602081019050610750565b50505050905090810190601f1680156107985780820380516001836020036101000a031916815260200191505b509250505060405180910390f35b6107ae611736565b005b6107fc600480360360408110156107c657600080fd5b81019080803573ffffffffffffffffffffffffffffffffffffffff1690602001909291908035906020019092919050505061182a565b604051808215151515815260200191505060405180910390f35b6108626004803603604081101561082c57600080fd5b81019080803573ffffffffffffffffffffffffffffffffffffffff169060200190929190803590602001909291905050506118e9565b604051808215151515815260200191505060405180910390f35b6109326004803603602081101561089257600080fd5b81019080803590602001906401000000008111156108af57600080fd5b8201836020820111156108c157600080fd5b803590602001918460208302840111640100000000831117156108e357600080fd5b919080806020026020016040519081016040528093929190818152602001838360200280828437600081840152601f19601f820116905080830192505050505050509192919290505050611900565b005b6109606004803603602081101561094a57600080fd5b81019080803590602001909291905050506119b2565b604051808273ffffffffffffffffffffffffffffffffffffffff1673ffffffffffffffffffffffffffffffffffffffff16815260200191505060405180910390f35b6109e4600480360360208110156109b857600080fd5b81019080803573ffffffffffffffffffffffffffffffffffffffff1690602001909291905050506119ee565b6040518082815260200191505060405180910390f35b610a2660048036036020811015610a1057600080fd5b8101908080359060200190929190505050611a00565b604051808273ffffffffffffffffffffffffffffffffffffffff1673ffffffffffffffffffffffffffffffffffffffff16815260200191505060405180910390f35b610aca60048036036040811015610a7e57600080fd5b81019080803573ffffffffffffffffffffffffffffffffffffffff169060200190929190803573ffffffffffffffffffffffffffffffffffffffff169060200190929190505050611a3c565b6040518082815260200191505060405180910390f35b610b2260048036036020811015610af657600080fd5b81019080803573ffffffffffffffffffffffffffffffffffffffff169060200190929190505050611ac3565b005b610b5060048036036020811015610b3a57600080fd5b8101908080359060200190929190505050611ae0565b005b610b7e60048036036020811015610b6857600080fd5b8101908080359060200190929190505050611afb565b005b606060038054600181600116156101000203166002900480601f016020809104026020016040519081016040528092919081815260200182805460018160011615610100020316600290048015610c185780601f10610bed57610100808354040283529160200191610c18565b820191906000526020600020905b815481529060010190602001808311610bfb57829003601f168201915b5050505050905090565b6000610c2f338484611b16565b6001905092915050565b6000600254905090565b6000610c50848484611d0d565b610d038433610cfe8560405180606001604052806028815260200161256260289139600160008b73ffffffffffffffffffffffffffffffffffffffff1673ffffffffffffffffffffffffffffffffffffffff16815260200190815260200160002060003373ffffffffffffffffffffffffffffffffffffffff1673ffffffffffffffffffffffffffffffffffffffff16815260200190815260200160002054611fc39092919063ffffffff16565b611b16565b600190509392505050565b610d1661163c565b610d1f57600080fd5b60008090505b8151811015610dbc5760096000838381518110610d3e57fe5b602002602001015173ffffffffffffffffffffffffffffffffffffffff1673ffffffffffffffffffffffffffffffffffffffff16815260200190815260200160002060009054906101000a900460ff16610daf57610dae828281518110610da157fe5b6020026020010151612083565b5b8080600101915050610d25565b5050565b60085481565b6000600560009054906101000a900460ff16905090565b600080600080905060008090505b600680549050811015610e9557600b600060068381548110610e0957fe5b9060005260206000200160009054906101000a900473ffffffffffffffffffffffffffffffffffffffff1673ffffffffffffffffffffffffffffffffffffffff1673ffffffffffffffffffffffffffffffffffffffff16815260200190815260200160002060009054906101000a900460ff1615610e88576001820191505b8080600101915050610deb565b5060008160068054905003905081819350935050509091565b6000610f493384610f4485600160003373ffffffffffffffffffffffffffffffffffffffff1673ffffffffffffffffffffffffffffffffffffffff16815260200190815260200160002060008973ffffffffffffffffffffffffffffffffffffffff1673ffffffffffffffffffffffffffffffffffffffff1681526020019081526020016000205461215590919063ffffffff16565b611b16565b6001905092915050565b6060806060600780549050604051908082528060200260200182016040528015610f8c5781602001602082028038833980820191505090505b50905060008090505b60078054905081101561100757610fe260078281548110610fb257fe5b9060005260206000200160009054906101000a900473ffffffffffffffffffffffffffffffffffffffff166114e6565b828281518110610fee57fe5b6020026020010181815250508080600101915050610f95565b506007818180548060200260200160405190810160405280929190818152602001828054801561108c57602002820191906000526020600020905b8160009054906101000a900473ffffffffffffffffffffffffffffffffffffffff1673ffffffffffffffffffffffffffffffffffffffff1681526020019060010190808311611042575b5050505050915092509250509091565b60008060008042905080600d54600c5493509350935050909192565b6001600d5402421015611133576040517f08c379a00000000000000000000000000000000000000000000000000000000081526004018080602001828103825260198152602001807f5468697320706f6c6c206e6f742079657420737461727465640000000000000081525060200191505060405180910390fd5b6001600c5402421115611149576111486121dd565b5b6001600c540242106111c3576040517f08c379a00000000000000000000000000000000000000000000000000000000081526004018080602001828103825260168152602001807f5468697320706f6c6c2068617320657870697265642e0000000000000000000081525060200191505060405180910390fd5b600a60008273ffffffffffffffffffffffffffffffffffffffff1673ffffffffffffffffffffffffffffffffffffffff16815260200190815260200160002060009054906101000a900460ff16611282576040517f08c379a00000000000000000000000000000000000000000000000000000000081526004018080602001828103825260128152602001807f4973206e6f7420612043616e646964617465000000000000000000000000000081525060200191505060405180910390fd5b600960003373ffffffffffffffffffffffffffffffffffffffff1673ffffffffffffffffffffffffffffffffffffffff16815260200190815260200160002060009054906101000a900460ff16611341576040517f08c379a000000000000000000000000000000000000000000000000000000000815260040180806020018281038252601b8152602001807f557365722069736e277420617574686f72697a656420766f746572000000000081525060200191505060405180910390fd5b600b60003373ffffffffffffffffffffffffffffffffffffffff1673ffffffffffffffffffffffffffffffffffffffff16815260200190815260200160002060009054906101000a900460ff1615611401576040517f08c379a00000000000000000000000000000000000000000000000000000000081526004018080602001828103825260128152602001807f5573657220616c726561647920766f746564000000000000000000000000000081525060200191505060405180910390fd5b600061140c336114e6565b1161147f576040517f08c379a000000000000000000000000000000000000000000000000000000000815260040180806020018281038252601a8152602001807f566f74657220646f65736e27742068617665206120746f6b656e00000000000081525060200191505060405180910390fd5b61148a8160016118e9565b506001600b60003373ffffffffffffffffffffffffffffffffffffffff1673ffffffffffffffffffffffffffffffffffffffff16815260200190815260200160002060006101000a81548160ff02191690831515021790555050565b60008060008373ffffffffffffffffffffffffffffffffffffffff1673ffffffffffffffffffffffffffffffffffffffff168152602001908152602001600020549050919050565b61153661163c565b61153f57600080fd5b600073ffffffffffffffffffffffffffffffffffffffff16600560019054906101000a900473ffffffffffffffffffffffffffffffffffffffff1673ffffffffffffffffffffffffffffffffffffffff167f8be0079c531659141344cd1fd0a4f28419497f9722a3daafe3b4186f6b6457e060405160405180910390a36000600560016101000a81548173ffffffffffffffffffffffffffffffffffffffff021916908373ffffffffffffffffffffffffffffffffffffffff160217905550565b600061160b826114e6565b9050919050565b6000600560019054906101000a900473ffffffffffffffffffffffffffffffffffffffff16905090565b6000600560019054906101000a900473ffffffffffffffffffffffffffffffffffffffff1673ffffffffffffffffffffffffffffffffffffffff163373ffffffffffffffffffffffffffffffffffffffff1614905090565b606060048054600181600116156101000203166002900480601f01602080910402602001604051908101604052809291908181526020018280546001816001161561010002031660029004801561172c5780601f106117015761010080835404028352916020019161172c565b820191906000526020600020905b81548152906001019060200180831161170f57829003601f168201915b5050505050905090565b61173e61163c565b61174757600080fd5b60008090505b600680549050811015611827576000611764610c39565b116117d7576040517f08c379a000000000000000000000000000000000000000000000000000000000815260040180806020018281038252600e8152602001807f537570706c79206973206f76657200000000000000000000000000000000000081525060200191505060405180910390fd5b611819600682815481106117e757fe5b9060005260206000200160009054906101000a900473ffffffffffffffffffffffffffffffffffffffff1660016118e9565b50808060010191505061174d565b50565b60006118df33846118da856040518060600160405280602581526020016125d360259139600160003373ffffffffffffffffffffffffffffffffffffffff1673ffffffffffffffffffffffffffffffffffffffff16815260200190815260200160002060008a73ffffffffffffffffffffffffffffffffffffffff1673ffffffffffffffffffffffffffffffffffffffff16815260200190815260200160002054611fc39092919063ffffffff16565b611b16565b6001905092915050565b60006118f6338484611d0d565b6001905092915050565b61190861163c565b61191157600080fd5b60008090505b81518110156119ae57600a600083838151811061193057fe5b602002602001015173ffffffffffffffffffffffffffffffffffffffff1673ffffffffffffffffffffffffffffffffffffffff16815260200190815260200160002060009054906101000a900460ff166119a1576119a082828151811061199357fe5b6020026020010151612318565b5b8080600101915050611917565b5050565b600781815481106119bf57fe5b906000526020600020016000915054906101000a900473ffffffffffffffffffffffffffffffffffffffff1681565b60006119f9826114e6565b9050919050565b60068181548110611a0d57fe5b906000526020600020016000915054906101000a900473ffffffffffffffffffffffffffffffffffffffff1681565b6000600160008473ffffffffffffffffffffffffffffffffffffffff1673ffffffffffffffffffffffffffffffffffffffff16815260200190815260200160002060008373ffffffffffffffffffffffffffffffffffffffff1673ffffffffffffffffffffffffffffffffffffffff16815260200190815260200160002054905092915050565b611acb61163c565b611ad457600080fd5b611add816123fc565b50565b611ae861163c565b611af157600080fd5b80600c8190555050565b611b0361163c565b611b0c57600080fd5b80600d8190555050565b600073ffffffffffffffffffffffffffffffffffffffff168373ffffffffffffffffffffffffffffffffffffffff161415611b9c576040517f08c379a00000000000000000000000000000000000000000000000000000000081526004018080602001828103825260248152602001806125af6024913960400191505060405180910390fd5b600073ffffffffffffffffffffffffffffffffffffffff168273ffffffffffffffffffffffffffffffffffffffff161415611c22576040517f08c379a000000000000000000000000000000000000000000000000000000000815260040180806020018281038252602281526020018061251a6022913960400191505060405180910390fd5b80600160008573ffffffffffffffffffffffffffffffffffffffff1673ffffffffffffffffffffffffffffffffffffffff16815260200190815260200160002060008473ffffffffffffffffffffffffffffffffffffffff1673ffffffffffffffffffffffffffffffffffffffff168152602001908152602001600020819055508173ffffffffffffffffffffffffffffffffffffffff168373ffffffffffffffffffffffffffffffffffffffff167f8c5be1e5ebec7d5bd14f71427d1e84f3dd0314c0f7b2291e5b200ac8c7c3b925836040518082815260200191505060405180910390a3505050565b600073ffffffffffffffffffffffffffffffffffffffff168373ffffffffffffffffffffffffffffffffffffffff161415611d93576040517f08c379a000000000000000000000000000000000000000000000000000000000815260040180806020018281038252602581526020018061258a6025913960400191505060405180910390fd5b600073ffffffffffffffffffffffffffffffffffffffff168273ffffffffffffffffffffffffffffffffffffffff161415611e19576040517f08c379a00000000000000000000000000000000000000000000000000000000081526004018080602001828103825260238152602001806124f76023913960400191505060405180910390fd5b611e848160405180606001604052806026815260200161253c602691396000808773ffffffffffffffffffffffffffffffffffffffff1673ffffffffffffffffffffffffffffffffffffffff16815260200190815260200160002054611fc39092919063ffffffff16565b6000808573ffffffffffffffffffffffffffffffffffffffff1673ffffffffffffffffffffffffffffffffffffffff16815260200190815260200160002081905550611f17816000808573ffffffffffffffffffffffffffffffffffffffff1673ffffffffffffffffffffffffffffffffffffffff1681526020019081526020016000205461215590919063ffffffff16565b6000808473ffffffffffffffffffffffffffffffffffffffff1673ffffffffffffffffffffffffffffffffffffffff168152602001908152602001600020819055508173ffffffffffffffffffffffffffffffffffffffff168373ffffffffffffffffffffffffffffffffffffffff167fddf252ad1be2c89b69c2b068fc378daa952ba7f163c4a11628f55a4df523b3ef836040518082815260200191505060405180910390a3505050565b6000838311158290612070576040517f08c379a00000000000000000000000000000000000000000000000000000000081526004018080602001828103825283818151815260200191508051906020019080838360005b8381101561203557808201518184015260208101905061201a565b50505050905090810190601f1680156120625780820380516001836020036101000a031916815260200191505b509250505060405180910390fd5b5060008385039050809150509392505050565b61208b61163c565b61209457600080fd5b6001600960008373ffffffffffffffffffffffffffffffffffffffff1673ffffffffffffffffffffffffffffffffffffffff16815260200190815260200160002060006101000a81548160ff02191690831515021790555060068190806001815401808255809150509060018203906000526020600020016000909192909190916101000a81548173ffffffffffffffffffffffffffffffffffffffff021916908373ffffffffffffffffffffffffffffffffffffffff1602179055505050565b6000808284019050838110156121d3576040517f08c379a000000000000000000000000000000000000000000000000000000000815260040180806020018281038252601b8152602001807f536166654d6174683a206164646974696f6e206f766572666c6f77000000000081525060200191505060405180910390fd5b8091505092915050565b60008090505b60068054905081101561231557600b60006006838154811061220157fe5b9060005260206000200160009054906101000a900473ffffffffffffffffffffffffffffffffffffffff1673ffffffffffffffffffffffffffffffffffffffff1673ffffffffffffffffffffffffffffffffffffffff16815260200190815260200160002060009054906101000a900460ff16612308576001600b60006006848154811061228b57fe5b9060005260206000200160009054906101000a900473ffffffffffffffffffffffffffffffffffffffff1673ffffffffffffffffffffffffffffffffffffffff1673ffffffffffffffffffffffffffffffffffffffff16815260200190815260200160002060006101000a81548160ff0219169083151502179055505b80806001019150506121e3565b50565b61232061163c565b61232957600080fd5b6001600a60008373ffffffffffffffffffffffffffffffffffffffff1673ffffffffffffffffffffffffffffffffffffffff16815260200190815260200160002060006101000a81548160ff02191690831515021790555060086000815480929190600101919050555060078190806001815401808255809150509060018203906000526020600020016000909192909190916101000a81548173ffffffffffffffffffffffffffffffffffffffff021916908373ffffffffffffffffffffffffffffffffffffffff1602179055505050565b600073ffffffffffffffffffffffffffffffffffffffff168173ffffffffffffffffffffffffffffffffffffffff16141561243657600080fd5b8073ffffffffffffffffffffffffffffffffffffffff16600560019054906101000a900473ffffffffffffffffffffffffffffffffffffffff1673ffffffffffffffffffffffffffffffffffffffff167f8be0079c531659141344cd1fd0a4f28419497f9722a3daafe3b4186f6b6457e060405160405180910390a380600560016101000a81548173ffffffffffffffffffffffffffffffffffffffff021916908373ffffffffffffffffffffffffffffffffffffffff1602179055505056fe45524332303a207472616e7366657220746f20746865207a65726f206164647265737345524332303a20617070726f766520746f20746865207a65726f206164647265737345524332303a207472616e7366657220616d6f756e7420657863656564732062616c616e636545524332303a207472616e7366657220616d6f756e74206578636565647320616c6c6f77616e636545524332303a207472616e736665722066726f6d20746865207a65726f206164647265737345524332303a20617070726f76652066726f6d20746865207a65726f206164647265737345524332303a2064656372656173656420616c6c6f77616e63652062656c6f77207a65726fa265627a7a72315820794f17ed7458d7122cfc9d59856973a888d45c3921050d04284168be2c637a7a64736f6c634300050c003245524332303a207472616e7366657220746f20746865207a65726f206164647265737345524332303a207472616e7366657220616d6f756e7420657863656564732062616c616e636545524332303a207472616e736665722066726f6d20746865207a65726f2061646472657373",
  "source": "pragma solidity >=0.4.22 <0.6.0;\r\n\r\nimport  \"./erc20.sol\";\r\nimport  \"./erc20Detailed.sol\";\r\nimport  \"./Owned.sol\";\r\n\r\ncontract ElectionToken is erc20, erc20Detailed, Owned{\r\n\r\n    address[] public voterAddresses;\r\n    address[] public candidateAddresses;\r\n\r\n    uint public candidatesCount;\r\n\r\n\r\n    mapping (address => bool) voterAddressInitialized;\r\n    mapping (address => bool) candidateAddressInitialized;\r\n\r\n    mapping (address => bool) voted;\r\n\r\n    /*https://www.unixtimestamp.com/index.php*/\r\n    uint256 private expiration;    // contract expiration time *** 1577971200 =2/1/2020 13:20:00\r\n    uint256 private start;         // contract start time\r\n\r\n    constructor(uint256 _initialSupply, address[] memory _voterAddresses, address[] memory _candidateAddresses, uint256 _start, uint256 _end) erc20Detailed(\"VotingToken\", \"VTC\", 0)public{    //_initialTokenSupply = number of voters\r\n        _mint(msg.sender, _initialSupply);\r\n        addVotersList(_voterAddresses);\r\n        addCandidatesList(_candidateAddresses);\r\n        distributeTokens();\r\n        setElectionStartTime(_start);\r\n        setElectionExpirationTime(_end);\r\n    }\r\n    /*\r\n    constructor() erc20Detailed(\"VotingToken\", \"VTC\", 0)public onlyOwner{    //_initialTokenSupply = number of voters\r\n    }\r\n\r\n    function initializeContract(uint256 _initialSupply, address[] memory _voterAddresses, address[] memory _candidateAddresses, uint256 _start, uint256 _end) public onlyOwner{\r\n        _mint(msg.sender, _initialSupply);\r\n        addVotersList(_voterAddresses);\r\n        addCandidatesList(_candidateAddresses);\r\n        distributeTokens();\r\n        setElectionStartTime(_start);\r\n        setElectionExpirationTime(_end);\r\n    }*/\r\n    \r\n    function addVoterAddress(address _address) internal onlyOwner{\r\n        voterAddressInitialized[_address] = true;\r\n        voterAddresses.push(_address);\r\n    }\r\n\r\n    function addVotersList(address[] memory addresses) public onlyOwner{\r\n        //require(now < (start * 1 seconds), \"Poll started v\");\r\n        for(uint i = 0; i < addresses.length; i++){\r\n            if(!voterAddressInitialized[addresses[i]]){\r\n                addVoterAddress(addresses[i]);\r\n            }\r\n        }\r\n    }\r\n\r\n    function addCandidateAddress(address _address) internal onlyOwner{\r\n        candidateAddressInitialized[_address] = true;\r\n        candidatesCount ++;\r\n        candidateAddresses.push(_address);\r\n    }\r\n\r\n    function addCandidatesList(address[] memory addresses) public onlyOwner{\r\n        //require(now < (start * 1 seconds), \"Poll started c\");\r\n        for(uint i = 0; i < addresses.length; i++){\r\n            if(!candidateAddressInitialized[addresses[i]]){\r\n                addCandidateAddress(addresses[i]);\r\n            }\r\n        }\r\n    }\r\n\r\n    function distributeTokens() public onlyOwner{\r\n        for(uint i = 0; i < voterAddresses.length; i++){\r\n            require(totalSupply() > 0,\"Supply is over\");\r\n            transfer(voterAddresses[i],1);\r\n        }\r\n    }\r\n\r\n    function vote(address candidateAddress) public {\r\n        //require(!timeLimit,\"Election ended\");\r\n        require(now >= (start * 1 seconds), \"This poll not yet started\");\r\n        if(now > (expiration * 1 seconds)){\r\n            endElection();\r\n        }\r\n        require(now < (expiration * 1 seconds), \"This poll has expired.\");\r\n        require(candidateAddressInitialized[candidateAddress],\"Is not a Candidate\");\r\n        require(voterAddressInitialized[msg.sender],\"User isn't authorized voter\");\r\n        require(!voted[msg.sender],\"User already voted\");\r\n        require(balanceOf(msg.sender) > 0,\"Voter doesn't have a token\");\r\n        transfer(candidateAddress,1);\r\n        voted[msg.sender] = true;\r\n    }\r\n\r\n    function getResults() public view returns (address[] memory , uint256[] memory ){\r\n        uint256[] memory results = new uint256[](candidateAddresses.length);\r\n        for(uint i = 0; i < candidateAddresses.length; i++){\r\n            results[i] = balanceOf(candidateAddresses[i]);\r\n        }\r\n        return (candidateAddresses,results);\r\n    }\r\n\r\n    function getStatistics() public view returns (uint256 , uint256 ){      // return how many voted and didnt how many didn't\r\n        uint256 didVoteAmount = 0;\r\n        for(uint i = 0; i < voterAddresses.length; i++){\r\n            if(voted[voterAddresses[i]]){  // if voter voted\r\n                didVoteAmount += 1;\r\n            }\r\n        }\r\n        uint256 didntVoteAmount = voterAddresses.length - didVoteAmount;\r\n        return (didVoteAmount,didntVoteAmount);\r\n    }\r\n\r\n    function endElection() private {        // if voter didnt vote set him as if he did\r\n        for(uint i = 0; i < voterAddresses.length; i++){\r\n            if(!voted[voterAddresses[i]]){\r\n                voted[voterAddresses[i]] = true;\r\n            }\r\n        }\r\n    }\r\n\r\n    function setElectionStartTime(uint _start) public onlyOwner{\r\n        start = _start;\r\n    }\r\n\r\n    function setElectionExpirationTime(uint _expiration) public onlyOwner{\r\n        expiration = _expiration;\r\n    }\r\n\r\n    function displayTime() public view returns(uint256, uint256, uint256){\r\n        uint256 timeNow = now;\r\n        return (timeNow, start, expiration);\r\n    }\r\n\r\n    //******for test******\r\n    function balanceOFFFF(address _address)public view returns (uint256){\r\n        return balanceOf(_address);\r\n    }\r\n    function balanceOFFF(address _address)public view returns (uint256){\r\n        return balanceOf(_address);\r\n    }\r\n}",
  "sourcePath": "C:/Users/Misha/Downloads/Votechain/contracts/ElectionToken.sol",
  "compiler": {
    "name": "solc",
    "version": "0.5.12+commit.7709ece9.Emscripten.clang"
  },
  "schemaVersion": "3.0.19",
  "updatedAt": "2020-01-11T11:04:10.748Z",
  "devdoc": {
    "methods": {
      "allowance(address,address)": {
        "details": "See {IERC20-allowance}."
      },
      "approve(address,uint256)": {
        "details": "See {IERC20-approve}.      * Requirements:      * - `spender` cannot be the zero address."
      },
      "balanceOf(address)": {
        "details": "See {IERC20-balanceOf}."
      },
      "decimals()": {
        "details": "Returns the number of decimals used to get its user representation. For example, if `decimals` equals `2`, a balance of `505` tokens should be displayed to a user as `5,05` (`505 / 10 ** 2`).      * Tokens usually opt for a value of 18, imitating the relationship between Ether and Wei.      * NOTE: This information is only used for _display_ purposes: it in no way affects any of the arithmetic of the contract, including {IERC20-balanceOf} and {IERC20-transfer}."
      },
      "decreaseAllowance(address,uint256)": {
        "details": "Atomically decreases the allowance granted to `spender` by the caller.      * This is an alternative to {approve} that can be used as a mitigation for problems described in {IERC20-approve}.      * Emits an {Approval} event indicating the updated allowance.      * Requirements:      * - `spender` cannot be the zero address. - `spender` must have allowance for the caller of at least `subtractedValue`."
      },
      "increaseAllowance(address,uint256)": {
        "details": "Atomically increases the allowance granted to `spender` by the caller.      * This is an alternative to {approve} that can be used as a mitigation for problems described in {IERC20-approve}.      * Emits an {Approval} event indicating the updated allowance.      * Requirements:      * - `spender` cannot be the zero address."
      },
      "isOwner()": {
        "return": "true if `msg.sender` is the owner of the contract."
      },
      "name()": {
        "details": "Returns the name of the token."
      },
      "owner()": {
        "return": "the address of the owner."
      },
      "renounceOwnership()": {
        "details": "Allows the current owner to relinquish control of the contract."
      },
      "symbol()": {
        "details": "Returns the symbol of the token, usually a shorter version of the name."
      },
      "totalSupply()": {
        "details": "See {IERC20-totalSupply}."
      },
      "transfer(address,uint256)": {
        "details": "See {IERC20-transfer}.      * Requirements:      * - `recipient` cannot be the zero address. - the caller must have a balance of at least `amount`."
      },
      "transferFrom(address,address,uint256)": {
        "details": "See {IERC20-transferFrom}.      * Emits an {Approval} event indicating the updated allowance. This is not required by the EIP. See the note at the beginning of {ERC20};      * Requirements: - `sender` and `recipient` cannot be the zero address. - `sender` must have a balance of at least `amount`. - the caller must have allowance for `sender`'s tokens of at least `amount`."
      },
      "transferOwnership(address)": {
        "details": "Allows the current owner to transfer control of the contract to a newOwner.",
        "params": {
          "newOwner": "The address to transfer ownership to."
        }
      }
    }
  },
  "userdoc": {
    "methods": {
      "renounceOwnership()": {
        "notice": "Renouncing to ownership will leave the contract without an owner. It will not be possible to call the functions with the `onlyOwner` modifier anymore."
      }
    }
  }
}