{
  "contractName": "ElectionToken",
  "abi": [
    {
      "inputs": [
        {
          "internalType": "uint256",
          "name": "_initialSupply",
          "type": "uint256"
        },
        {
          "internalType": "address[]",
          "name": "_voterAddresses",
          "type": "address[]"
        },
        {
          "internalType": "uint256",
          "name": "_start",
          "type": "uint256"
        },
        {
          "internalType": "uint256",
          "name": "_end",
          "type": "uint256"
        }
      ],
      "payable": false,
      "stateMutability": "nonpayable",
      "type": "constructor"
    },
    {
      "anonymous": false,
      "inputs": [
        {
          "indexed": true,
          "internalType": "address",
          "name": "owner",
          "type": "address"
        },
        {
          "indexed": true,
          "internalType": "address",
          "name": "spender",
          "type": "address"
        },
        {
          "indexed": false,
          "internalType": "uint256",
          "name": "value",
          "type": "uint256"
        }
      ],
      "name": "Approval",
      "type": "event"
    },
    {
      "anonymous": false,
      "inputs": [
        {
          "indexed": true,
          "internalType": "address",
          "name": "previousOwner",
          "type": "address"
        },
        {
          "indexed": true,
          "internalType": "address",
          "name": "newOwner",
          "type": "address"
        }
      ],
      "name": "OwnershipTransferred",
      "type": "event"
    },
    {
      "anonymous": false,
      "inputs": [
        {
          "indexed": true,
          "internalType": "address",
          "name": "from",
          "type": "address"
        },
        {
          "indexed": true,
          "internalType": "address",
          "name": "to",
          "type": "address"
        },
        {
          "indexed": false,
          "internalType": "uint256",
          "name": "value",
          "type": "uint256"
        }
      ],
      "name": "Transfer",
      "type": "event"
    },
    {
      "anonymous": false,
      "inputs": [
        {
          "indexed": true,
          "internalType": "address",
          "name": "_candidateId",
          "type": "address"
        }
      ],
      "name": "votedEvent",
      "type": "event"
    },
    {
      "constant": true,
      "inputs": [
        {
          "internalType": "address",
          "name": "owner",
          "type": "address"
        },
        {
          "internalType": "address",
          "name": "spender",
          "type": "address"
        }
      ],
      "name": "allowance",
      "outputs": [
        {
          "internalType": "uint256",
          "name": "",
          "type": "uint256"
        }
      ],
      "payable": false,
      "stateMutability": "view",
      "type": "function"
    },
    {
      "constant": false,
      "inputs": [
        {
          "internalType": "address",
          "name": "spender",
          "type": "address"
        },
        {
          "internalType": "uint256",
          "name": "amount",
          "type": "uint256"
        }
      ],
      "name": "approve",
      "outputs": [
        {
          "internalType": "bool",
          "name": "",
          "type": "bool"
        }
      ],
      "payable": false,
      "stateMutability": "nonpayable",
      "type": "function"
    },
    {
      "constant": true,
      "inputs": [
        {
          "internalType": "address",
          "name": "account",
          "type": "address"
        }
      ],
      "name": "balanceOf",
      "outputs": [
        {
          "internalType": "uint256",
          "name": "",
          "type": "uint256"
        }
      ],
      "payable": false,
      "stateMutability": "view",
      "type": "function"
    },
    {
      "constant": true,
      "inputs": [
        {
          "internalType": "uint256",
          "name": "",
          "type": "uint256"
        }
      ],
      "name": "candidateAddresses",
      "outputs": [
        {
          "internalType": "address",
          "name": "",
          "type": "address"
        }
      ],
      "payable": false,
      "stateMutability": "view",
      "type": "function"
    },
    {
      "constant": true,
      "inputs": [
        {
          "internalType": "uint256",
          "name": "",
          "type": "uint256"
        }
      ],
      "name": "candidates",
      "outputs": [
        {
          "internalType": "uint256",
          "name": "id",
          "type": "uint256"
        },
        {
          "internalType": "string",
          "name": "name",
          "type": "string"
        },
        {
          "internalType": "string",
          "name": "description",
          "type": "string"
        },
        {
          "internalType": "address",
          "name": "candidateAdd",
          "type": "address"
        },
        {
          "internalType": "string",
          "name": "image",
          "type": "string"
        },
        {
          "internalType": "bool",
          "name": "candidateInitialized",
          "type": "bool"
        }
      ],
      "payable": false,
      "stateMutability": "view",
      "type": "function"
    },
    {
      "constant": true,
      "inputs": [],
      "name": "candidatesCount",
      "outputs": [
        {
          "internalType": "uint256",
          "name": "",
          "type": "uint256"
        }
      ],
      "payable": false,
      "stateMutability": "view",
      "type": "function"
    },
    {
      "constant": true,
      "inputs": [],
      "name": "decimals",
      "outputs": [
        {
          "internalType": "uint8",
          "name": "",
          "type": "uint8"
        }
      ],
      "payable": false,
      "stateMutability": "view",
      "type": "function"
    },
    {
      "constant": false,
      "inputs": [
        {
          "internalType": "address",
          "name": "spender",
          "type": "address"
        },
        {
          "internalType": "uint256",
          "name": "subtractedValue",
          "type": "uint256"
        }
      ],
      "name": "decreaseAllowance",
      "outputs": [
        {
          "internalType": "bool",
          "name": "",
          "type": "bool"
        }
      ],
      "payable": false,
      "stateMutability": "nonpayable",
      "type": "function"
    },
    {
      "constant": false,
      "inputs": [
        {
          "internalType": "address",
          "name": "spender",
          "type": "address"
        },
        {
          "internalType": "uint256",
          "name": "addedValue",
          "type": "uint256"
        }
      ],
      "name": "increaseAllowance",
      "outputs": [
        {
          "internalType": "bool",
          "name": "",
          "type": "bool"
        }
      ],
      "payable": false,
      "stateMutability": "nonpayable",
      "type": "function"
    },
    {
      "constant": true,
      "inputs": [],
      "name": "isOwner",
      "outputs": [
        {
          "internalType": "bool",
          "name": "",
          "type": "bool"
        }
      ],
      "payable": false,
      "stateMutability": "view",
      "type": "function"
    },
    {
      "constant": true,
      "inputs": [],
      "name": "name",
      "outputs": [
        {
          "internalType": "string",
          "name": "",
          "type": "string"
        }
      ],
      "payable": false,
      "stateMutability": "view",
      "type": "function"
    },
    {
      "constant": true,
      "inputs": [],
      "name": "owner",
      "outputs": [
        {
          "internalType": "address",
          "name": "",
          "type": "address"
        }
      ],
      "payable": false,
      "stateMutability": "view",
      "type": "function"
    },
    {
      "constant": false,
      "inputs": [],
      "name": "renounceOwnership",
      "outputs": [],
      "payable": false,
      "stateMutability": "nonpayable",
      "type": "function"
    },
    {
      "constant": true,
      "inputs": [],
      "name": "symbol",
      "outputs": [
        {
          "internalType": "string",
          "name": "",
          "type": "string"
        }
      ],
      "payable": false,
      "stateMutability": "view",
      "type": "function"
    },
    {
      "constant": true,
      "inputs": [],
      "name": "totalSupply",
      "outputs": [
        {
          "internalType": "uint256",
          "name": "",
          "type": "uint256"
        }
      ],
      "payable": false,
      "stateMutability": "view",
      "type": "function"
    },
    {
      "constant": false,
      "inputs": [
        {
          "internalType": "address",
          "name": "recipient",
          "type": "address"
        },
        {
          "internalType": "uint256",
          "name": "amount",
          "type": "uint256"
        }
      ],
      "name": "transfer",
      "outputs": [
        {
          "internalType": "bool",
          "name": "",
          "type": "bool"
        }
      ],
      "payable": false,
      "stateMutability": "nonpayable",
      "type": "function"
    },
    {
      "constant": false,
      "inputs": [
        {
          "internalType": "address",
          "name": "sender",
          "type": "address"
        },
        {
          "internalType": "address",
          "name": "recipient",
          "type": "address"
        },
        {
          "internalType": "uint256",
          "name": "amount",
          "type": "uint256"
        }
      ],
      "name": "transferFrom",
      "outputs": [
        {
          "internalType": "bool",
          "name": "",
          "type": "bool"
        }
      ],
      "payable": false,
      "stateMutability": "nonpayable",
      "type": "function"
    },
    {
      "constant": false,
      "inputs": [
        {
          "internalType": "address",
          "name": "newOwner",
          "type": "address"
        }
      ],
      "name": "transferOwnership",
      "outputs": [],
      "payable": false,
      "stateMutability": "nonpayable",
      "type": "function"
    },
    {
      "constant": true,
      "inputs": [
        {
          "internalType": "uint256",
          "name": "",
          "type": "uint256"
        }
      ],
      "name": "voterAddresses",
      "outputs": [
        {
          "internalType": "address",
          "name": "",
          "type": "address"
        }
      ],
      "payable": false,
      "stateMutability": "view",
      "type": "function"
    },
    {
      "constant": false,
      "inputs": [
        {
          "internalType": "address[]",
          "name": "addresses",
          "type": "address[]"
        }
      ],
      "name": "addVotersList",
      "outputs": [],
      "payable": false,
      "stateMutability": "nonpayable",
      "type": "function"
    },
    {
      "constant": false,
      "inputs": [
        {
          "internalType": "address",
          "name": "_address",
          "type": "address"
        },
        {
          "internalType": "string",
          "name": "_name",
          "type": "string"
        },
        {
          "internalType": "string",
          "name": "_description",
          "type": "string"
        },
        {
          "internalType": "string",
          "name": "_image",
          "type": "string"
        }
      ],
      "name": "addCandidate",
      "outputs": [],
      "payable": false,
      "stateMutability": "nonpayable",
      "type": "function"
    },
    {
      "constant": false,
      "inputs": [
        {
          "internalType": "address",
          "name": "_address",
          "type": "address"
        },
        {
          "internalType": "string",
          "name": "_name",
          "type": "string"
        },
        {
          "internalType": "string",
          "name": "_description",
          "type": "string"
        },
        {
          "internalType": "string",
          "name": "_image",
          "type": "string"
        }
      ],
      "name": "editCandidateByAddress",
      "outputs": [],
      "payable": false,
      "stateMutability": "nonpayable",
      "type": "function"
    },
    {
      "constant": false,
      "inputs": [
        {
          "internalType": "address",
          "name": "_address",
          "type": "address"
        }
      ],
      "name": "deleteCandidateByAddress",
      "outputs": [
        {
          "internalType": "bool",
          "name": "",
          "type": "bool"
        }
      ],
      "payable": false,
      "stateMutability": "nonpayable",
      "type": "function"
    },
    {
      "constant": false,
      "inputs": [],
      "name": "distributeTokens",
      "outputs": [],
      "payable": false,
      "stateMutability": "nonpayable",
      "type": "function"
    },
    {
      "constant": false,
      "inputs": [
        {
          "internalType": "address",
          "name": "candidateAddress",
          "type": "address"
        }
      ],
      "name": "vote",
      "outputs": [],
      "payable": false,
      "stateMutability": "nonpayable",
      "type": "function"
    },
    {
      "constant": true,
      "inputs": [],
      "name": "getResults",
      "outputs": [
        {
          "internalType": "uint256[]",
          "name": "",
          "type": "uint256[]"
        }
      ],
      "payable": false,
      "stateMutability": "view",
      "type": "function"
    },
    {
      "constant": true,
      "inputs": [],
      "name": "getCandidateData",
      "outputs": [
        {
          "internalType": "string[]",
          "name": "",
          "type": "string[]"
        },
        {
          "internalType": "string[]",
          "name": "",
          "type": "string[]"
        }
      ],
      "payable": false,
      "stateMutability": "view",
      "type": "function"
    },
    {
      "constant": false,
      "inputs": [
        {
          "internalType": "uint256",
          "name": "_start",
          "type": "uint256"
        }
      ],
      "name": "setElectionStartTime",
      "outputs": [],
      "payable": false,
      "stateMutability": "nonpayable",
      "type": "function"
    },
    {
      "constant": false,
      "inputs": [
        {
          "internalType": "uint256",
          "name": "_expiration",
          "type": "uint256"
        }
      ],
      "name": "setElectionExpirationTime",
      "outputs": [],
      "payable": false,
      "stateMutability": "nonpayable",
      "type": "function"
    },
    {
      "constant": false,
      "inputs": [
        {
          "internalType": "uint256",
          "name": "_start",
          "type": "uint256"
        }
      ],
      "name": "changeElectionStartTime",
      "outputs": [],
      "payable": false,
      "stateMutability": "nonpayable",
      "type": "function"
    },
    {
      "constant": false,
      "inputs": [
        {
          "internalType": "uint256",
          "name": "_expiration",
          "type": "uint256"
        }
      ],
      "name": "changeElectionExpirationTime",
      "outputs": [],
      "payable": false,
      "stateMutability": "nonpayable",
      "type": "function"
    },
    {
      "constant": true,
      "inputs": [],
      "name": "displayTime",
      "outputs": [
        {
          "internalType": "uint256",
          "name": "",
          "type": "uint256"
        },
        {
          "internalType": "uint256",
          "name": "",
          "type": "uint256"
        },
        {
          "internalType": "uint256",
          "name": "",
          "type": "uint256"
        }
      ],
      "payable": false,
      "stateMutability": "view",
      "type": "function"
    },
    {
      "constant": true,
      "inputs": [],
      "name": "balanceOFFFF",
      "outputs": [
        {
          "internalType": "uint256[]",
          "name": "",
          "type": "uint256[]"
        }
      ],
      "payable": false,
      "stateMutability": "view",
      "type": "function"
    }
  ],
  "bytecode": "0x60806040523480156200001157600080fd5b506040516200475b3803806200475b833981810160405262000037919081019062000bba565b6040518060400160405280600b81526020017f566f74696e67546f6b656e0000000000000000000000000000000000000000008152506040518060400160405280600381526020017f565443000000000000000000000000000000000000000000000000000000000081525060008260039080519060200190620000bd92919062000a50565b508160049080519060200190620000d692919062000a50565b5080600560006101000a81548160ff021916908360ff16021790555050505033600560016101000a81548173ffffffffffffffffffffffffffffffffffffffff021916908373ffffffffffffffffffffffffffffffffffffffff160217905550600560019054906101000a900473ffffffffffffffffffffffffffffffffffffffff1673ffffffffffffffffffffffffffffffffffffffff16600073ffffffffffffffffffffffffffffffffffffffff167f8be0079c531659141344cd1fd0a4f28419497f9722a3daafe3b4186f6b6457e060405160405180910390a3620001c533856200021260201b60201c565b620001d683620003ad60201b60201c565b620001e66200047560201b60201c565b620001f7826200055560201b60201c565b62000208816200057960201b60201c565b505050506200103e565b600073ffffffffffffffffffffffffffffffffffffffff168273ffffffffffffffffffffffffffffffffffffffff16141562000285576040517f08c379a00000000000000000000000000000000000000000000000000000000081526004016200027c9062000ed3565b60405180910390fd5b620002a1816002546200059d60201b620025891790919060201c565b600281905550620002ff816000808573ffffffffffffffffffffffffffffffffffffffff1673ffffffffffffffffffffffffffffffffffffffff168152602001908152602001600020546200059d60201b620025891790919060201c565b6000808473ffffffffffffffffffffffffffffffffffffffff1673ffffffffffffffffffffffffffffffffffffffff168152602001908152602001600020819055508173ffffffffffffffffffffffffffffffffffffffff16600073ffffffffffffffffffffffffffffffffffffffff167fddf252ad1be2c89b69c2b068fc378daa952ba7f163c4a11628f55a4df523b3ef83604051620003a1919062000ef5565b60405180910390a35050565b620003bd620005f560201b60201c565b620003c757600080fd5b60008090505b81518110156200047157600a6000838381518110620003e857fe5b602002602001015173ffffffffffffffffffffffffffffffffffffffff1673ffffffffffffffffffffffffffffffffffffffff16815260200190815260200160002060009054906101000a900460ff166200046357620004628282815181106200044e57fe5b60200260200101516200064d60201b60201c565b5b8080600101915050620003cd565b5050565b62000485620005f560201b60201c565b6200048f57600080fd5b60008090505b60088054905081101562000552576000620004b56200072860201b60201c565b11620004f8576040517f08c379a0000000000000000000000000000000000000000000000000000000008152600401620004ef9062000e6d565b60405180910390fd5b62000543600882815481106200050a57fe5b9060005260206000200160009054906101000a900473ffffffffffffffffffffffffffffffffffffffff1660016200073260201b60201c565b50808060010191505062000495565b50565b62000565620005f560201b60201c565b6200056f57600080fd5b80600e8190555050565b62000589620005f560201b60201c565b6200059357600080fd5b80600d8190555050565b600080828401905083811015620005eb576040517f08c379a0000000000000000000000000000000000000000000000000000000008152600401620005e29062000e8f565b60405180910390fd5b8091505092915050565b6000600560019054906101000a900473ffffffffffffffffffffffffffffffffffffffff1673ffffffffffffffffffffffffffffffffffffffff163373ffffffffffffffffffffffffffffffffffffffff1614905090565b6200065d620005f560201b60201c565b6200066757600080fd5b6001600a60008373ffffffffffffffffffffffffffffffffffffffff1673ffffffffffffffffffffffffffffffffffffffff16815260200190815260200160002060006101000a81548160ff02191690831515021790555060088190806001815401808255809150509060018203906000526020600020016000909192909190916101000a81548173ffffffffffffffffffffffffffffffffffffffff021916908373ffffffffffffffffffffffffffffffffffffffff1602179055505050565b6000600254905090565b6000620007473384846200075160201b60201c565b6001905092915050565b600073ffffffffffffffffffffffffffffffffffffffff168373ffffffffffffffffffffffffffffffffffffffff161415620007c4576040517f08c379a0000000000000000000000000000000000000000000000000000000008152600401620007bb9062000eb1565b60405180910390fd5b600073ffffffffffffffffffffffffffffffffffffffff168273ffffffffffffffffffffffffffffffffffffffff16141562000837576040517f08c379a00000000000000000000000000000000000000000000000000000000081526004016200082e9062000e4b565b60405180910390fd5b620008aa8160405180606001604052806026815260200162004735602691396000808773ffffffffffffffffffffffffffffffffffffffff1673ffffffffffffffffffffffffffffffffffffffff16815260200190815260200160002054620009f260201b6200245c179092919060201c565b6000808573ffffffffffffffffffffffffffffffffffffffff1673ffffffffffffffffffffffffffffffffffffffff1681526020019081526020016000208190555062000944816000808573ffffffffffffffffffffffffffffffffffffffff1673ffffffffffffffffffffffffffffffffffffffff168152602001908152602001600020546200059d60201b620025891790919060201c565b6000808473ffffffffffffffffffffffffffffffffffffffff1673ffffffffffffffffffffffffffffffffffffffff168152602001908152602001600020819055508173ffffffffffffffffffffffffffffffffffffffff168373ffffffffffffffffffffffffffffffffffffffff167fddf252ad1be2c89b69c2b068fc378daa952ba7f163c4a11628f55a4df523b3ef83604051620009e5919062000ef5565b60405180910390a3505050565b600083831115829062000a3d576040517f08c379a000000000000000000000000000000000000000000000000000000000815260040162000a34919062000e27565b60405180910390fd5b5060008385039050809150509392505050565b828054600181600116156101000203166002900490600052602060002090601f016020900481019282601f1062000a9357805160ff191683800117855562000ac4565b8280016001018555821562000ac4579182015b8281111562000ac357825182559160200191906001019062000aa6565b5b50905062000ad3919062000ad7565b5090565b62000afc91905b8082111562000af857600081600090555060010162000ade565b5090565b90565b60008151905062000b10816200100a565b92915050565b600082601f83011262000b2857600080fd5b815162000b3f62000b398262000f40565b62000f12565b9150818183526020840193506020810190508385602084028201111562000b6557600080fd5b60005b8381101562000b99578162000b7e888262000aff565b84526020840193506020830192505060018101905062000b68565b5050505092915050565b60008151905062000bb48162001024565b92915050565b6000806000806080858703121562000bd157600080fd5b600062000be18782880162000ba3565b945050602085015167ffffffffffffffff81111562000bff57600080fd5b62000c0d8782880162000b16565b935050604062000c208782880162000ba3565b925050606062000c338782880162000ba3565b91505092959194509250565b600062000c4c8262000f69565b62000c58818562000f74565b935062000c6a81856020860162000fc3565b62000c758162000ff9565b840191505092915050565b600062000c8f60238362000f74565b91507f45524332303a207472616e7366657220746f20746865207a65726f206164647260008301527f65737300000000000000000000000000000000000000000000000000000000006020830152604082019050919050565b600062000cf7600e8362000f74565b91507f537570706c79206973206f7665720000000000000000000000000000000000006000830152602082019050919050565b600062000d39601b8362000f74565b91507f536166654d6174683a206164646974696f6e206f766572666c6f7700000000006000830152602082019050919050565b600062000d7b60258362000f74565b91507f45524332303a207472616e736665722066726f6d20746865207a65726f20616460008301527f64726573730000000000000000000000000000000000000000000000000000006020830152604082019050919050565b600062000de3601f8362000f74565b91507f45524332303a206d696e7420746f20746865207a65726f2061646472657373006000830152602082019050919050565b62000e218162000fb9565b82525050565b6000602082019050818103600083015262000e43818462000c3f565b905092915050565b6000602082019050818103600083015262000e668162000c80565b9050919050565b6000602082019050818103600083015262000e888162000ce8565b9050919050565b6000602082019050818103600083015262000eaa8162000d2a565b9050919050565b6000602082019050818103600083015262000ecc8162000d6c565b9050919050565b6000602082019050818103600083015262000eee8162000dd4565b9050919050565b600060208201905062000f0c600083018462000e16565b92915050565b6000604051905081810181811067ffffffffffffffff8211171562000f3657600080fd5b8060405250919050565b600067ffffffffffffffff82111562000f5857600080fd5b602082029050602081019050919050565b600081519050919050565b600082825260208201905092915050565b600062000f928262000f99565b9050919050565b600073ffffffffffffffffffffffffffffffffffffffff82169050919050565b6000819050919050565b60005b8381101562000fe357808201518184015260208101905062000fc6565b8381111562000ff3576000848401525b50505050565b6000601f19601f8301169050919050565b620010158162000f85565b81146200102157600080fd5b50565b6200102f8162000fb9565b81146200103b57600080fd5b50565b6136e7806200104e6000396000f3fe608060405234801561001057600080fd5b50600436106101fb5760003560e01c8063715018a61161011a578063b27a76a3116100ad578063dd62ed3e1161007c578063dd62ed3e146105d0578063f1df6a8414610600578063f2fde38b1461061e578063fddfb93e1461063a578063ff31fd0c14610656576101fb565b8063b27a76a314610524578063d55d73c514610540578063d8d9798814610570578063dd0e2373146105a0576101fb565b80639ab1b484116100e95780639ab1b4841461049e578063a457c2d7146104a8578063a7990a7a146104d8578063a9059cbb146104f4576101fb565b8063715018a61461043a5780638da5cb5b146104445780638f32d59b1461046257806395d89b4114610480576101fb565b8063313ce5671161019257806350a4ca1b1161016157806350a4ca1b146103af5780635fbbe65a146103ce5780636dd7d8ea146103ee57806370a082311461040a576101fb565b8063313ce5671461030e5780633477ee2e1461032c57806339509351146103615780634717f97c14610391576101fb565b806323b872dd116101ce57806323b872dd146102885780632742ab29146102b85780632d35a8a2146102d45780632fdc2cc6146102f2576101fb565b806306fdde0314610200578063095ea7b31461021e5780630df7afab1461024e57806318160ddd1461026a575b600080fd5b610208610672565b604051610215919061316b565b60405180910390f35b610238600480360361023391908101906129dd565b610714565b6040516102459190613150565b60405180910390f35b61026860048036036102639190810190612932565b61072b565b005b610272610a0f565b60405161027f919061334d565b60405180910390f35b6102a2600480360361029d91908101906128e3565b610a19565b6040516102af9190613150565b60405180910390f35b6102d260048036036102cd9190810190612a19565b610ae4565b005b6102dc610b96565b6040516102e9919061334d565b60405180910390f35b61030c60048036036103079190810190612a5a565b610b9c565b005b610316610bff565b6040516103239190613415565b60405180910390f35b61034660048036036103419190810190612a5a565b610c16565b60405161035896959493929190613368565b60405180910390f35b61037b600480360361037691908101906129dd565b610e47565b6040516103889190613150565b60405180910390f35b610399610eec565b6040516103a6919061312e565b60405180910390f35b6103b7610fd7565b6040516103c59291906130f7565b60405180910390f35b6103d661123a565b6040516103e5939291906133de565b60405180910390f35b6104086004803603610403919081019061287e565b611256565b005b610424600480360361041f919081019061287e565b611537565b604051610431919061334d565b60405180910390f35b61044261157f565b005b61044c611651565b60405161045991906130dc565b60405180910390f35b61046a61167b565b6040516104779190613150565b60405180910390f35b6104886116d3565b604051610495919061316b565b60405180910390f35b6104a6611775565b005b6104c260048036036104bd91908101906129dd565b611836565b6040516104cf9190613150565b60405180910390f35b6104f260048036036104ed9190810190612932565b6118f5565b005b61050e600480360361050991908101906129dd565b611b8f565b60405161051b9190613150565b60405180910390f35b61053e60048036036105399190810190612a5a565b611ba6565b005b61055a60048036036105559190810190612a5a565b611c09565b60405161056791906130dc565b60405180910390f35b61058a6004803603610585919081019061287e565b611c45565b6040516105979190613150565b60405180910390f35b6105ba60048036036105b59190810190612a5a565b611e37565b6040516105c791906130dc565b60405180910390f35b6105ea60048036036105e591908101906128a7565b611e73565b6040516105f7919061334d565b60405180910390f35b610608611efa565b604051610615919061312e565b60405180910390f35b6106386004803603610633919081019061287e565b611fb4565b005b610654600480360361064f9190810190612a5a565b611fd1565b005b610670600480360361066b9190810190612a5a565b611fec565b005b606060038054600181600116156101000203166002900480601f01602080910402602001604051908101604052809291908181526020018280546001816001161561010002031660029004801561070a5780601f106106df5761010080835404028352916020019161070a565b820191906000526020600020905b8154815290600101906020018083116106ed57829003601f168201915b5050505050905090565b6000610721338484612007565b6001905092915050565b61073361167b565b61073c57600080fd5b6001600e5402421115610784576040517f08c379a000000000000000000000000000000000000000000000000000000000815260040161077b906131ed565b60405180910390fd5b600b60008573ffffffffffffffffffffffffffffffffffffffff1673ffffffffffffffffffffffffffffffffffffffff16815260200190815260200160002060009054906101000a900460ff1615610811576040517f08c379a0000000000000000000000000000000000000000000000000000000008152600401610808906132ad565b60405180910390fd5b6001600b60008673ffffffffffffffffffffffffffffffffffffffff1673ffffffffffffffffffffffffffffffffffffffff16815260200190815260200160002060006101000a81548160ff0219169083151502179055506040518060c0016040528060075481526020018481526020018381526020018573ffffffffffffffffffffffffffffffffffffffff168152602001828152602001600115158152506006600060075481526020019081526020016000206000820151816000015560208201518160010190805190602001906108ec9291906126d8565b5060408201518160020190805190602001906109099291906126d8565b5060608201518160030160006101000a81548173ffffffffffffffffffffffffffffffffffffffff021916908373ffffffffffffffffffffffffffffffffffffffff160217905550608082015181600401908051906020019061096d9291906126d8565b5060a08201518160050160006101000a81548160ff02191690831515021790555090505060076000815480929190600101919050555060098490806001815401808255809150509060018203906000526020600020016000909192909190916101000a81548173ffffffffffffffffffffffffffffffffffffffff021916908373ffffffffffffffffffffffffffffffffffffffff1602179055505050505050565b6000600254905090565b6000610a268484846121d2565b610ad98433610ad48560405180606001604052806028815260200161365860289139600160008b73ffffffffffffffffffffffffffffffffffffffff1673ffffffffffffffffffffffffffffffffffffffff16815260200190815260200160002060003373ffffffffffffffffffffffffffffffffffffffff1673ffffffffffffffffffffffffffffffffffffffff1681526020019081526020016000205461245c9092919063ffffffff16565b612007565b600190509392505050565b610aec61167b565b610af557600080fd5b60008090505b8151811015610b9257600a6000838381518110610b1457fe5b602002602001015173ffffffffffffffffffffffffffffffffffffffff1673ffffffffffffffffffffffffffffffffffffffff16815260200190815260200160002060009054906101000a900460ff16610b8557610b84828281518110610b7757fe5b60200260200101516124b7565b5b8080600101915050610afb565b5050565b60075481565b610ba461167b565b610bad57600080fd5b6001600e5402421115610bf5576040517f08c379a0000000000000000000000000000000000000000000000000000000008152600401610bec906131ed565b60405180910390fd5b80600e8190555050565b6000600560009054906101000a900460ff16905090565b6006602052806000526040600020600091509050806000015490806001018054600181600116156101000203166002900480601f016020809104026020016040519081016040528092919081815260200182805460018160011615610100020316600290048015610cc85780601f10610c9d57610100808354040283529160200191610cc8565b820191906000526020600020905b815481529060010190602001808311610cab57829003601f168201915b505050505090806002018054600181600116156101000203166002900480601f016020809104026020016040519081016040528092919081815260200182805460018160011615610100020316600290048015610d665780601f10610d3b57610100808354040283529160200191610d66565b820191906000526020600020905b815481529060010190602001808311610d4957829003601f168201915b5050505050908060030160009054906101000a900473ffffffffffffffffffffffffffffffffffffffff1690806004018054600181600116156101000203166002900480601f016020809104026020016040519081016040528092919081815260200182805460018160011615610100020316600290048015610e2a5780601f10610dff57610100808354040283529160200191610e2a565b820191906000526020600020905b815481529060010190602001808311610e0d57829003601f168201915b5050505050908060050160009054906101000a900460ff16905086565b6000610ee23384610edd85600160003373ffffffffffffffffffffffffffffffffffffffff1673ffffffffffffffffffffffffffffffffffffffff16815260200190815260200160002060008973ffffffffffffffffffffffffffffffffffffffff1673ffffffffffffffffffffffffffffffffffffffff1681526020019081526020016000205461258990919063ffffffff16565b612007565b6001905092915050565b606080600980549050604051908082528060200260200182016040528015610f235781602001602082028038833980820191505090505b50905060008090505b600980549050811015610fcf57600115156006600083815260200190815260200160002060050160009054906101000a900460ff1615151415610fc257610fa960098281548110610f7957fe5b9060005260206000200160009054906101000a900473ffffffffffffffffffffffffffffffffffffffff16611537565b828281518110610fb557fe5b6020026020010181815250505b8080600101915050610f2c565b508091505090565b606080606060075460405190808252806020026020018201604052801561101257816020015b6060815260200190600190039081610ffd5790505b509050606060075460405190808252806020026020018201604052801561104d57816020015b60608152602001906001900390816110385790505b50905060008090505b60098054905081101561122d57600115156006600083815260200190815260200160002060050160009054906101000a900460ff161515141561115a57600660008281526020019081526020016000206001018054600181600116156101000203166002900480601f01602080910402602001604051908101604052809291908181526020018280546001816001161561010002031660029004801561113d5780601f106111125761010080835404028352916020019161113d565b820191906000526020600020905b81548152906001019060200180831161112057829003601f168201915b505050505083828151811061114e57fe5b60200260200101819052505b600660008281526020019081526020016000206002018054600181600116156101000203166002900480601f0160208091040260200160405190810160405280929190818152602001828054600181600116156101000203166002900480156112045780601f106111d957610100808354040283529160200191611204565b820191906000526020600020905b8154815290600101906020018083116111e757829003601f168201915b505050505082828151811061121557fe5b60200260200101819052508080600101915050611056565b5081819350935050509091565b60008060008042905080600e54600d5493509350935050909192565b6001600d5402421061129d576040517f08c379a00000000000000000000000000000000000000000000000000000000081526004016112949061328d565b60405180910390fd5b600b60008273ffffffffffffffffffffffffffffffffffffffff1673ffffffffffffffffffffffffffffffffffffffff16815260200190815260200160002060009054906101000a900460ff16611329576040517f08c379a00000000000000000000000000000000000000000000000000000000081526004016113209061326d565b60405180910390fd5b600a60003373ffffffffffffffffffffffffffffffffffffffff1673ffffffffffffffffffffffffffffffffffffffff16815260200190815260200160002060009054906101000a900460ff166113b5576040517f08c379a00000000000000000000000000000000000000000000000000000000081526004016113ac9061332d565b60405180910390fd5b600c60003373ffffffffffffffffffffffffffffffffffffffff1673ffffffffffffffffffffffffffffffffffffffff16815260200190815260200160002060009054906101000a900460ff1615611442576040517f08c379a00000000000000000000000000000000000000000000000000000000081526004016114399061322d565b60405180910390fd5b600061144d33611537565b1161148d576040517f08c379a0000000000000000000000000000000000000000000000000000000008152600401611484906132cd565b60405180910390fd5b611498816001611b8f565b506001600c60003373ffffffffffffffffffffffffffffffffffffffff1673ffffffffffffffffffffffffffffffffffffffff16815260200190815260200160002060006101000a81548160ff0219169083151502179055508073ffffffffffffffffffffffffffffffffffffffff167f06640b67015c37470a2bc2e00a76d594f6794fae0d12b9e206bc1bf369fe067660405160405180910390a250565b60008060008373ffffffffffffffffffffffffffffffffffffffff1673ffffffffffffffffffffffffffffffffffffffff168152602001908152602001600020549050919050565b61158761167b565b61159057600080fd5b600073ffffffffffffffffffffffffffffffffffffffff16600560019054906101000a900473ffffffffffffffffffffffffffffffffffffffff1673ffffffffffffffffffffffffffffffffffffffff167f8be0079c531659141344cd1fd0a4f28419497f9722a3daafe3b4186f6b6457e060405160405180910390a36000600560016101000a81548173ffffffffffffffffffffffffffffffffffffffff021916908373ffffffffffffffffffffffffffffffffffffffff160217905550565b6000600560019054906101000a900473ffffffffffffffffffffffffffffffffffffffff16905090565b6000600560019054906101000a900473ffffffffffffffffffffffffffffffffffffffff1673ffffffffffffffffffffffffffffffffffffffff163373ffffffffffffffffffffffffffffffffffffffff1614905090565b606060048054600181600116156101000203166002900480601f01602080910402602001604051908101604052809291908181526020018280546001816001161561010002031660029004801561176b5780601f106117405761010080835404028352916020019161176b565b820191906000526020600020905b81548152906001019060200180831161174e57829003601f168201915b5050505050905090565b61177d61167b565b61178657600080fd5b60008090505b6008805490508110156118335760006117a3610a0f565b116117e3576040517f08c379a00000000000000000000000000000000000000000000000000000000081526004016117da906131cd565b60405180910390fd5b611825600882815481106117f357fe5b9060005260206000200160009054906101000a900473ffffffffffffffffffffffffffffffffffffffff166001611b8f565b50808060010191505061178c565b50565b60006118eb33846118e68560405180606001604052806025815260200161368060259139600160003373ffffffffffffffffffffffffffffffffffffffff1673ffffffffffffffffffffffffffffffffffffffff16815260200190815260200160002060008a73ffffffffffffffffffffffffffffffffffffffff1673ffffffffffffffffffffffffffffffffffffffff1681526020019081526020016000205461245c9092919063ffffffff16565b612007565b6001905092915050565b6118fd61167b565b61190657600080fd5b6001600e540242111561194e576040517f08c379a0000000000000000000000000000000000000000000000000000000008152600401611945906131ed565b60405180910390fd5b600b60008573ffffffffffffffffffffffffffffffffffffffff1673ffffffffffffffffffffffffffffffffffffffff16815260200190815260200160002060009054906101000a900460ff166119da576040517f08c379a00000000000000000000000000000000000000000000000000000000081526004016119d19061318d565b60405180910390fd5b60008090505b600754811015611b88578473ffffffffffffffffffffffffffffffffffffffff166006600083815260200190815260200160002060030160009054906101000a900473ffffffffffffffffffffffffffffffffffffffff1673ffffffffffffffffffffffffffffffffffffffff161415611b7b576040518060c0016040528060075481526020018581526020018481526020018673ffffffffffffffffffffffffffffffffffffffff1681526020018381526020016001151581525060066000838152602001908152602001600020600082015181600001556020820151816001019080519060200190611ad59291906126d8565b506040820151816002019080519060200190611af29291906126d8565b5060608201518160030160006101000a81548173ffffffffffffffffffffffffffffffffffffffff021916908373ffffffffffffffffffffffffffffffffffffffff1602179055506080820151816004019080519060200190611b569291906126d8565b5060a08201518160050160006101000a81548160ff0219169083151502179055509050505b80806001019150506119e0565b5050505050565b6000611b9c3384846121d2565b6001905092915050565b611bae61167b565b611bb757600080fd5b6001600e5402421115611bff576040517f08c379a0000000000000000000000000000000000000000000000000000000008152600401611bf6906131ed565b60405180910390fd5b80600d8190555050565b60098181548110611c1657fe5b906000526020600020016000915054906101000a900473ffffffffffffffffffffffffffffffffffffffff1681565b6000611c4f61167b565b611c5857600080fd5b6001600e5402421115611ca0576040517f08c379a0000000000000000000000000000000000000000000000000000000008152600401611c97906131ed565b60405180910390fd5b600b60008373ffffffffffffffffffffffffffffffffffffffff1673ffffffffffffffffffffffffffffffffffffffff16815260200190815260200160002060009054906101000a900460ff16611d2c576040517f08c379a0000000000000000000000000000000000000000000000000000000008152600401611d239061318d565b60405180910390fd5b60008090505b600754811015611e2c57600b60008473ffffffffffffffffffffffffffffffffffffffff1673ffffffffffffffffffffffffffffffffffffffff16815260200190815260200160002060009054906101000a900460ff1615611e1f5760006006600083815260200190815260200160002060050160006101000a81548160ff0219169083151502179055506000600b60008573ffffffffffffffffffffffffffffffffffffffff1673ffffffffffffffffffffffffffffffffffffffff16815260200190815260200160002060006101000a81548160ff0219169083151502179055506001915050611e32565b8080600101915050611d32565b50600090505b919050565b60088181548110611e4457fe5b906000526020600020016000915054906101000a900473ffffffffffffffffffffffffffffffffffffffff1681565b6000600160008473ffffffffffffffffffffffffffffffffffffffff1673ffffffffffffffffffffffffffffffffffffffff16815260200190815260200160002060008373ffffffffffffffffffffffffffffffffffffffff1673ffffffffffffffffffffffffffffffffffffffff16815260200190815260200160002054905092915050565b606080600980549050604051908082528060200260200182016040528015611f315781602001602082028038833980820191505090505b50905060008090505b600980549050811015611fac57611f8760098281548110611f5757fe5b9060005260206000200160009054906101000a900473ffffffffffffffffffffffffffffffffffffffff16611537565b828281518110611f9357fe5b6020026020010181815250508080600101915050611f3a565b508091505090565b611fbc61167b565b611fc557600080fd5b611fce816125de565b50565b611fd961167b565b611fe257600080fd5b80600d8190555050565b611ff461167b565b611ffd57600080fd5b80600e8190555050565b600073ffffffffffffffffffffffffffffffffffffffff168373ffffffffffffffffffffffffffffffffffffffff161415612077576040517f08c379a000000000000000000000000000000000000000000000000000000000815260040161206e9061330d565b60405180910390fd5b600073ffffffffffffffffffffffffffffffffffffffff168273ffffffffffffffffffffffffffffffffffffffff1614156120e7576040517f08c379a00000000000000000000000000000000000000000000000000000000081526004016120de9061320d565b60405180910390fd5b80600160008573ffffffffffffffffffffffffffffffffffffffff1673ffffffffffffffffffffffffffffffffffffffff16815260200190815260200160002060008473ffffffffffffffffffffffffffffffffffffffff1673ffffffffffffffffffffffffffffffffffffffff168152602001908152602001600020819055508173ffffffffffffffffffffffffffffffffffffffff168373ffffffffffffffffffffffffffffffffffffffff167f8c5be1e5ebec7d5bd14f71427d1e84f3dd0314c0f7b2291e5b200ac8c7c3b925836040516121c5919061334d565b60405180910390a3505050565b600073ffffffffffffffffffffffffffffffffffffffff168373ffffffffffffffffffffffffffffffffffffffff161415612242576040517f08c379a0000000000000000000000000000000000000000000000000000000008152600401612239906132ed565b60405180910390fd5b600073ffffffffffffffffffffffffffffffffffffffff168273ffffffffffffffffffffffffffffffffffffffff1614156122b2576040517f08c379a00000000000000000000000000000000000000000000000000000000081526004016122a9906131ad565b60405180910390fd5b61231d81604051806060016040528060268152602001613632602691396000808773ffffffffffffffffffffffffffffffffffffffff1673ffffffffffffffffffffffffffffffffffffffff1681526020019081526020016000205461245c9092919063ffffffff16565b6000808573ffffffffffffffffffffffffffffffffffffffff1673ffffffffffffffffffffffffffffffffffffffff168152602001908152602001600020819055506123b0816000808573ffffffffffffffffffffffffffffffffffffffff1673ffffffffffffffffffffffffffffffffffffffff1681526020019081526020016000205461258990919063ffffffff16565b6000808473ffffffffffffffffffffffffffffffffffffffff1673ffffffffffffffffffffffffffffffffffffffff168152602001908152602001600020819055508173ffffffffffffffffffffffffffffffffffffffff168373ffffffffffffffffffffffffffffffffffffffff167fddf252ad1be2c89b69c2b068fc378daa952ba7f163c4a11628f55a4df523b3ef8360405161244f919061334d565b60405180910390a3505050565b60008383111582906124a4576040517f08c379a000000000000000000000000000000000000000000000000000000000815260040161249b919061316b565b60405180910390fd5b5060008385039050809150509392505050565b6124bf61167b565b6124c857600080fd5b6001600a60008373ffffffffffffffffffffffffffffffffffffffff1673ffffffffffffffffffffffffffffffffffffffff16815260200190815260200160002060006101000a81548160ff02191690831515021790555060088190806001815401808255809150509060018203906000526020600020016000909192909190916101000a81548173ffffffffffffffffffffffffffffffffffffffff021916908373ffffffffffffffffffffffffffffffffffffffff1602179055505050565b6000808284019050838110156125d4576040517f08c379a00000000000000000000000000000000000000000000000000000000081526004016125cb9061324d565b60405180910390fd5b8091505092915050565b600073ffffffffffffffffffffffffffffffffffffffff168173ffffffffffffffffffffffffffffffffffffffff16141561261857600080fd5b8073ffffffffffffffffffffffffffffffffffffffff16600560019054906101000a900473ffffffffffffffffffffffffffffffffffffffff1673ffffffffffffffffffffffffffffffffffffffff167f8be0079c531659141344cd1fd0a4f28419497f9722a3daafe3b4186f6b6457e060405160405180910390a380600560016101000a81548173ffffffffffffffffffffffffffffffffffffffff021916908373ffffffffffffffffffffffffffffffffffffffff16021790555050565b828054600181600116156101000203166002900490600052602060002090601f016020900481019282601f1061271957805160ff1916838001178555612747565b82800160010185558215612747579182015b8281111561274657825182559160200191906001019061272b565b5b5090506127549190612758565b5090565b61277a91905b8082111561277657600081600090555060010161275e565b5090565b90565b60008135905061278c81613603565b92915050565b600082601f8301126127a357600080fd5b81356127b66127b18261345d565b613430565b915081818352602084019350602081019050838560208402820111156127db57600080fd5b60005b8381101561280b57816127f1888261277d565b8452602084019350602083019250506001810190506127de565b5050505092915050565b600082601f83011261282657600080fd5b813561283961283482613485565b613430565b9150808252602083016020830185838301111561285557600080fd5b6128608382846135b0565b50505092915050565b6000813590506128788161361a565b92915050565b60006020828403121561289057600080fd5b600061289e8482850161277d565b91505092915050565b600080604083850312156128ba57600080fd5b60006128c88582860161277d565b92505060206128d98582860161277d565b9150509250929050565b6000806000606084860312156128f857600080fd5b60006129068682870161277d565b93505060206129178682870161277d565b925050604061292886828701612869565b9150509250925092565b6000806000806080858703121561294857600080fd5b60006129568782880161277d565b945050602085013567ffffffffffffffff81111561297357600080fd5b61297f87828801612815565b935050604085013567ffffffffffffffff81111561299c57600080fd5b6129a887828801612815565b925050606085013567ffffffffffffffff8111156129c557600080fd5b6129d187828801612815565b91505092959194509250565b600080604083850312156129f057600080fd5b60006129fe8582860161277d565b9250506020612a0f85828601612869565b9150509250929050565b600060208284031215612a2b57600080fd5b600082013567ffffffffffffffff811115612a4557600080fd5b612a5184828501612792565b91505092915050565b600060208284031215612a6c57600080fd5b6000612a7a84828501612869565b91505092915050565b6000612a8f8383612bd9565b905092915050565b6000612aa383836130af565b60208301905092915050565b612ab88161355b565b82525050565b6000612ac9826134d1565b612ad38185613517565b935083602082028501612ae5856134b1565b8060005b85811015612b215784840389528151612b028582612a83565b9450612b0d836134fd565b925060208a01995050600181019050612ae9565b50829750879550505050505092915050565b6000612b3e826134dc565b612b488185613528565b9350612b53836134c1565b8060005b83811015612b84578151612b6b8882612a97565b9750612b768361350a565b925050600181019050612b57565b5085935050505092915050565b612b9a8161356d565b82525050565b6000612bab826134f2565b612bb5818561354a565b9350612bc58185602086016135bf565b612bce816135f2565b840191505092915050565b6000612be4826134e7565b612bee8185613539565b9350612bfe8185602086016135bf565b612c07816135f2565b840191505092915050565b6000612c1d826134e7565b612c27818561354a565b9350612c378185602086016135bf565b612c40816135f2565b840191505092915050565b6000612c5860248361354a565b91507f546869732063616e646964617465206164647265737320646f65736e2774206560008301527f78697374000000000000000000000000000000000000000000000000000000006020830152604082019050919050565b6000612cbe60238361354a565b91507f45524332303a207472616e7366657220746f20746865207a65726f206164647260008301527f65737300000000000000000000000000000000000000000000000000000000006020830152604082019050919050565b6000612d24600e8361354a565b91507f537570706c79206973206f7665720000000000000000000000000000000000006000830152602082019050919050565b6000612d6460198361354a565b91507f5468697320706f6c6c20616c72656164792073746172746564000000000000006000830152602082019050919050565b6000612da460228361354a565b91507f45524332303a20617070726f766520746f20746865207a65726f20616464726560008301527f73730000000000000000000000000000000000000000000000000000000000006020830152604082019050919050565b6000612e0a60128361354a565b91507f5573657220616c726561647920766f74656400000000000000000000000000006000830152602082019050919050565b6000612e4a601b8361354a565b91507f536166654d6174683a206164646974696f6e206f766572666c6f7700000000006000830152602082019050919050565b6000612e8a60128361354a565b91507f4973206e6f7420612043616e64696461746500000000000000000000000000006000830152602082019050919050565b6000612eca60168361354a565b91507f5468697320706f6c6c2068617320657870697265642e000000000000000000006000830152602082019050919050565b6000612f0a60248361354a565b91507f546869732063616e646964617465206164647265737320616c7265616479206560008301527f78697374000000000000000000000000000000000000000000000000000000006020830152604082019050919050565b6000612f70601a8361354a565b91507f566f74657220646f65736e27742068617665206120746f6b656e0000000000006000830152602082019050919050565b6000612fb060258361354a565b91507f45524332303a207472616e736665722066726f6d20746865207a65726f20616460008301527f64726573730000000000000000000000000000000000000000000000000000006020830152604082019050919050565b600061301660248361354a565b91507f45524332303a20617070726f76652066726f6d20746865207a65726f2061646460008301527f72657373000000000000000000000000000000000000000000000000000000006020830152604082019050919050565b600061307c601b8361354a565b91507f557365722069736e277420617574686f72697a656420766f74657200000000006000830152602082019050919050565b6130b881613599565b82525050565b6130c781613599565b82525050565b6130d6816135a3565b82525050565b60006020820190506130f16000830184612aaf565b92915050565b600060408201905081810360008301526131118185612abe565b905081810360208301526131258184612abe565b90509392505050565b600060208201905081810360008301526131488184612b33565b905092915050565b60006020820190506131656000830184612b91565b92915050565b600060208201905081810360008301526131858184612ba0565b905092915050565b600060208201905081810360008301526131a681612c4b565b9050919050565b600060208201905081810360008301526131c681612cb1565b9050919050565b600060208201905081810360008301526131e681612d17565b9050919050565b6000602082019050818103600083015261320681612d57565b9050919050565b6000602082019050818103600083015261322681612d97565b9050919050565b6000602082019050818103600083015261324681612dfd565b9050919050565b6000602082019050818103600083015261326681612e3d565b9050919050565b6000602082019050818103600083015261328681612e7d565b9050919050565b600060208201905081810360008301526132a681612ebd565b9050919050565b600060208201905081810360008301526132c681612efd565b9050919050565b600060208201905081810360008301526132e681612f63565b9050919050565b6000602082019050818103600083015261330681612fa3565b9050919050565b6000602082019050818103600083015261332681613009565b9050919050565b600060208201905081810360008301526133468161306f565b9050919050565b600060208201905061336260008301846130be565b92915050565b600060c08201905061337d60008301896130be565b818103602083015261338f8188612c12565b905081810360408301526133a38187612c12565b90506133b26060830186612aaf565b81810360808301526133c48185612c12565b90506133d360a0830184612b91565b979650505050505050565b60006060820190506133f360008301866130be565b61340060208301856130be565b61340d60408301846130be565b949350505050565b600060208201905061342a60008301846130cd565b92915050565b6000604051905081810181811067ffffffffffffffff8211171561345357600080fd5b8060405250919050565b600067ffffffffffffffff82111561347457600080fd5b602082029050602081019050919050565b600067ffffffffffffffff82111561349c57600080fd5b601f19601f8301169050602081019050919050565b6000819050602082019050919050565b6000819050602082019050919050565b600081519050919050565b600081519050919050565b600081519050919050565b600081519050919050565b6000602082019050919050565b6000602082019050919050565b600082825260208201905092915050565b600082825260208201905092915050565b600082825260208201905092915050565b600082825260208201905092915050565b600061356682613579565b9050919050565b60008115159050919050565b600073ffffffffffffffffffffffffffffffffffffffff82169050919050565b6000819050919050565b600060ff82169050919050565b82818337600083830152505050565b60005b838110156135dd5780820151818401526020810190506135c2565b838111156135ec576000848401525b50505050565b6000601f19601f8301169050919050565b61360c8161355b565b811461361757600080fd5b50565b61362381613599565b811461362e57600080fd5b5056fe45524332303a207472616e7366657220616d6f756e7420657863656564732062616c616e636545524332303a207472616e7366657220616d6f756e74206578636565647320616c6c6f77616e636545524332303a2064656372656173656420616c6c6f77616e63652062656c6f77207a65726fa365627a7a72315820bd1e65c9596a6aa4cc48067ae43f46b3558efa3f470e72ffe44ba8bfa1197df06c6578706572696d656e74616cf564736f6c634300050c004045524332303a207472616e7366657220616d6f756e7420657863656564732062616c616e6365",
  "source": "pragma solidity >=0.4.22 <0.6.0;\r\npragma experimental ABIEncoderV2;       // only for remix experiment\r\nimport  \"./erc20.sol\";\r\nimport  \"./erc20Detailed.sol\";\r\nimport  \"./Owned.sol\";\r\n\r\ncontract ElectionToken is erc20, erc20Detailed, Owned{\r\n\r\n    struct Candidate{\r\n        uint id;                        // the candidate associated number in this pool\r\n        string name;                    // candidate name\r\n        string description;             // short description of the candidate\r\n        address candidateAdd;\r\n        string image;                   // candidate image link\r\n        bool candidateInitialized;      // true if candidate exist\r\n    }\r\n\r\n    mapping (uint => Candidate) public candidates;\r\n    uint public candidatesCount;\r\n\r\n    address[] public voterAddresses;\r\n    address[] public candidateAddresses;\r\n\r\n    mapping (address => bool) voterAddressInitialized;\r\n    mapping (address => bool) candidateAddressInitialized;\r\n\r\n    mapping (address => bool) voted;\r\n\r\n    /*https://www.unixtimestamp.com/index.php*/\r\n    uint256 private expiration;    // contract expiration time *** 1577971200 =2/1/2020 13:20:00\r\n    uint256 private start;         // contract start time\r\n\r\n    event votedEvent (\r\n        address indexed _candidateId\r\n    );\r\n\r\n    //constructor(uint256 _initialSupply, address[] memory _voterAddresses, address[] memory _candidateAddresses, uint256 _start, uint256 _end) erc20Detailed(\"VotingToken\", \"VTC\", 0)public{    //_initialTokenSupply = number of voters\r\n    constructor(uint256 _initialSupply, address[] memory _voterAddresses, uint256 _start, uint256 _end) erc20Detailed(\"VotingToken\", \"VTC\", 0)public{    //_initialTokenSupply = number of voters\r\n        _mint(msg.sender, _initialSupply);\r\n        addVotersList(_voterAddresses);\r\n        //addCandidatesList(_candidateAddresses);\r\n        distributeTokens();\r\n        setElectionStartTime(_start);\r\n        setElectionExpirationTime(_end);\r\n    }\r\n    /*\r\n    constructor() erc20Detailed(\"VotingToken\", \"VTC\", 0)public onlyOwner{    //_initialTokenSupply = number of voters\r\n    }\r\n\r\n    function initializeContract(uint256 _initialSupply, address[] memory _voterAddresses, address[] memory _candidateAddresses, uint256 _start, uint256 _end) public onlyOwner{\r\n        _mint(msg.sender, _initialSupply);\r\n        addVotersList(_voterAddresses);\r\n        addCandidatesList(_candidateAddresses);\r\n        distributeTokens();\r\n        setElectionStartTime(_start);\r\n        setElectionExpirationTime(_end);\r\n    }*/\r\n\r\n    function addVoterAddress(address _address) internal onlyOwner{\r\n        voterAddressInitialized[_address] = true;\r\n        voterAddresses.push(_address);\r\n    }\r\n\r\n    function addVotersList(address[] memory addresses) public onlyOwner{\r\n        //require(now < (start * 1 seconds), \"Poll started v\");\r\n        for(uint i = 0; i < addresses.length; i++){\r\n            if(!voterAddressInitialized[addresses[i]]){\r\n                addVoterAddress(addresses[i]);\r\n            }\r\n        }\r\n    }\r\n\r\n    /*function addCandidateAddress(address _address) internal onlyOwner{\r\n        candidateAddressInitialized[_address] = true;\r\n        candidatesCount ++;\r\n        candidateAddresses.push(_address);\r\n    }\r\n\r\n    function addCandidatesList(address[] memory addresses) public onlyOwner{\r\n        //require(now < (start * 1 seconds), \"Poll started c\");\r\n        for(uint i = 0; i < addresses.length; i++){\r\n            if(!candidateAddressInitialized[addresses[i]]){\r\n                addCandidateAddress(addresses[i]);\r\n            }\r\n        }\r\n    }*/\r\n\r\n    function addCandidate(address _address, string memory _name, string memory _description, string memory _image) public onlyOwner{\r\n        require(now <= (start * 1 seconds),\"This poll already started\");\r\n        require(!candidateAddressInitialized[_address], \"This candidate address already exist\");\r\n\r\n        candidateAddressInitialized[_address] = true;\r\n        candidates[candidatesCount] = Candidate(candidatesCount, _name, _description, _address, _image, true);\r\n        candidatesCount++;\r\n        candidateAddresses.push(_address);\r\n    }\r\n\r\n    function editCandidateByAddress(address _address, string memory _name, string memory _description, string memory _image) public onlyOwner{\r\n        require(now <= (start * 1 seconds),\"This poll already started\");\r\n        require(candidateAddressInitialized[_address], \"This candidate address doesn't exist\");\r\n\r\n        for(uint i = 0; i < candidatesCount; i++){      // find candidate index\r\n            if(candidates[i].candidateAdd == _address){\r\n                candidates[i] = Candidate(candidatesCount, _name, _description, _address, _image, true);\r\n            }\r\n        }\r\n    }\r\n\r\n    function deleteCandidateByAddress(address _address) public onlyOwner returns(bool){\r\n        require(now <= (start * 1 seconds),\"This poll already started\");\r\n        require(candidateAddressInitialized[_address], \"This candidate address doesn't exist\");\r\n\r\n        for(uint i = 0; i < candidatesCount; i++){      // find candidate index\r\n            if(candidateAddressInitialized[_address]){\r\n                candidates[i].candidateInitialized = false;\r\n                candidateAddressInitialized[_address] = false;\r\n                return true;\r\n            }\r\n        }\r\n        return false;\r\n    }\r\n\r\n    function distributeTokens() public onlyOwner{\r\n        for(uint i = 0; i < voterAddresses.length; i++){\r\n            require(totalSupply() > 0,\"Supply is over\");\r\n            transfer(voterAddresses[i],1);\r\n        }\r\n    }\r\n\r\n    function vote(address candidateAddress) public {\r\n        //require(!timeLimit,\"Election ended\");\r\n        /*require(now >= (start * 1 seconds), \"This poll not yet started\");\r\n        if(now > (expiration * 1 seconds)){\r\n            endElection();\r\n        }*/\r\n        require(now < (expiration * 1 seconds), \"This poll has expired.\");\r\n        require(candidateAddressInitialized[candidateAddress],\"Is not a Candidate\");\r\n        require(voterAddressInitialized[msg.sender],\"User isn't authorized voter\");\r\n        require(!voted[msg.sender],\"User already voted\");\r\n        require(balanceOf(msg.sender) > 0,\"Voter doesn't have a token\");\r\n        transfer(candidateAddress,1);\r\n        voted[msg.sender] = true;\r\n\r\n        emit votedEvent(candidateAddress);\r\n    }\r\n\r\n    /*function getResults() public view returns (address[] memory , uint256[] memory ){\r\n        uint256[] memory results = new uint256[](candidateAddresses.length);\r\n        for(uint i = 0; i < candidateAddresses.length; i++){\r\n            results[i] = balanceOf(candidateAddresses[i]);\r\n        }\r\n        return (candidateAddresses,results);\r\n    }\r\n\r\n    function getStatistics() public view returns (uint256 , uint256 ){      // return how many voted and didnt how many didn't\r\n        uint256 didVoteAmount = 0;\r\n        for(uint i = 0; i < voterAddresses.length; i++){\r\n            if(voted[voterAddresses[i]]){  // if voter voted\r\n                didVoteAmount += 1;\r\n            }\r\n        }\r\n        uint256 didntVoteAmount = voterAddresses.length - didVoteAmount;\r\n        return (didVoteAmount,didntVoteAmount);\r\n    }*/\r\n\r\n    function getResults() public view returns (uint256[] memory ){\r\n        uint256[] memory results = new uint256[](candidateAddresses.length);\r\n        for(uint i = 0; i < candidateAddresses.length; i++){\r\n            if(candidates[i].candidateInitialized == true)\r\n                results[i] = balanceOf(candidateAddresses[i]);\r\n        }\r\n        return results;\r\n    }\r\n\r\n    function getCandidateData() public view returns (string[] memory, string[] memory ){\r\n        string[] memory candidateName = new string[](candidatesCount);\r\n        string[] memory candidateDescription = new string[](candidatesCount);\r\n        for(uint i = 0; i < candidateAddresses.length; i++){\r\n            if(candidates[i].candidateInitialized == true)\r\n                candidateName[i] = candidates[i].name;\r\n                candidateDescription[i] = candidates[i].description;\r\n        }\r\n        return (candidateName,candidateDescription);\r\n    }\r\n\r\n    function endElection() private {        // if voter didnt vote set him as if he did\r\n        for(uint i = 0; i < voterAddresses.length; i++){\r\n            if(!voted[voterAddresses[i]]){\r\n                voted[voterAddresses[i]] = true;\r\n            }\r\n        }\r\n    }\r\n\r\n    function setElectionStartTime(uint _start) public onlyOwner{\r\n        start = _start;\r\n    }\r\n\r\n    function setElectionExpirationTime(uint _expiration) public onlyOwner{\r\n        expiration = _expiration;\r\n    }\r\n\r\n    function changeElectionStartTime(uint _start) public onlyOwner{\r\n        require(now <= (start * 1 seconds), \"This poll already started\");\r\n        start = _start;\r\n    }\r\n\r\n    function changeElectionExpirationTime(uint _expiration) public onlyOwner{\r\n        require(now <= (start * 1 seconds), \"This poll already started\");\r\n        expiration = _expiration;\r\n    }\r\n\r\n    function displayTime() public view returns(uint256, uint256, uint256){\r\n        uint256 timeNow = now;\r\n        return (timeNow, start, expiration);\r\n    }\r\n\r\n    //******for test******\r\n    function balanceOFFFF()public view returns (uint256[] memory){\r\n        uint256[] memory votebalance = new uint256[](candidateAddresses.length);\r\n        for(uint i = 0; i < candidateAddresses.length; i++){\r\n            votebalance[i] = balanceOf(candidateAddresses[i]);\r\n        }\r\n        return votebalance;\r\n    }\r\n}\r\n",
  "sourcePath": "C:/Users/Misha/Downloads/Votechain/contracts/ElectionToken.sol",
  "compiler": {
    "name": "solc",
    "version": "0.5.12+commit.7709ece9.Emscripten.clang"
  },
  "schemaVersion": "3.0.19",
  "updatedAt": "2020-01-16T14:23:57.362Z",
  "devdoc": {
    "methods": {
      "allowance(address,address)": {
        "details": "See {IERC20-allowance}."
      },
      "approve(address,uint256)": {
        "details": "See {IERC20-approve}.      * Requirements:      * - `spender` cannot be the zero address."
      },
      "balanceOf(address)": {
        "details": "See {IERC20-balanceOf}."
      },
      "decimals()": {
        "details": "Returns the number of decimals used to get its user representation. For example, if `decimals` equals `2`, a balance of `505` tokens should be displayed to a user as `5,05` (`505 / 10 ** 2`).      * Tokens usually opt for a value of 18, imitating the relationship between Ether and Wei.      * NOTE: This information is only used for _display_ purposes: it in no way affects any of the arithmetic of the contract, including {IERC20-balanceOf} and {IERC20-transfer}."
      },
      "decreaseAllowance(address,uint256)": {
        "details": "Atomically decreases the allowance granted to `spender` by the caller.      * This is an alternative to {approve} that can be used as a mitigation for problems described in {IERC20-approve}.      * Emits an {Approval} event indicating the updated allowance.      * Requirements:      * - `spender` cannot be the zero address. - `spender` must have allowance for the caller of at least `subtractedValue`."
      },
      "increaseAllowance(address,uint256)": {
        "details": "Atomically increases the allowance granted to `spender` by the caller.      * This is an alternative to {approve} that can be used as a mitigation for problems described in {IERC20-approve}.      * Emits an {Approval} event indicating the updated allowance.      * Requirements:      * - `spender` cannot be the zero address."
      },
      "isOwner()": {
        "return": "true if `msg.sender` is the owner of the contract."
      },
      "name()": {
        "details": "Returns the name of the token."
      },
      "owner()": {
        "return": "the address of the owner."
      },
      "renounceOwnership()": {
        "details": "Allows the current owner to relinquish control of the contract."
      },
      "symbol()": {
        "details": "Returns the symbol of the token, usually a shorter version of the name."
      },
      "totalSupply()": {
        "details": "See {IERC20-totalSupply}."
      },
      "transfer(address,uint256)": {
        "details": "See {IERC20-transfer}.      * Requirements:      * - `recipient` cannot be the zero address. - the caller must have a balance of at least `amount`."
      },
      "transferFrom(address,address,uint256)": {
        "details": "See {IERC20-transferFrom}.      * Emits an {Approval} event indicating the updated allowance. This is not required by the EIP. See the note at the beginning of {ERC20};      * Requirements: - `sender` and `recipient` cannot be the zero address. - `sender` must have a balance of at least `amount`. - the caller must have allowance for `sender`'s tokens of at least `amount`."
      },
      "transferOwnership(address)": {
        "details": "Allows the current owner to transfer control of the contract to a newOwner.",
        "params": {
          "newOwner": "The address to transfer ownership to."
        }
      }
    }
  },
  "userdoc": {
    "methods": {
      "renounceOwnership()": {
        "notice": "Renouncing to ownership will leave the contract without an owner. It will not be possible to call the functions with the `onlyOwner` modifier anymore."
      }
    }
  }
}