{
  "contractName": "ElectionToken",
  "abi": [
    {
      "inputs": [
        {
          "internalType": "string",
          "name": "_name",
          "type": "string"
        },
        {
          "internalType": "string",
          "name": "_description",
          "type": "string"
        },
        {
          "internalType": "uint256",
          "name": "_initialSupply",
          "type": "uint256"
        },
        {
          "internalType": "address[]",
          "name": "_voterAddresses",
          "type": "address[]"
        },
        {
          "internalType": "uint256",
          "name": "_start",
          "type": "uint256"
        },
        {
          "internalType": "uint256",
          "name": "_end",
          "type": "uint256"
        }
      ],
      "payable": false,
      "stateMutability": "nonpayable",
      "type": "constructor"
    },
    {
      "anonymous": false,
      "inputs": [
        {
          "indexed": true,
          "internalType": "address",
          "name": "owner",
          "type": "address"
        },
        {
          "indexed": true,
          "internalType": "address",
          "name": "spender",
          "type": "address"
        },
        {
          "indexed": false,
          "internalType": "uint256",
          "name": "value",
          "type": "uint256"
        }
      ],
      "name": "Approval",
      "type": "event"
    },
    {
      "anonymous": false,
      "inputs": [
        {
          "indexed": true,
          "internalType": "address",
          "name": "previousOwner",
          "type": "address"
        },
        {
          "indexed": true,
          "internalType": "address",
          "name": "newOwner",
          "type": "address"
        }
      ],
      "name": "OwnershipTransferred",
      "type": "event"
    },
    {
      "anonymous": false,
      "inputs": [
        {
          "indexed": true,
          "internalType": "address",
          "name": "from",
          "type": "address"
        },
        {
          "indexed": true,
          "internalType": "address",
          "name": "to",
          "type": "address"
        },
        {
          "indexed": false,
          "internalType": "uint256",
          "name": "value",
          "type": "uint256"
        }
      ],
      "name": "Transfer",
      "type": "event"
    },
    {
      "anonymous": false,
      "inputs": [
        {
          "indexed": true,
          "internalType": "address",
          "name": "_candidateId",
          "type": "address"
        }
      ],
      "name": "votedEvent",
      "type": "event"
    },
    {
      "constant": true,
      "inputs": [
        {
          "internalType": "address",
          "name": "owner",
          "type": "address"
        },
        {
          "internalType": "address",
          "name": "spender",
          "type": "address"
        }
      ],
      "name": "allowance",
      "outputs": [
        {
          "internalType": "uint256",
          "name": "",
          "type": "uint256"
        }
      ],
      "payable": false,
      "stateMutability": "view",
      "type": "function"
    },
    {
      "constant": false,
      "inputs": [
        {
          "internalType": "address",
          "name": "spender",
          "type": "address"
        },
        {
          "internalType": "uint256",
          "name": "amount",
          "type": "uint256"
        }
      ],
      "name": "approve",
      "outputs": [
        {
          "internalType": "bool",
          "name": "",
          "type": "bool"
        }
      ],
      "payable": false,
      "stateMutability": "nonpayable",
      "type": "function"
    },
    {
      "constant": true,
      "inputs": [
        {
          "internalType": "address",
          "name": "account",
          "type": "address"
        }
      ],
      "name": "balanceOf",
      "outputs": [
        {
          "internalType": "uint256",
          "name": "",
          "type": "uint256"
        }
      ],
      "payable": false,
      "stateMutability": "view",
      "type": "function"
    },
    {
      "constant": true,
      "inputs": [
        {
          "internalType": "uint256",
          "name": "",
          "type": "uint256"
        }
      ],
      "name": "candidateAddresses",
      "outputs": [
        {
          "internalType": "address",
          "name": "",
          "type": "address"
        }
      ],
      "payable": false,
      "stateMutability": "view",
      "type": "function"
    },
    {
      "constant": true,
      "inputs": [
        {
          "internalType": "uint256",
          "name": "",
          "type": "uint256"
        }
      ],
      "name": "candidates",
      "outputs": [
        {
          "internalType": "uint256",
          "name": "id",
          "type": "uint256"
        },
        {
          "internalType": "string",
          "name": "name",
          "type": "string"
        },
        {
          "internalType": "string",
          "name": "description",
          "type": "string"
        },
        {
          "internalType": "address",
          "name": "candidateAdd",
          "type": "address"
        },
        {
          "internalType": "string",
          "name": "image",
          "type": "string"
        },
        {
          "internalType": "bool",
          "name": "candidateInitialized",
          "type": "bool"
        }
      ],
      "payable": false,
      "stateMutability": "view",
      "type": "function"
    },
    {
      "constant": true,
      "inputs": [],
      "name": "candidatesCount",
      "outputs": [
        {
          "internalType": "uint256",
          "name": "",
          "type": "uint256"
        }
      ],
      "payable": false,
      "stateMutability": "view",
      "type": "function"
    },
    {
      "constant": true,
      "inputs": [],
      "name": "decimals",
      "outputs": [
        {
          "internalType": "uint8",
          "name": "",
          "type": "uint8"
        }
      ],
      "payable": false,
      "stateMutability": "view",
      "type": "function"
    },
    {
      "constant": false,
      "inputs": [
        {
          "internalType": "address",
          "name": "spender",
          "type": "address"
        },
        {
          "internalType": "uint256",
          "name": "subtractedValue",
          "type": "uint256"
        }
      ],
      "name": "decreaseAllowance",
      "outputs": [
        {
          "internalType": "bool",
          "name": "",
          "type": "bool"
        }
      ],
      "payable": false,
      "stateMutability": "nonpayable",
      "type": "function"
    },
    {
      "constant": true,
      "inputs": [],
      "name": "electionDescription",
      "outputs": [
        {
          "internalType": "string",
          "name": "",
          "type": "string"
        }
      ],
      "payable": false,
      "stateMutability": "view",
      "type": "function"
    },
    {
      "constant": true,
      "inputs": [],
      "name": "electionName",
      "outputs": [
        {
          "internalType": "string",
          "name": "",
          "type": "string"
        }
      ],
      "payable": false,
      "stateMutability": "view",
      "type": "function"
    },
    {
      "constant": false,
      "inputs": [
        {
          "internalType": "address",
          "name": "spender",
          "type": "address"
        },
        {
          "internalType": "uint256",
          "name": "addedValue",
          "type": "uint256"
        }
      ],
      "name": "increaseAllowance",
      "outputs": [
        {
          "internalType": "bool",
          "name": "",
          "type": "bool"
        }
      ],
      "payable": false,
      "stateMutability": "nonpayable",
      "type": "function"
    },
    {
      "constant": true,
      "inputs": [],
      "name": "isOwner",
      "outputs": [
        {
          "internalType": "bool",
          "name": "",
          "type": "bool"
        }
      ],
      "payable": false,
      "stateMutability": "view",
      "type": "function"
    },
    {
      "constant": true,
      "inputs": [],
      "name": "name",
      "outputs": [
        {
          "internalType": "string",
          "name": "",
          "type": "string"
        }
      ],
      "payable": false,
      "stateMutability": "view",
      "type": "function"
    },
    {
      "constant": true,
      "inputs": [],
      "name": "owner",
      "outputs": [
        {
          "internalType": "address",
          "name": "",
          "type": "address"
        }
      ],
      "payable": false,
      "stateMutability": "view",
      "type": "function"
    },
    {
      "constant": false,
      "inputs": [],
      "name": "renounceOwnership",
      "outputs": [],
      "payable": false,
      "stateMutability": "nonpayable",
      "type": "function"
    },
    {
      "constant": true,
      "inputs": [],
      "name": "symbol",
      "outputs": [
        {
          "internalType": "string",
          "name": "",
          "type": "string"
        }
      ],
      "payable": false,
      "stateMutability": "view",
      "type": "function"
    },
    {
      "constant": true,
      "inputs": [],
      "name": "totalSupply",
      "outputs": [
        {
          "internalType": "uint256",
          "name": "",
          "type": "uint256"
        }
      ],
      "payable": false,
      "stateMutability": "view",
      "type": "function"
    },
    {
      "constant": false,
      "inputs": [
        {
          "internalType": "address",
          "name": "recipient",
          "type": "address"
        },
        {
          "internalType": "uint256",
          "name": "amount",
          "type": "uint256"
        }
      ],
      "name": "transfer",
      "outputs": [
        {
          "internalType": "bool",
          "name": "",
          "type": "bool"
        }
      ],
      "payable": false,
      "stateMutability": "nonpayable",
      "type": "function"
    },
    {
      "constant": false,
      "inputs": [
        {
          "internalType": "address",
          "name": "sender",
          "type": "address"
        },
        {
          "internalType": "address",
          "name": "recipient",
          "type": "address"
        },
        {
          "internalType": "uint256",
          "name": "amount",
          "type": "uint256"
        }
      ],
      "name": "transferFrom",
      "outputs": [
        {
          "internalType": "bool",
          "name": "",
          "type": "bool"
        }
      ],
      "payable": false,
      "stateMutability": "nonpayable",
      "type": "function"
    },
    {
      "constant": false,
      "inputs": [
        {
          "internalType": "address",
          "name": "newOwner",
          "type": "address"
        }
      ],
      "name": "transferOwnership",
      "outputs": [],
      "payable": false,
      "stateMutability": "nonpayable",
      "type": "function"
    },
    {
      "constant": true,
      "inputs": [
        {
          "internalType": "uint256",
          "name": "",
          "type": "uint256"
        }
      ],
      "name": "voterAddresses",
      "outputs": [
        {
          "internalType": "address",
          "name": "",
          "type": "address"
        }
      ],
      "payable": false,
      "stateMutability": "view",
      "type": "function"
    },
    {
      "constant": true,
      "inputs": [],
      "name": "getElectionData",
      "outputs": [
        {
          "internalType": "string",
          "name": "",
          "type": "string"
        },
        {
          "internalType": "string",
          "name": "",
          "type": "string"
        },
        {
          "internalType": "uint256",
          "name": "",
          "type": "uint256"
        }
      ],
      "payable": false,
      "stateMutability": "view",
      "type": "function"
    },
    {
      "constant": false,
      "inputs": [
        {
          "internalType": "string",
          "name": "_name",
          "type": "string"
        }
      ],
      "name": "setElectionName",
      "outputs": [],
      "payable": false,
      "stateMutability": "nonpayable",
      "type": "function"
    },
    {
      "constant": true,
      "inputs": [],
      "name": "getElectionName",
      "outputs": [
        {
          "internalType": "string",
          "name": "",
          "type": "string"
        }
      ],
      "payable": false,
      "stateMutability": "view",
      "type": "function"
    },
    {
      "constant": false,
      "inputs": [
        {
          "internalType": "string",
          "name": "_description",
          "type": "string"
        }
      ],
      "name": "setElectionDescription",
      "outputs": [],
      "payable": false,
      "stateMutability": "nonpayable",
      "type": "function"
    },
    {
      "constant": true,
      "inputs": [],
      "name": "getElectionDescription",
      "outputs": [
        {
          "internalType": "string",
          "name": "",
          "type": "string"
        }
      ],
      "payable": false,
      "stateMutability": "view",
      "type": "function"
    },
    {
      "constant": false,
      "inputs": [
        {
          "internalType": "address[]",
          "name": "addresses",
          "type": "address[]"
        }
      ],
      "name": "addVotersList",
      "outputs": [],
      "payable": false,
      "stateMutability": "nonpayable",
      "type": "function"
    },
    {
      "constant": false,
      "inputs": [
        {
          "internalType": "address",
          "name": "_address",
          "type": "address"
        },
        {
          "internalType": "string",
          "name": "_name",
          "type": "string"
        },
        {
          "internalType": "string",
          "name": "_description",
          "type": "string"
        },
        {
          "internalType": "string",
          "name": "_image",
          "type": "string"
        }
      ],
      "name": "addCandidate",
      "outputs": [],
      "payable": false,
      "stateMutability": "nonpayable",
      "type": "function"
    },
    {
      "constant": false,
      "inputs": [
        {
          "internalType": "address",
          "name": "_address",
          "type": "address"
        },
        {
          "internalType": "string",
          "name": "_name",
          "type": "string"
        },
        {
          "internalType": "string",
          "name": "_description",
          "type": "string"
        },
        {
          "internalType": "string",
          "name": "_image",
          "type": "string"
        }
      ],
      "name": "editCandidateByAddress",
      "outputs": [],
      "payable": false,
      "stateMutability": "nonpayable",
      "type": "function"
    },
    {
      "constant": false,
      "inputs": [
        {
          "internalType": "address",
          "name": "_address",
          "type": "address"
        }
      ],
      "name": "deleteCandidateByAddress",
      "outputs": [
        {
          "internalType": "bool",
          "name": "",
          "type": "bool"
        }
      ],
      "payable": false,
      "stateMutability": "nonpayable",
      "type": "function"
    },
    {
      "constant": false,
      "inputs": [],
      "name": "distributeTokens",
      "outputs": [],
      "payable": false,
      "stateMutability": "nonpayable",
      "type": "function"
    },
    {
      "constant": false,
      "inputs": [
        {
          "internalType": "address",
          "name": "candidateAddress",
          "type": "address"
        }
      ],
      "name": "vote",
      "outputs": [],
      "payable": false,
      "stateMutability": "nonpayable",
      "type": "function"
    },
    {
      "constant": true,
      "inputs": [],
      "name": "getResults",
      "outputs": [
        {
          "internalType": "uint256[]",
          "name": "",
          "type": "uint256[]"
        }
      ],
      "payable": false,
      "stateMutability": "view",
      "type": "function"
    },
    {
      "constant": true,
      "inputs": [],
      "name": "getCandidateData",
      "outputs": [
        {
          "internalType": "string[]",
          "name": "",
          "type": "string[]"
        },
        {
          "internalType": "string[]",
          "name": "",
          "type": "string[]"
        }
      ],
      "payable": false,
      "stateMutability": "view",
      "type": "function"
    },
    {
      "constant": false,
      "inputs": [
        {
          "internalType": "uint256",
          "name": "_start",
          "type": "uint256"
        }
      ],
      "name": "setElectionStartTime",
      "outputs": [],
      "payable": false,
      "stateMutability": "nonpayable",
      "type": "function"
    },
    {
      "constant": false,
      "inputs": [
        {
          "internalType": "uint256",
          "name": "_expiration",
          "type": "uint256"
        }
      ],
      "name": "setElectionExpirationTime",
      "outputs": [],
      "payable": false,
      "stateMutability": "nonpayable",
      "type": "function"
    },
    {
      "constant": false,
      "inputs": [
        {
          "internalType": "uint256",
          "name": "_start",
          "type": "uint256"
        }
      ],
      "name": "changeElectionStartTime",
      "outputs": [],
      "payable": false,
      "stateMutability": "nonpayable",
      "type": "function"
    },
    {
      "constant": false,
      "inputs": [
        {
          "internalType": "uint256",
          "name": "_expiration",
          "type": "uint256"
        }
      ],
      "name": "changeElectionExpirationTime",
      "outputs": [],
      "payable": false,
      "stateMutability": "nonpayable",
      "type": "function"
    },
    {
      "constant": true,
      "inputs": [],
      "name": "displayTime",
      "outputs": [
        {
          "internalType": "uint256",
          "name": "",
          "type": "uint256"
        },
        {
          "internalType": "uint256",
          "name": "",
          "type": "uint256"
        },
        {
          "internalType": "uint256",
          "name": "",
          "type": "uint256"
        }
      ],
      "payable": false,
      "stateMutability": "view",
      "type": "function"
    },
    {
      "constant": true,
      "inputs": [],
      "name": "displayEndTime",
      "outputs": [
        {
          "internalType": "uint256",
          "name": "",
          "type": "uint256"
        }
      ],
      "payable": false,
      "stateMutability": "view",
      "type": "function"
    }
  ],
  "bytecode": "0x60806040523480156200001157600080fd5b5060405162004eca38038062004eca833981810160405262000037919081019062000ce5565b6040518060400160405280600b81526020017f566f74696e67546f6b656e0000000000000000000000000000000000000000008152506040518060400160405280600381526020017f565443000000000000000000000000000000000000000000000000000000000081525060008260039080519060200190620000bd92919062000b1f565b508160049080519060200190620000d692919062000b1f565b5080600560006101000a81548160ff021916908360ff16021790555050505033600560016101000a81548173ffffffffffffffffffffffffffffffffffffffff021916908373ffffffffffffffffffffffffffffffffffffffff160217905550600560019054906101000a900473ffffffffffffffffffffffffffffffffffffffff1673ffffffffffffffffffffffffffffffffffffffff16600073ffffffffffffffffffffffffffffffffffffffff167f8be0079c531659141344cd1fd0a4f28419497f9722a3daafe3b4186f6b6457e060405160405180910390a3620001c533856200023660201b60201c565b620001d686620003d160201b60201c565b620001e7856200040760201b60201c565b620001f8836200043d60201b60201c565b620002086200050560201b60201c565b6200021982620005e660201b60201c565b6200022a816200060a60201b60201c565b505050505050620011f2565b600073ffffffffffffffffffffffffffffffffffffffff168273ffffffffffffffffffffffffffffffffffffffff161415620002a9576040517f08c379a0000000000000000000000000000000000000000000000000000000008152600401620002a0906200105a565b60405180910390fd5b620002c5816002546200062e60201b62002a1c1790919060201c565b60028190555062000323816000808573ffffffffffffffffffffffffffffffffffffffff1673ffffffffffffffffffffffffffffffffffffffff168152602001908152602001600020546200062e60201b62002a1c1790919060201c565b6000808473ffffffffffffffffffffffffffffffffffffffff1673ffffffffffffffffffffffffffffffffffffffff168152602001908152602001600020819055508173ffffffffffffffffffffffffffffffffffffffff16600073ffffffffffffffffffffffffffffffffffffffff167fddf252ad1be2c89b69c2b068fc378daa952ba7f163c4a11628f55a4df523b3ef83604051620003c591906200107c565b60405180910390a35050565b620003e16200068660201b60201c565b620003eb57600080fd5b80600890805190602001906200040392919062000b1f565b5050565b620004176200068660201b60201c565b6200042157600080fd5b80600990805190602001906200043992919062000b1f565b5050565b6200044d6200068660201b60201c565b6200045757600080fd5b60008090505b81518110156200050157600c60008383815181106200047857fe5b602002602001015173ffffffffffffffffffffffffffffffffffffffff1673ffffffffffffffffffffffffffffffffffffffff16815260200190815260200160002060009054906101000a900460ff16620004f357620004f2828281518110620004de57fe5b6020026020010151620006de60201b60201c565b5b80806001019150506200045d565b5050565b620005156200068660201b60201c565b6200051f57600080fd5b60008090505b600a80549050811015620005e35760006200054633620007b960201b60201c565b1162000589576040517f08c379a0000000000000000000000000000000000000000000000000000000008152600401620005809062000ff4565b60405180910390fd5b620005d4600a82815481106200059b57fe5b9060005260206000200160009054906101000a900473ffffffffffffffffffffffffffffffffffffffff1660016200080160201b60201c565b50808060010191505062000525565b50565b620005f66200068660201b60201c565b6200060057600080fd5b8060108190555050565b6200061a6200068660201b60201c565b6200062457600080fd5b80600f8190555050565b6000808284019050838110156200067c576040517f08c379a0000000000000000000000000000000000000000000000000000000008152600401620006739062001016565b60405180910390fd5b8091505092915050565b6000600560019054906101000a900473ffffffffffffffffffffffffffffffffffffffff1673ffffffffffffffffffffffffffffffffffffffff163373ffffffffffffffffffffffffffffffffffffffff1614905090565b620006ee6200068660201b60201c565b620006f857600080fd5b6001600c60008373ffffffffffffffffffffffffffffffffffffffff1673ffffffffffffffffffffffffffffffffffffffff16815260200190815260200160002060006101000a81548160ff021916908315150217905550600a8190806001815401808255809150509060018203906000526020600020016000909192909190916101000a81548173ffffffffffffffffffffffffffffffffffffffff021916908373ffffffffffffffffffffffffffffffffffffffff1602179055505050565b60008060008373ffffffffffffffffffffffffffffffffffffffff1673ffffffffffffffffffffffffffffffffffffffff168152602001908152602001600020549050919050565b6000620008163384846200082060201b60201c565b6001905092915050565b600073ffffffffffffffffffffffffffffffffffffffff168373ffffffffffffffffffffffffffffffffffffffff16141562000893576040517f08c379a00000000000000000000000000000000000000000000000000000000081526004016200088a9062001038565b60405180910390fd5b600073ffffffffffffffffffffffffffffffffffffffff168273ffffffffffffffffffffffffffffffffffffffff16141562000906576040517f08c379a0000000000000000000000000000000000000000000000000000000008152600401620008fd9062000fd2565b60405180910390fd5b620009798160405180606001604052806026815260200162004ea4602691396000808773ffffffffffffffffffffffffffffffffffffffff1673ffffffffffffffffffffffffffffffffffffffff1681526020019081526020016000205462000ac160201b620028ef179092919060201c565b6000808573ffffffffffffffffffffffffffffffffffffffff1673ffffffffffffffffffffffffffffffffffffffff1681526020019081526020016000208190555062000a13816000808573ffffffffffffffffffffffffffffffffffffffff1673ffffffffffffffffffffffffffffffffffffffff168152602001908152602001600020546200062e60201b62002a1c1790919060201c565b6000808473ffffffffffffffffffffffffffffffffffffffff1673ffffffffffffffffffffffffffffffffffffffff168152602001908152602001600020819055508173ffffffffffffffffffffffffffffffffffffffff168373ffffffffffffffffffffffffffffffffffffffff167fddf252ad1be2c89b69c2b068fc378daa952ba7f163c4a11628f55a4df523b3ef8360405162000ab491906200107c565b60405180910390a3505050565b600083831115829062000b0c576040517f08c379a000000000000000000000000000000000000000000000000000000000815260040162000b03919062000fae565b60405180910390fd5b5060008385039050809150509392505050565b828054600181600116156101000203166002900490600052602060002090601f016020900481019282601f1062000b6257805160ff191683800117855562000b93565b8280016001018555821562000b93579182015b8281111562000b9257825182559160200191906001019062000b75565b5b50905062000ba2919062000ba6565b5090565b62000bcb91905b8082111562000bc757600081600090555060010162000bad565b5090565b90565b60008151905062000bdf81620011be565b92915050565b600082601f83011262000bf757600080fd5b815162000c0e62000c0882620010c7565b62001099565b9150818183526020840193506020810190508385602084028201111562000c3457600080fd5b60005b8381101562000c68578162000c4d888262000bce565b84526020840193506020830192505060018101905062000c37565b5050505092915050565b600082601f83011262000c8457600080fd5b815162000c9b62000c9582620010f0565b62001099565b9150808252602083016020830185838301111562000cb857600080fd5b62000cc583828462001177565b50505092915050565b60008151905062000cdf81620011d8565b92915050565b60008060008060008060c0878903121562000cff57600080fd5b600087015167ffffffffffffffff81111562000d1a57600080fd5b62000d2889828a0162000c72565b965050602087015167ffffffffffffffff81111562000d4657600080fd5b62000d5489828a0162000c72565b955050604062000d6789828a0162000cce565b945050606087015167ffffffffffffffff81111562000d8557600080fd5b62000d9389828a0162000be5565b935050608062000da689828a0162000cce565b92505060a062000db989828a0162000cce565b9150509295509295509295565b600062000dd3826200111d565b62000ddf818562001128565b935062000df181856020860162001177565b62000dfc81620011ad565b840191505092915050565b600062000e1660238362001128565b91507f45524332303a207472616e7366657220746f20746865207a65726f206164647260008301527f65737300000000000000000000000000000000000000000000000000000000006020830152604082019050919050565b600062000e7e600e8362001128565b91507f537570706c79206973206f7665720000000000000000000000000000000000006000830152602082019050919050565b600062000ec0601b8362001128565b91507f536166654d6174683a206164646974696f6e206f766572666c6f7700000000006000830152602082019050919050565b600062000f0260258362001128565b91507f45524332303a207472616e736665722066726f6d20746865207a65726f20616460008301527f64726573730000000000000000000000000000000000000000000000000000006020830152604082019050919050565b600062000f6a601f8362001128565b91507f45524332303a206d696e7420746f20746865207a65726f2061646472657373006000830152602082019050919050565b62000fa8816200116d565b82525050565b6000602082019050818103600083015262000fca818462000dc6565b905092915050565b6000602082019050818103600083015262000fed8162000e07565b9050919050565b600060208201905081810360008301526200100f8162000e6f565b9050919050565b60006020820190508181036000830152620010318162000eb1565b9050919050565b60006020820190508181036000830152620010538162000ef3565b9050919050565b60006020820190508181036000830152620010758162000f5b565b9050919050565b600060208201905062001093600083018462000f9d565b92915050565b6000604051905081810181811067ffffffffffffffff82111715620010bd57600080fd5b8060405250919050565b600067ffffffffffffffff821115620010df57600080fd5b602082029050602081019050919050565b600067ffffffffffffffff8211156200110857600080fd5b601f19601f8301169050602081019050919050565b600081519050919050565b600082825260208201905092915050565b600062001146826200114d565b9050919050565b600073ffffffffffffffffffffffffffffffffffffffff82169050919050565b6000819050919050565b60005b83811015620011975780820151818401526020810190506200117a565b83811115620011a7576000848401525b50505050565b6000601f19601f8301169050919050565b620011c98162001139565b8114620011d557600080fd5b50565b620011e3816200116d565b8114620011ef57600080fd5b50565b613ca280620012026000396000f3fe608060405234801561001057600080fd5b50600436106102485760003560e01c80636dd7d8ea1161013b578063a9059cbb116100b8578063dd0e23731161007c578063dd0e2373146106db578063dd62ed3e1461070b578063f2fde38b1461073b578063fddfb93e14610757578063ff31fd0c1461077357610248565b8063a9059cbb14610611578063af8c50b614610641578063b27a76a31461065f578063d55d73c51461067b578063d8d97988146106ab57610248565b80638f32d59b116100ff5780638f32d59b1461057f57806395d89b411461059d5780639ab1b484146105bb578063a457c2d7146105c5578063a7990a7a146105f557610248565b80636dd7d8ea146104ed57806370a0823114610509578063715018a61461053957806385e8e7a7146105435780638da5cb5b1461056157610248565b806330e7a79c116101c95780634717f97c1161018d5780634717f97c1461045257806349a2b6031461047057806350a4ca1b1461048e5780635fbbe65a146104ad5780636652e526146104cd57610248565b806330e7a79c14610395578063313ce567146103b35780633477ee2e146103d157806339509351146104065780633d72de431461043657610248565b8063227292f011610210578063227292f0146102f157806323b872dd1461030f5780632742ab291461033f5780632d35a8a21461035b5780632fdc2cc61461037957610248565b8063031a13741461024d57806306fdde0314610269578063095ea7b3146102875780630df7afab146102b757806318160ddd146102d3575b600080fd5b61026760048036036102629190810190612f6d565b61078f565b005b6102716107ba565b60405161027e91906136e1565b60405180910390f35b6102a1600480360361029c9190810190612ef0565b61085c565b6040516102ae91906136a4565b60405180910390f35b6102d160048036036102cc9190810190612e45565b610873565b005b6102db610b57565b6040516102e89190613908565b60405180910390f35b6102f9610b61565b6040516103069190613908565b60405180910390f35b61032960048036036103249190810190612df6565b610b6b565b60405161033691906136a4565b60405180910390f35b61035960048036036103549190810190612f2c565b610c36565b005b610363610ce8565b6040516103709190613908565b60405180910390f35b610393600480360361038e9190810190612fae565b610cee565b005b61039d610d51565b6040516103aa91906136e1565b60405180910390f35b6103bb610df3565b6040516103c891906139d0565b60405180910390f35b6103eb60048036036103e69190810190612fae565b610e0a565b6040516103fd96959493929190613923565b60405180910390f35b610420600480360361041b9190810190612ef0565b61103b565b60405161042d91906136a4565b60405180910390f35b610450600480360361044b9190810190612f6d565b6110e0565b005b61045a61110b565b6040516104679190613682565b60405180910390f35b6104786111f6565b60405161048591906136bf565b60405180910390f35b610496611294565b6040516104a492919061364b565b60405180910390f35b6104b56114f7565b6040516104c493929190613999565b60405180910390f35b6104d5611513565b6040516104e493929190613703565b60405180910390f35b61050760048036036105029190810190612d91565b611662565b005b610523600480360361051e9190810190612d91565b611943565b6040516105309190613908565b60405180910390f35b61054161198b565b005b61054b611a5d565b60405161055891906136bf565b60405180910390f35b610569611afb565b6040516105769190613630565b60405180910390f35b610587611b25565b60405161059491906136a4565b60405180910390f35b6105a5611b7d565b6040516105b291906136e1565b60405180910390f35b6105c3611c1f565b005b6105df60048036036105da9190810190612ef0565b611ce1565b6040516105ec91906136a4565b60405180910390f35b61060f600480360361060a9190810190612e45565b611da0565b005b61062b60048036036106269190810190612ef0565b61203a565b60405161063891906136a4565b60405180910390f35b610649612051565b60405161065691906136e1565b60405180910390f35b61067960048036036106749190810190612fae565b6120f3565b005b61069560048036036106909190810190612fae565b612156565b6040516106a29190613630565b60405180910390f35b6106c560048036036106c09190810190612d91565b612192565b6040516106d291906136a4565b60405180910390f35b6106f560048036036106f09190810190612fae565b612384565b6040516107029190613630565b60405180910390f35b61072560048036036107209190810190612dba565b6123c0565b6040516107329190613908565b60405180910390f35b61075560048036036107509190810190612d91565b612447565b005b610771600480360361076c9190810190612fae565b612464565b005b61078d60048036036107889190810190612fae565b61247f565b005b610797611b25565b6107a057600080fd5b80600890805190602001906107b6929190612b6b565b5050565b606060038054600181600116156101000203166002900480601f0160208091040260200160405190810160405280929190818152602001828054600181600116156101000203166002900480156108525780601f1061082757610100808354040283529160200191610852565b820191906000526020600020905b81548152906001019060200180831161083557829003601f168201915b5050505050905090565b600061086933848461249a565b6001905092915050565b61087b611b25565b61088457600080fd5b6001601054024211156108cc576040517f08c379a00000000000000000000000000000000000000000000000000000000081526004016108c3906137a8565b60405180910390fd5b600d60008573ffffffffffffffffffffffffffffffffffffffff1673ffffffffffffffffffffffffffffffffffffffff16815260200190815260200160002060009054906101000a900460ff1615610959576040517f08c379a000000000000000000000000000000000000000000000000000000000815260040161095090613868565b60405180910390fd5b6001600d60008673ffffffffffffffffffffffffffffffffffffffff1673ffffffffffffffffffffffffffffffffffffffff16815260200190815260200160002060006101000a81548160ff0219169083151502179055506040518060c0016040528060075481526020018481526020018381526020018573ffffffffffffffffffffffffffffffffffffffff16815260200182815260200160011515815250600660006007548152602001908152602001600020600082015181600001556020820151816001019080519060200190610a34929190612beb565b506040820151816002019080519060200190610a51929190612beb565b5060608201518160030160006101000a81548173ffffffffffffffffffffffffffffffffffffffff021916908373ffffffffffffffffffffffffffffffffffffffff1602179055506080820151816004019080519060200190610ab5929190612beb565b5060a08201518160050160006101000a81548160ff021916908315150217905550905050600760008154809291906001019190505550600b8490806001815401808255809150509060018203906000526020600020016000909192909190916101000a81548173ffffffffffffffffffffffffffffffffffffffff021916908373ffffffffffffffffffffffffffffffffffffffff1602179055505050505050565b6000600254905090565b6000600f54905090565b6000610b78848484612665565b610c2b8433610c2685604051806060016040528060288152602001613c1360289139600160008b73ffffffffffffffffffffffffffffffffffffffff1673ffffffffffffffffffffffffffffffffffffffff16815260200190815260200160002060003373ffffffffffffffffffffffffffffffffffffffff1673ffffffffffffffffffffffffffffffffffffffff168152602001908152602001600020546128ef9092919063ffffffff16565b61249a565b600190509392505050565b610c3e611b25565b610c4757600080fd5b60008090505b8151811015610ce457600c6000838381518110610c6657fe5b602002602001015173ffffffffffffffffffffffffffffffffffffffff1673ffffffffffffffffffffffffffffffffffffffff16815260200190815260200160002060009054906101000a900460ff16610cd757610cd6828281518110610cc957fe5b602002602001015161294a565b5b8080600101915050610c4d565b5050565b60075481565b610cf6611b25565b610cff57600080fd5b600160105402421115610d47576040517f08c379a0000000000000000000000000000000000000000000000000000000008152600401610d3e906137a8565b60405180910390fd5b8060108190555050565b606060088054600181600116156101000203166002900480601f016020809104026020016040519081016040528092919081815260200182805460018160011615610100020316600290048015610de95780601f10610dbe57610100808354040283529160200191610de9565b820191906000526020600020905b815481529060010190602001808311610dcc57829003601f168201915b5050505050905090565b6000600560009054906101000a900460ff16905090565b6006602052806000526040600020600091509050806000015490806001018054600181600116156101000203166002900480601f016020809104026020016040519081016040528092919081815260200182805460018160011615610100020316600290048015610ebc5780601f10610e9157610100808354040283529160200191610ebc565b820191906000526020600020905b815481529060010190602001808311610e9f57829003601f168201915b505050505090806002018054600181600116156101000203166002900480601f016020809104026020016040519081016040528092919081815260200182805460018160011615610100020316600290048015610f5a5780601f10610f2f57610100808354040283529160200191610f5a565b820191906000526020600020905b815481529060010190602001808311610f3d57829003601f168201915b5050505050908060030160009054906101000a900473ffffffffffffffffffffffffffffffffffffffff1690806004018054600181600116156101000203166002900480601f01602080910402602001604051908101604052809291908181526020018280546001816001161561010002031660029004801561101e5780601f10610ff35761010080835404028352916020019161101e565b820191906000526020600020905b81548152906001019060200180831161100157829003601f168201915b5050505050908060050160009054906101000a900460ff16905086565b60006110d633846110d185600160003373ffffffffffffffffffffffffffffffffffffffff1673ffffffffffffffffffffffffffffffffffffffff16815260200190815260200160002060008973ffffffffffffffffffffffffffffffffffffffff1673ffffffffffffffffffffffffffffffffffffffff16815260200190815260200160002054612a1c90919063ffffffff16565b61249a565b6001905092915050565b6110e8611b25565b6110f157600080fd5b8060099080519060200190611107929190612b6b565b5050565b606080600b805490506040519080825280602002602001820160405280156111425781602001602082028038833980820191505090505b50905060008090505b600b805490508110156111ee57600115156006600083815260200190815260200160002060050160009054906101000a900460ff16151514156111e1576111c8600b828154811061119857fe5b9060005260206000200160009054906101000a900473ffffffffffffffffffffffffffffffffffffffff16611943565b8282815181106111d457fe5b6020026020010181815250505b808060010191505061114b565b508091505090565b60098054600181600116156101000203166002900480601f01602080910402602001604051908101604052809291908181526020018280546001816001161561010002031660029004801561128c5780601f106112615761010080835404028352916020019161128c565b820191906000526020600020905b81548152906001019060200180831161126f57829003601f168201915b505050505081565b60608060606007546040519080825280602002602001820160405280156112cf57816020015b60608152602001906001900390816112ba5790505b509050606060075460405190808252806020026020018201604052801561130a57816020015b60608152602001906001900390816112f55790505b50905060008090505b600b805490508110156114ea57600115156006600083815260200190815260200160002060050160009054906101000a900460ff161515141561141757600660008281526020019081526020016000206001018054600181600116156101000203166002900480601f0160208091040260200160405190810160405280929190818152602001828054600181600116156101000203166002900480156113fa5780601f106113cf576101008083540402835291602001916113fa565b820191906000526020600020905b8154815290600101906020018083116113dd57829003601f168201915b505050505083828151811061140b57fe5b60200260200101819052505b600660008281526020019081526020016000206002018054600181600116156101000203166002900480601f0160208091040260200160405190810160405280929190818152602001828054600181600116156101000203166002900480156114c15780601f10611496576101008083540402835291602001916114c1565b820191906000526020600020905b8154815290600101906020018083116114a457829003601f168201915b50505050508282815181106114d257fe5b60200260200101819052508080600101915050611313565b5081819350935050509091565b60008060008042905080601054600f5493509350935050909192565b606080600060086009600754828054600181600116156101000203166002900480601f0160208091040260200160405190810160405280929190818152602001828054600181600116156101000203166002900480156115b45780601f10611589576101008083540402835291602001916115b4565b820191906000526020600020905b81548152906001019060200180831161159757829003601f168201915b50505050509250818054600181600116156101000203166002900480601f0160208091040260200160405190810160405280929190818152602001828054600181600116156101000203166002900480156116505780601f1061162557610100808354040283529160200191611650565b820191906000526020600020905b81548152906001019060200180831161163357829003601f168201915b50505050509150925092509250909192565b6001600f540242106116a9576040517f08c379a00000000000000000000000000000000000000000000000000000000081526004016116a090613848565b60405180910390fd5b600d60008273ffffffffffffffffffffffffffffffffffffffff1673ffffffffffffffffffffffffffffffffffffffff16815260200190815260200160002060009054906101000a900460ff16611735576040517f08c379a000000000000000000000000000000000000000000000000000000000815260040161172c90613828565b60405180910390fd5b600c60003373ffffffffffffffffffffffffffffffffffffffff1673ffffffffffffffffffffffffffffffffffffffff16815260200190815260200160002060009054906101000a900460ff166117c1576040517f08c379a00000000000000000000000000000000000000000000000000000000081526004016117b8906138e8565b60405180910390fd5b600e60003373ffffffffffffffffffffffffffffffffffffffff1673ffffffffffffffffffffffffffffffffffffffff16815260200190815260200160002060009054906101000a900460ff161561184e576040517f08c379a0000000000000000000000000000000000000000000000000000000008152600401611845906137e8565b60405180910390fd5b600061185933611943565b11611899576040517f08c379a000000000000000000000000000000000000000000000000000000000815260040161189090613888565b60405180910390fd5b6118a481600161203a565b506001600e60003373ffffffffffffffffffffffffffffffffffffffff1673ffffffffffffffffffffffffffffffffffffffff16815260200190815260200160002060006101000a81548160ff0219169083151502179055508073ffffffffffffffffffffffffffffffffffffffff167f06640b67015c37470a2bc2e00a76d594f6794fae0d12b9e206bc1bf369fe067660405160405180910390a250565b60008060008373ffffffffffffffffffffffffffffffffffffffff1673ffffffffffffffffffffffffffffffffffffffff168152602001908152602001600020549050919050565b611993611b25565b61199c57600080fd5b600073ffffffffffffffffffffffffffffffffffffffff16600560019054906101000a900473ffffffffffffffffffffffffffffffffffffffff1673ffffffffffffffffffffffffffffffffffffffff167f8be0079c531659141344cd1fd0a4f28419497f9722a3daafe3b4186f6b6457e060405160405180910390a36000600560016101000a81548173ffffffffffffffffffffffffffffffffffffffff021916908373ffffffffffffffffffffffffffffffffffffffff160217905550565b60088054600181600116156101000203166002900480601f016020809104026020016040519081016040528092919081815260200182805460018160011615610100020316600290048015611af35780601f10611ac857610100808354040283529160200191611af3565b820191906000526020600020905b815481529060010190602001808311611ad657829003601f168201915b505050505081565b6000600560019054906101000a900473ffffffffffffffffffffffffffffffffffffffff16905090565b6000600560019054906101000a900473ffffffffffffffffffffffffffffffffffffffff1673ffffffffffffffffffffffffffffffffffffffff163373ffffffffffffffffffffffffffffffffffffffff1614905090565b606060048054600181600116156101000203166002900480601f016020809104026020016040519081016040528092919081815260200182805460018160011615610100020316600290048015611c155780601f10611bea57610100808354040283529160200191611c15565b820191906000526020600020905b815481529060010190602001808311611bf857829003601f168201915b5050505050905090565b611c27611b25565b611c3057600080fd5b60008090505b600a80549050811015611cde576000611c4e33611943565b11611c8e576040517f08c379a0000000000000000000000000000000000000000000000000000000008152600401611c8590613788565b60405180910390fd5b611cd0600a8281548110611c9e57fe5b9060005260206000200160009054906101000a900473ffffffffffffffffffffffffffffffffffffffff16600161203a565b508080600101915050611c36565b50565b6000611d963384611d9185604051806060016040528060258152602001613c3b60259139600160003373ffffffffffffffffffffffffffffffffffffffff1673ffffffffffffffffffffffffffffffffffffffff16815260200190815260200160002060008a73ffffffffffffffffffffffffffffffffffffffff1673ffffffffffffffffffffffffffffffffffffffff168152602001908152602001600020546128ef9092919063ffffffff16565b61249a565b6001905092915050565b611da8611b25565b611db157600080fd5b600160105402421115611df9576040517f08c379a0000000000000000000000000000000000000000000000000000000008152600401611df0906137a8565b60405180910390fd5b600d60008573ffffffffffffffffffffffffffffffffffffffff1673ffffffffffffffffffffffffffffffffffffffff16815260200190815260200160002060009054906101000a900460ff16611e85576040517f08c379a0000000000000000000000000000000000000000000000000000000008152600401611e7c90613748565b60405180910390fd5b60008090505b600754811015612033578473ffffffffffffffffffffffffffffffffffffffff166006600083815260200190815260200160002060030160009054906101000a900473ffffffffffffffffffffffffffffffffffffffff1673ffffffffffffffffffffffffffffffffffffffff161415612026576040518060c0016040528060075481526020018581526020018481526020018673ffffffffffffffffffffffffffffffffffffffff1681526020018381526020016001151581525060066000838152602001908152602001600020600082015181600001556020820151816001019080519060200190611f80929190612beb565b506040820151816002019080519060200190611f9d929190612beb565b5060608201518160030160006101000a81548173ffffffffffffffffffffffffffffffffffffffff021916908373ffffffffffffffffffffffffffffffffffffffff1602179055506080820151816004019080519060200190612001929190612beb565b5060a08201518160050160006101000a81548160ff0219169083151502179055509050505b8080600101915050611e8b565b5050505050565b6000612047338484612665565b6001905092915050565b606060098054600181600116156101000203166002900480601f0160208091040260200160405190810160405280929190818152602001828054600181600116156101000203166002900480156120e95780601f106120be576101008083540402835291602001916120e9565b820191906000526020600020905b8154815290600101906020018083116120cc57829003601f168201915b5050505050905090565b6120fb611b25565b61210457600080fd5b60016010540242111561214c576040517f08c379a0000000000000000000000000000000000000000000000000000000008152600401612143906137a8565b60405180910390fd5b80600f8190555050565b600b818154811061216357fe5b906000526020600020016000915054906101000a900473ffffffffffffffffffffffffffffffffffffffff1681565b600061219c611b25565b6121a557600080fd5b6001601054024211156121ed576040517f08c379a00000000000000000000000000000000000000000000000000000000081526004016121e4906137a8565b60405180910390fd5b600d60008373ffffffffffffffffffffffffffffffffffffffff1673ffffffffffffffffffffffffffffffffffffffff16815260200190815260200160002060009054906101000a900460ff16612279576040517f08c379a000000000000000000000000000000000000000000000000000000000815260040161227090613748565b60405180910390fd5b60008090505b60075481101561237957600d60008473ffffffffffffffffffffffffffffffffffffffff1673ffffffffffffffffffffffffffffffffffffffff16815260200190815260200160002060009054906101000a900460ff161561236c5760006006600083815260200190815260200160002060050160006101000a81548160ff0219169083151502179055506000600d60008573ffffffffffffffffffffffffffffffffffffffff1673ffffffffffffffffffffffffffffffffffffffff16815260200190815260200160002060006101000a81548160ff021916908315150217905550600191505061237f565b808060010191505061227f565b50600090505b919050565b600a818154811061239157fe5b906000526020600020016000915054906101000a900473ffffffffffffffffffffffffffffffffffffffff1681565b6000600160008473ffffffffffffffffffffffffffffffffffffffff1673ffffffffffffffffffffffffffffffffffffffff16815260200190815260200160002060008373ffffffffffffffffffffffffffffffffffffffff1673ffffffffffffffffffffffffffffffffffffffff16815260200190815260200160002054905092915050565b61244f611b25565b61245857600080fd5b61246181612a71565b50565b61246c611b25565b61247557600080fd5b80600f8190555050565b612487611b25565b61249057600080fd5b8060108190555050565b600073ffffffffffffffffffffffffffffffffffffffff168373ffffffffffffffffffffffffffffffffffffffff16141561250a576040517f08c379a0000000000000000000000000000000000000000000000000000000008152600401612501906138c8565b60405180910390fd5b600073ffffffffffffffffffffffffffffffffffffffff168273ffffffffffffffffffffffffffffffffffffffff16141561257a576040517f08c379a0000000000000000000000000000000000000000000000000000000008152600401612571906137c8565b60405180910390fd5b80600160008573ffffffffffffffffffffffffffffffffffffffff1673ffffffffffffffffffffffffffffffffffffffff16815260200190815260200160002060008473ffffffffffffffffffffffffffffffffffffffff1673ffffffffffffffffffffffffffffffffffffffff168152602001908152602001600020819055508173ffffffffffffffffffffffffffffffffffffffff168373ffffffffffffffffffffffffffffffffffffffff167f8c5be1e5ebec7d5bd14f71427d1e84f3dd0314c0f7b2291e5b200ac8c7c3b925836040516126589190613908565b60405180910390a3505050565b600073ffffffffffffffffffffffffffffffffffffffff168373ffffffffffffffffffffffffffffffffffffffff1614156126d5576040517f08c379a00000000000000000000000000000000000000000000000000000000081526004016126cc906138a8565b60405180910390fd5b600073ffffffffffffffffffffffffffffffffffffffff168273ffffffffffffffffffffffffffffffffffffffff161415612745576040517f08c379a000000000000000000000000000000000000000000000000000000000815260040161273c90613768565b60405180910390fd5b6127b081604051806060016040528060268152602001613bed602691396000808773ffffffffffffffffffffffffffffffffffffffff1673ffffffffffffffffffffffffffffffffffffffff168152602001908152602001600020546128ef9092919063ffffffff16565b6000808573ffffffffffffffffffffffffffffffffffffffff1673ffffffffffffffffffffffffffffffffffffffff16815260200190815260200160002081905550612843816000808573ffffffffffffffffffffffffffffffffffffffff1673ffffffffffffffffffffffffffffffffffffffff16815260200190815260200160002054612a1c90919063ffffffff16565b6000808473ffffffffffffffffffffffffffffffffffffffff1673ffffffffffffffffffffffffffffffffffffffff168152602001908152602001600020819055508173ffffffffffffffffffffffffffffffffffffffff168373ffffffffffffffffffffffffffffffffffffffff167fddf252ad1be2c89b69c2b068fc378daa952ba7f163c4a11628f55a4df523b3ef836040516128e29190613908565b60405180910390a3505050565b6000838311158290612937576040517f08c379a000000000000000000000000000000000000000000000000000000000815260040161292e91906136e1565b60405180910390fd5b5060008385039050809150509392505050565b612952611b25565b61295b57600080fd5b6001600c60008373ffffffffffffffffffffffffffffffffffffffff1673ffffffffffffffffffffffffffffffffffffffff16815260200190815260200160002060006101000a81548160ff021916908315150217905550600a8190806001815401808255809150509060018203906000526020600020016000909192909190916101000a81548173ffffffffffffffffffffffffffffffffffffffff021916908373ffffffffffffffffffffffffffffffffffffffff1602179055505050565b600080828401905083811015612a67576040517f08c379a0000000000000000000000000000000000000000000000000000000008152600401612a5e90613808565b60405180910390fd5b8091505092915050565b600073ffffffffffffffffffffffffffffffffffffffff168173ffffffffffffffffffffffffffffffffffffffff161415612aab57600080fd5b8073ffffffffffffffffffffffffffffffffffffffff16600560019054906101000a900473ffffffffffffffffffffffffffffffffffffffff1673ffffffffffffffffffffffffffffffffffffffff167f8be0079c531659141344cd1fd0a4f28419497f9722a3daafe3b4186f6b6457e060405160405180910390a380600560016101000a81548173ffffffffffffffffffffffffffffffffffffffff021916908373ffffffffffffffffffffffffffffffffffffffff16021790555050565b828054600181600116156101000203166002900490600052602060002090601f016020900481019282601f10612bac57805160ff1916838001178555612bda565b82800160010185558215612bda579182015b82811115612bd9578251825591602001919060010190612bbe565b5b509050612be79190612c6b565b5090565b828054600181600116156101000203166002900490600052602060002090601f016020900481019282601f10612c2c57805160ff1916838001178555612c5a565b82800160010185558215612c5a579182015b82811115612c59578251825591602001919060010190612c3e565b5b509050612c679190612c6b565b5090565b612c8d91905b80821115612c89576000816000905550600101612c71565b5090565b90565b600081359050612c9f81613bbe565b92915050565b600082601f830112612cb657600080fd5b8135612cc9612cc482613a18565b6139eb565b91508181835260208401935060208101905083856020840282011115612cee57600080fd5b60005b83811015612d1e5781612d048882612c90565b845260208401935060208301925050600181019050612cf1565b5050505092915050565b600082601f830112612d3957600080fd5b8135612d4c612d4782613a40565b6139eb565b91508082526020830160208301858383011115612d6857600080fd5b612d73838284613b6b565b50505092915050565b600081359050612d8b81613bd5565b92915050565b600060208284031215612da357600080fd5b6000612db184828501612c90565b91505092915050565b60008060408385031215612dcd57600080fd5b6000612ddb85828601612c90565b9250506020612dec85828601612c90565b9150509250929050565b600080600060608486031215612e0b57600080fd5b6000612e1986828701612c90565b9350506020612e2a86828701612c90565b9250506040612e3b86828701612d7c565b9150509250925092565b60008060008060808587031215612e5b57600080fd5b6000612e6987828801612c90565b945050602085013567ffffffffffffffff811115612e8657600080fd5b612e9287828801612d28565b935050604085013567ffffffffffffffff811115612eaf57600080fd5b612ebb87828801612d28565b925050606085013567ffffffffffffffff811115612ed857600080fd5b612ee487828801612d28565b91505092959194509250565b60008060408385031215612f0357600080fd5b6000612f1185828601612c90565b9250506020612f2285828601612d7c565b9150509250929050565b600060208284031215612f3e57600080fd5b600082013567ffffffffffffffff811115612f5857600080fd5b612f6484828501612ca5565b91505092915050565b600060208284031215612f7f57600080fd5b600082013567ffffffffffffffff811115612f9957600080fd5b612fa584828501612d28565b91505092915050565b600060208284031215612fc057600080fd5b6000612fce84828501612d7c565b91505092915050565b6000612fe3838361312d565b905092915050565b6000612ff78383613603565b60208301905092915050565b61300c81613b16565b82525050565b600061301d82613a8c565b6130278185613ad2565b93508360208202850161303985613a6c565b8060005b8581101561307557848403895281516130568582612fd7565b945061306183613ab8565b925060208a0199505060018101905061303d565b50829750879550505050505092915050565b600061309282613a97565b61309c8185613ae3565b93506130a783613a7c565b8060005b838110156130d85781516130bf8882612feb565b97506130ca83613ac5565b9250506001810190506130ab565b5085935050505092915050565b6130ee81613b28565b82525050565b60006130ff82613aad565b6131098185613b05565b9350613119818560208601613b7a565b61312281613bad565b840191505092915050565b600061313882613aa2565b6131428185613af4565b9350613152818560208601613b7a565b61315b81613bad565b840191505092915050565b600061317182613aa2565b61317b8185613b05565b935061318b818560208601613b7a565b61319481613bad565b840191505092915050565b60006131ac602483613b05565b91507f546869732063616e646964617465206164647265737320646f65736e2774206560008301527f78697374000000000000000000000000000000000000000000000000000000006020830152604082019050919050565b6000613212602383613b05565b91507f45524332303a207472616e7366657220746f20746865207a65726f206164647260008301527f65737300000000000000000000000000000000000000000000000000000000006020830152604082019050919050565b6000613278600e83613b05565b91507f537570706c79206973206f7665720000000000000000000000000000000000006000830152602082019050919050565b60006132b8601983613b05565b91507f5468697320706f6c6c20616c72656164792073746172746564000000000000006000830152602082019050919050565b60006132f8602283613b05565b91507f45524332303a20617070726f766520746f20746865207a65726f20616464726560008301527f73730000000000000000000000000000000000000000000000000000000000006020830152604082019050919050565b600061335e601283613b05565b91507f5573657220616c726561647920766f74656400000000000000000000000000006000830152602082019050919050565b600061339e601b83613b05565b91507f536166654d6174683a206164646974696f6e206f766572666c6f7700000000006000830152602082019050919050565b60006133de601283613b05565b91507f4973206e6f7420612043616e64696461746500000000000000000000000000006000830152602082019050919050565b600061341e601683613b05565b91507f5468697320706f6c6c2068617320657870697265642e000000000000000000006000830152602082019050919050565b600061345e602483613b05565b91507f546869732063616e646964617465206164647265737320616c7265616479206560008301527f78697374000000000000000000000000000000000000000000000000000000006020830152604082019050919050565b60006134c4601a83613b05565b91507f566f74657220646f65736e27742068617665206120746f6b656e0000000000006000830152602082019050919050565b6000613504602583613b05565b91507f45524332303a207472616e736665722066726f6d20746865207a65726f20616460008301527f64726573730000000000000000000000000000000000000000000000000000006020830152604082019050919050565b600061356a602483613b05565b91507f45524332303a20617070726f76652066726f6d20746865207a65726f2061646460008301527f72657373000000000000000000000000000000000000000000000000000000006020830152604082019050919050565b60006135d0601b83613b05565b91507f557365722069736e277420617574686f72697a656420766f74657200000000006000830152602082019050919050565b61360c81613b54565b82525050565b61361b81613b54565b82525050565b61362a81613b5e565b82525050565b60006020820190506136456000830184613003565b92915050565b600060408201905081810360008301526136658185613012565b905081810360208301526136798184613012565b90509392505050565b6000602082019050818103600083015261369c8184613087565b905092915050565b60006020820190506136b960008301846130e5565b92915050565b600060208201905081810360008301526136d98184613166565b905092915050565b600060208201905081810360008301526136fb81846130f4565b905092915050565b6000606082019050818103600083015261371d81866130f4565b9050818103602083015261373181856130f4565b90506137406040830184613612565b949350505050565b600060208201905081810360008301526137618161319f565b9050919050565b6000602082019050818103600083015261378181613205565b9050919050565b600060208201905081810360008301526137a18161326b565b9050919050565b600060208201905081810360008301526137c1816132ab565b9050919050565b600060208201905081810360008301526137e1816132eb565b9050919050565b6000602082019050818103600083015261380181613351565b9050919050565b6000602082019050818103600083015261382181613391565b9050919050565b60006020820190508181036000830152613841816133d1565b9050919050565b6000602082019050818103600083015261386181613411565b9050919050565b6000602082019050818103600083015261388181613451565b9050919050565b600060208201905081810360008301526138a1816134b7565b9050919050565b600060208201905081810360008301526138c1816134f7565b9050919050565b600060208201905081810360008301526138e18161355d565b9050919050565b60006020820190508181036000830152613901816135c3565b9050919050565b600060208201905061391d6000830184613612565b92915050565b600060c0820190506139386000830189613612565b818103602083015261394a8188613166565b9050818103604083015261395e8187613166565b905061396d6060830186613003565b818103608083015261397f8185613166565b905061398e60a08301846130e5565b979650505050505050565b60006060820190506139ae6000830186613612565b6139bb6020830185613612565b6139c86040830184613612565b949350505050565b60006020820190506139e56000830184613621565b92915050565b6000604051905081810181811067ffffffffffffffff82111715613a0e57600080fd5b8060405250919050565b600067ffffffffffffffff821115613a2f57600080fd5b602082029050602081019050919050565b600067ffffffffffffffff821115613a5757600080fd5b601f19601f8301169050602081019050919050565b6000819050602082019050919050565b6000819050602082019050919050565b600081519050919050565b600081519050919050565b600081519050919050565b600081519050919050565b6000602082019050919050565b6000602082019050919050565b600082825260208201905092915050565b600082825260208201905092915050565b600082825260208201905092915050565b600082825260208201905092915050565b6000613b2182613b34565b9050919050565b60008115159050919050565b600073ffffffffffffffffffffffffffffffffffffffff82169050919050565b6000819050919050565b600060ff82169050919050565b82818337600083830152505050565b60005b83811015613b98578082015181840152602081019050613b7d565b83811115613ba7576000848401525b50505050565b6000601f19601f8301169050919050565b613bc781613b16565b8114613bd257600080fd5b50565b613bde81613b54565b8114613be957600080fd5b5056fe45524332303a207472616e7366657220616d6f756e7420657863656564732062616c616e636545524332303a207472616e7366657220616d6f756e74206578636565647320616c6c6f77616e636545524332303a2064656372656173656420616c6c6f77616e63652062656c6f77207a65726fa365627a7a72315820ba20ac47bed16f5bea907172b5a2b68b0bdf82328905a173c47498a45d1648076c6578706572696d656e74616cf564736f6c634300050c004045524332303a207472616e7366657220616d6f756e7420657863656564732062616c616e6365",
  "source": "pragma solidity >=0.4.22 <0.6.0;\r\npragma experimental ABIEncoderV2;   \r\n\r\nimport  \"./erc20.sol\";\r\nimport  \"./erc20Detailed.sol\";\r\nimport  \"./Owned.sol\";\r\n\r\ncontract ElectionToken is erc20, erc20Detailed, Owned{\r\n\r\n    struct Candidate{\r\n        uint id;                        // the candidate associated number in this pool\r\n        string name;                    // candidate name\r\n        string description;             // short description of the candidate\r\n        address candidateAdd;\r\n        string image;                   // candidate image link\r\n        bool candidateInitialized;      // true if candidate exist\r\n    }\r\n\r\n    mapping (uint => Candidate) public candidates;\r\n    uint public candidatesCount;\r\n\r\n    string public electionName;\r\n    string public electionDescription;\r\n\r\n    address[] public voterAddresses;\r\n    address[] public candidateAddresses;\r\n\r\n    mapping (address => bool) voterAddressInitialized;\r\n    mapping (address => bool) candidateAddressInitialized;\r\n\r\n    mapping (address => bool) voted;\r\n\r\n    /*https://www.unixtimestamp.com/index.php*/\r\n    uint256 private expiration;    // contract expiration time *** 1577971200 =2/1/2020 13:20:00\r\n    uint256 private start;         // contract start time\r\n\r\n    event votedEvent (\r\n        address indexed _candidateId\r\n    );\r\n\r\n    //constructor(uint256 _initialSupply, address[] memory _voterAddresses, address[] memory _candidateAddresses, uint256 _start, uint256 _end) erc20Detailed(\"VotingToken\", \"VTC\", 0)public{    //_initialTokenSupply = number of voters\r\n    constructor(string memory _name, string memory _description, uint256 _initialSupply, address[] memory _voterAddresses, uint256 _start, uint256 _end) erc20Detailed(\"VotingToken\", \"VTC\", 0)public{    //_initialTokenSupply = number of voters\r\n        _mint(msg.sender, _initialSupply);\r\n        setElectionName(_name);\r\n        setElectionDescription(_description);\r\n        addVotersList(_voterAddresses);\r\n        distributeTokens();\r\n        setElectionStartTime(_start);\r\n        setElectionExpirationTime(_end);\r\n    }\r\n\r\n    function getElectionData() public view returns (string memory, string memory ,uint ){\r\n        return (electionName, electionDescription, candidatesCount);\r\n    }\r\n\r\n    function setElectionName(string memory _name)public onlyOwner{\r\n        electionName = _name;\r\n    }\r\n\r\n    function getElectionName()public view returns (string memory){\r\n        return electionName;\r\n    }\r\n\r\n    function setElectionDescription(string memory _description)public onlyOwner{\r\n        electionDescription = _description;\r\n    }\r\n\r\n    function getElectionDescription()public view returns (string memory){\r\n        return electionDescription;\r\n    }\r\n\r\n    function addVoterAddress(address _address) internal onlyOwner{\r\n        voterAddressInitialized[_address] = true;\r\n        voterAddresses.push(_address);\r\n    }\r\n\r\n    function addVotersList(address[] memory addresses) public onlyOwner{\r\n        //require(now < (start * 1 seconds), \"Poll started v\");\r\n        for(uint i = 0; i < addresses.length; i++){\r\n            if(!voterAddressInitialized[addresses[i]]){\r\n                addVoterAddress(addresses[i]);\r\n            }\r\n        }\r\n    }\r\n\r\n    function addCandidate(address _address, string memory _name, string memory _description, string memory _image) public onlyOwner{\r\n        require(now <= (start * 1 seconds),\"This poll already started\");\r\n        require(!candidateAddressInitialized[_address], \"This candidate address already exist\");\r\n\r\n        candidateAddressInitialized[_address] = true;\r\n        candidates[candidatesCount] = Candidate(candidatesCount, _name, _description, _address, _image, true);\r\n        candidatesCount++;\r\n        candidateAddresses.push(_address);\r\n    }\r\n\r\n    function editCandidateByAddress(address _address, string memory _name, string memory _description, string memory _image) public onlyOwner{\r\n        require(now <= (start * 1 seconds),\"This poll already started\");\r\n        require(candidateAddressInitialized[_address], \"This candidate address doesn't exist\");\r\n\r\n        for(uint i = 0; i < candidatesCount; i++){      // find candidate index\r\n            if(candidates[i].candidateAdd == _address){\r\n                candidates[i] = Candidate(candidatesCount, _name, _description, _address, _image, true);\r\n            }\r\n        }\r\n    }\r\n\r\n    function deleteCandidateByAddress(address _address) public onlyOwner returns(bool){\r\n        require(now <= (start * 1 seconds),\"This poll already started\");\r\n        require(candidateAddressInitialized[_address], \"This candidate address doesn't exist\");\r\n\r\n        for(uint i = 0; i < candidatesCount; i++){      // find candidate index\r\n            if(candidateAddressInitialized[_address]){\r\n                candidates[i].candidateInitialized = false;\r\n                candidateAddressInitialized[_address] = false;\r\n                return true;\r\n            }\r\n        }\r\n        return false;\r\n    }\r\n\r\n    function distributeTokens() public onlyOwner{\r\n        for(uint i = 0; i < voterAddresses.length; i++){\r\n            //require(totalSupply() > 0,\"Supply is over\");\r\n            require(balanceOf(msg.sender) > 0,\"Supply is over\");\r\n            transfer(voterAddresses[i],1);\r\n        }\r\n    }\r\n\r\n    function vote(address candidateAddress) public {\r\n        /*require(now >= (start * 1 seconds), \"This poll not yet started\");\r\n        if(now > (expiration * 1 seconds)){\r\n            endElection();\r\n        }*/\r\n        require(now < (expiration * 1 seconds), \"This poll has expired.\");\r\n        require(candidateAddressInitialized[candidateAddress],\"Is not a Candidate\");\r\n        require(voterAddressInitialized[msg.sender],\"User isn't authorized voter\");\r\n        require(!voted[msg.sender],\"User already voted\");\r\n        require(balanceOf(msg.sender) > 0,\"Voter doesn't have a token\");\r\n        transfer(candidateAddress,1);\r\n        voted[msg.sender] = true;\r\n\r\n        emit votedEvent(candidateAddress);\r\n    }\r\n\r\n\r\n\r\n    function getResults() public view returns (uint256[] memory ){\r\n        uint256[] memory results = new uint256[](candidateAddresses.length);\r\n        for(uint i = 0; i < candidateAddresses.length; i++){\r\n            if(candidates[i].candidateInitialized == true)\r\n                results[i] = balanceOf(candidateAddresses[i]);\r\n        }\r\n        return results;\r\n    }\r\n\r\n    function getCandidateData() public view returns (string[] memory, string[] memory ){\r\n        string[] memory candidateName = new string[](candidatesCount);\r\n        string[] memory candidateDescription = new string[](candidatesCount);\r\n        for(uint i = 0; i < candidateAddresses.length; i++){\r\n            if(candidates[i].candidateInitialized == true)\r\n                candidateName[i] = candidates[i].name;\r\n                candidateDescription[i] = candidates[i].description;\r\n        }\r\n        return (candidateName,candidateDescription);\r\n    }\r\n\r\n    function endElection() private {        // if voter didnt vote set him as if he did\r\n        for(uint i = 0; i < voterAddresses.length; i++){\r\n            if(!voted[voterAddresses[i]]){\r\n                voted[voterAddresses[i]] = true;\r\n            }\r\n        }\r\n    }\r\n\r\n    function setElectionStartTime(uint _start) public onlyOwner{\r\n        start = _start;\r\n    }\r\n\r\n    function setElectionExpirationTime(uint _expiration) public onlyOwner{\r\n        expiration = _expiration;\r\n    }\r\n\r\n    function changeElectionStartTime(uint _start) public onlyOwner{\r\n        require(now <= (start * 1 seconds), \"This poll already started\");\r\n        start = _start;\r\n    }\r\n\r\n    function changeElectionExpirationTime(uint _expiration) public onlyOwner{\r\n        require(now <= (start * 1 seconds), \"This poll already started\");\r\n        expiration = _expiration;\r\n    }\r\n\r\n    function displayTime() public view returns(uint256, uint256, uint256){\r\n        uint256 timeNow = now;\r\n        return (timeNow, start, expiration);\r\n    }\r\n\r\n    function displayEndTime() public view returns(uint256){\r\n        return (expiration);\r\n    }\r\n}",
  "sourcePath": "C:/Users/Misha/Downloads/Votechain/contracts/ElectionToken.sol",
  "compiler": {
    "name": "solc",
    "version": "0.5.12+commit.7709ece9.Emscripten.clang"
  },
  "schemaVersion": "3.0.19",
  "updatedAt": "2020-01-26T17:27:35.925Z",
  "devdoc": {
    "methods": {
      "allowance(address,address)": {
        "details": "See {IERC20-allowance}."
      },
      "approve(address,uint256)": {
        "details": "See {IERC20-approve}.      * Requirements:      * - `spender` cannot be the zero address."
      },
      "balanceOf(address)": {
        "details": "See {IERC20-balanceOf}."
      },
      "decimals()": {
        "details": "Returns the number of decimals used to get its user representation. For example, if `decimals` equals `2`, a balance of `505` tokens should be displayed to a user as `5,05` (`505 / 10 ** 2`).      * Tokens usually opt for a value of 18, imitating the relationship between Ether and Wei.      * NOTE: This information is only used for _display_ purposes: it in no way affects any of the arithmetic of the contract, including {IERC20-balanceOf} and {IERC20-transfer}."
      },
      "decreaseAllowance(address,uint256)": {
        "details": "Atomically decreases the allowance granted to `spender` by the caller.      * This is an alternative to {approve} that can be used as a mitigation for problems described in {IERC20-approve}.      * Emits an {Approval} event indicating the updated allowance.      * Requirements:      * - `spender` cannot be the zero address. - `spender` must have allowance for the caller of at least `subtractedValue`."
      },
      "increaseAllowance(address,uint256)": {
        "details": "Atomically increases the allowance granted to `spender` by the caller.      * This is an alternative to {approve} that can be used as a mitigation for problems described in {IERC20-approve}.      * Emits an {Approval} event indicating the updated allowance.      * Requirements:      * - `spender` cannot be the zero address."
      },
      "isOwner()": {
        "return": "true if `msg.sender` is the owner of the contract."
      },
      "name()": {
        "details": "Returns the name of the token."
      },
      "owner()": {
        "return": "the address of the owner."
      },
      "renounceOwnership()": {
        "details": "Allows the current owner to relinquish control of the contract."
      },
      "symbol()": {
        "details": "Returns the symbol of the token, usually a shorter version of the name."
      },
      "totalSupply()": {
        "details": "See {IERC20-totalSupply}."
      },
      "transfer(address,uint256)": {
        "details": "See {IERC20-transfer}.      * Requirements:      * - `recipient` cannot be the zero address. - the caller must have a balance of at least `amount`."
      },
      "transferFrom(address,address,uint256)": {
        "details": "See {IERC20-transferFrom}.      * Emits an {Approval} event indicating the updated allowance. This is not required by the EIP. See the note at the beginning of {ERC20};      * Requirements: - `sender` and `recipient` cannot be the zero address. - `sender` must have a balance of at least `amount`. - the caller must have allowance for `sender`'s tokens of at least `amount`."
      },
      "transferOwnership(address)": {
        "details": "Allows the current owner to transfer control of the contract to a newOwner.",
        "params": {
          "newOwner": "The address to transfer ownership to."
        }
      }
    }
  },
  "userdoc": {
    "methods": {
      "renounceOwnership()": {
        "notice": "Renouncing to ownership will leave the contract without an owner. It will not be possible to call the functions with the `onlyOwner` modifier anymore."
      }
    }
  }
}